:020000040800F2
:1000000028450020AD54000859DE00089954000826
:10001000995400089954000899540008995400080C
:1000200000000000000000000000000079550008FA
:100030009954000800000000595700087D8000080E
:10004000D1570008D1570008D1570008D1570008F0
:10005000D1570008D1570008D1570008D1570008E0
:10006000D1570008D1570008D1570008D1570008D0
:10007000D1570008D1570008D1570008D1570008C0
:10008000D1570008D1570008D1570008D1570008B0
:10009000D1570008D1570008D1570008D1570008A0
:1000A000D1570008D1570008D1570008D157000890
:1000B000D1570008D1570008D1570008D157000880
:1000C000D1570008D1570008D1570008D157000870
:1000D000D1570008D1570008D1570008D157000860
:1000E000D1570008D1570008D1570008D157000850
:1000F000D1570008D1570008D1570008D157000840
:10010000D1570008D1570008D1570008D15700082F
:10011000D1570008D1570008D1570008D15700081F
:10012000D1570008D1570008D1570008D15700080F
:10013000D1570008D1570008D1570008D1570008FF
:10014000D1570008D1570008D1570008D1570008EF
:10015000D1570008D1570008D1570008D1570008DF
:0C016000D1570008D1570008D157000803
:1001700053B94AB9002908BF00281CBF4FF0FF310E
:100180004FF0FF3000F00CB8ADF1080C6DE904CE73
:1001900000F010F8DDF804E0DDE9022304B0704758
:1001A000704700BF034613F8012B002AFBD1181A31
:1001B000013870472DE9F0478C468E46089E15465B
:1001C00004461946002B40F0D080724547D9B2FA58
:1001D00082F74FB1C7F120030EFA07FCBD40BC40C7
:1001E00020FA03F343EA0C0C4FEA154EA8B2230C95
:1001F000BCFBFEF80EFB18CC08FB00F943EA0C43ED
:10020000994528D9EB1808F1FF3204D2994502D953
:10021000A8F102022B44A3EB0903A4B2B3FBFEFC3A
:100220000EFB1C330CFB00F044EA0344A04214D93B
:100230002C190CF1FF3304D2A04202D9ACF1020315
:100240002C44241A43EA02401EB1FC4000233460CF
:100250007360BDE8F0874246DDE76346F1E7002AB8
:1002600079D0B2FA82F3002B3FD01946C1F12003B6
:1002700002FA01F500FA01F42EFA03F20EFA01FE79
:1002800020FA03F3AFB243EA0E034FEA154EB2FB76
:10029000FEFC0EFB1C201A0C0CFB07F842EA004285
:1002A00090455AD9AA180CF1FF3004D2904502D9D2
:1002B000ACF102002A44A2EB08029BB2B2FBFEFCA6
:1002C0000EFB1C220CFB07F743EA02439F4246D970
:1002D000EB180CF1FF3204D29F4202D9ACF10202BA
:1002E0002B44DB1B42EA004202E0AEEB0203012298
:1002F0004FEA154EAFB2200CB3FBFEFC0EFB1C33D5
:100300000CFB07F840EA034398452AD9EB180CF197
:10031000FF3004D2984502D9ACF102002B44A3EB84
:100320000803A4B2B3FBFEFC0EFB1C330CFB07F767
:1003300044EA0344A74216D92C190CF1FF3304D226
:10034000A74202D9ACF102032C44E41B43EA00406B
:100350000F46114678E71F2188E76046ABE7624603
:10036000BFE76046DBE76346EFE7734506D916B99A
:10037000002108466DE7C6E9000EF9E7B3FA83F7F6
:1003800087B9734501D3824207D8841A6EEB030301
:1003900001209C461EB900215BE73846FAE7C6E912
:1003A000004CF8E7C7F1200CBB4000FA07F422FA32
:1003B0000CF520FA0CF1BA401D432EFA0CF30EFA9C
:1003C00007FE4FEA154941EA0E011FFA85FEB3FB0D
:1003D000F9F809FB18300B0C08FB0EFA43EA00434E
:1003E0009A4540D9EB1808F1FF3004D29A4502D95A
:1003F000A8F102002B44A3EB0A0389B2B3FBF9F87E
:1004000009FB183308FB0EFE41EA03418E452CD947
:10041000691808F1FF3304D28E4502D9A8F102030E
:10042000294443EA0040A1EB0E01A0FB029841459C
:10043000CE46434602D306D14C4504D20138B9EB2F
:10044000020E68EB0503002EA5D0B4EB0E0261EBA3
:10045000030101FA0CFC22FA07F3F9404CEA03030A
:10046000C6E9003197E74046C5E74346D9E70000B3
:100470002DE9F04F9BB002AF8D480EF048FB0028ED
:1004800000F092808B480EF042FB002800F08C8038
:10049000894D07F130040FCD0FC40FCD0FC495E87F
:1004A000070084E80700002407F1300555F8043BF5
:1004B00018680EF02CFB002876D001340B2CF5D1F7
:1004C0004FF480317D4800F011FB7D4904467D48A2
:1004D00000F00CFB4FF4B01104437B4800F006FB26
:1004E0004FF4B0110443794800F000FB4FF4D011F1
:1004F0000443774800F0FAFA4FF4B011044375480A
:1005000000F0F4FA4FF4D0110443734800F0EEFA0F
:100510004FF4D0110443714800F0E8FA70490443E5
:10052000704800F0E3FA4FF4D01104436E4800F035
:10053000DDFA4FF4B01104436C4800F0D7FA0443DD
:1005400032D16B4B6B4A6C4C53601023A56893609F
:10055000EB694BB3012220466649984720BBAD6941
:100560006268236905B31268D1060ED4634940F26C
:10057000A533634A63480CF0C4FF63480CF0C1FF25
:1005800040F2A5315E480CF0B3FF1B684FF0A0723B
:1005900013F0100F14BF4FF000734FF0806304216D
:1005A0002046A847064658B10121584A58480DF040
:1005B00048FA6FF0120420466437BD46BDE8F08F5C
:1005C0003B480121836807F13002FB605B68984774
:1005D000041EF0DBD7E90C4A41F28833A4FB03B2D6
:1005E00003FB0A234FF0FF39BB6058462EA3D3E923
:1005F0000023B968FFF7BCFDDFF81881BB68D94557
:1006000078EB0303054602D26FF08504D3E740F68A
:10061000C413A4FB03B403FB0A4423A3D3E90023BC
:1006200021465846FFF7A4FDD94578EB040403465C
:10063000EAD3854202D26FF01504BCE70096FA684F
:10064000012114681A482A46A04704460028B2D15E
:100650000321314A2E480DF0F4F940F2DC500CF041
:10066000A6FE224605212D4800F0F2FA0A200CF0E1
:100670009EFE01220521294800F0EAFA64200CF0D0
:1006800096FE27480EF043FA48B1204603F018FDC5
:10069000034620B10121234A1D480DF0DBF9002457
:1006A0004CE000BFAFF3008000CA9A3B000000009E
:1006B00018F0000834F000080CF40008C0F400083A
:1006C00010000100B0F40008B8F40008A8F4000815
:1006D000A0F4000898F4000890F4000888F40008DA
:1006E0002000010080F4000878F4000870F400088D
:1006F000450C0008F4170020C4EF000851FA000868
:10070000BEF8000828F900088FFA0008A1FA0008CE
:100710005CF30008FFC99A3BCAFA000870EF0008B2
:10072000FCEF0008E9FA00080121A64AA6480DF0EE
:1007300088F944F6206000210BF066FB00220821B6
:10074000A24800F085FA00220A21A04800F080FAB1
:1007500064200CF02CFE01220A219C4800F078FA5B
:100760004FF4FA700CF023FE02200CF025FE11204D
:100770000CF022FE964D0A200CF01EFE01202C707B
:1007800000F04AFB0028CFD000F002FB0321914A81
:100790008D480DF056F90CF002FE8F4E00F59C547A
:1007A00008348E4B1B7843B10CF0F9FD8C4B1B6861
:1007B000C01A1D2801D900F06DFC2B78EBB900F0B0
:1007C0008FFF03200CF0F3FD4FF00408DFF814A2B4
:1007D000DAF8243033B108F1FF3800F081FF18F067
:1007E000FF08F5D10CF0DBFD2B788046002B40F0A4
:1007F0000D81002000F054FA11E1C82200237A484C
:1008000009F0A6FF002840F0DA80042000F0ECF99F
:10081000F86007F069FD8246042000F0E5F98146A2
:100820000028D1D107F1140800F064FAC346002073
:1008300000F07CFA09F10109B9F11B0F08F8010B6E
:10084000F5D100F065FA07F04FFD07F04DFDA0EB84
:100850000A0ABAF5700F38BFF023644A38BFBAFBF2
:10086000F3FA13684FF0000103F10103136007F17D
:1008700038004FF0280228BF4FF6FF7A0EF038FA02
:100880005B4A3E631368591C11607B630CF087FD63
:100890004FF47A735843DBF80030B863BB871B0C06
:1008A00087F83E303B7D03F0F003A3F1C0025342D2
:1008B0005341FA680AB943F002034E4A1278042AF7
:1008C00065D143F0080387F83F3007F1400E07F188
:1008D000170307F12F08F446186859680833ACE885
:1008E00003004345E646F6D100234FF001082E21D0
:1008F00007F13000A7F858A087F85A8087F85B20E6
:10090000A7F85C300CF00FFDA7F85E0007F130008F
:1009100000F08CFC00284DD1374A13684344136023
:100920000CF03DFD354B1860404600F0B9F900234E
:100930003B61DFF8CCA050460EF0E9F800283FF408
:1009400043AFDAF808B0DBF85030002B3FF43CAF8F
:100950000421504607F11002984700287FF434AF75
:100960003B69002B3FF430AF804607F1300919F89E
:10097000011B5046DBF8043008F101089847B8F134
:10098000300FF4D11F4A1368013313601CE7032AA8
:1009900002D143F0100396E7012A08D822B143F0B0
:1009A000200343F080038EE743F06003F9E7022A57
:1009B000F7D088E7144A136801331360B7E700F0F3
:1009C0008FFE01E703FB00085CF3000854EF00080A
:1009D000B61B002032FB0008A55A01019E1B002017
:1009E000D0170020E806002014070020EC17002094
:1009F000F017002058060020E8170020D417002028
:100A0000FCEF0008E0170020E41700202A4B1B68C9
:100A1000002B3FF4EEAEC31A632B3FF6EAAEA8EB11
:100A20000408B8F1000FFFF6BCAE244BC7F800D0A5
:100A3000D3F800A0224B92B0D3F80090214B297834
:100A40001B6802AAFB60204B1B68BB601F4B1B6826
:100A50007B601F4B18681F4BB3F800801E4B93F848
:100A600000E01E4B93F800C01D4B1B7813640D2350
:100A7000C2F81C90D7F80C90DFF868B0C2F820904C
:100A8000D7F80890C2E905BAC2F82490D7F80490C4
:100A9000C2E90C18C2E90A90C2E90EEC42F8103F14
:100AA000002346F6C001104804F59C5402F090FA69
:100AB0000834D7F800D074E6D4170020EC170020D3
:100AC000E8170020E4170020E0170020DC170020C2
:100AD000D81700202C0600205806002057060020BA
:100AE000560600208AFB00085CF3000803460A460D
:100AF0002DE9F0411979DB880068134303F03002D7
:100B0000302A0669D0E901470ED12C4940F2F7336B
:100B10002B4A2C480CF0F5FC2B480CF0F2FC40F270
:100B2000F73127480CF0E4FC284A294D1A40AA4224
:100B30000CD1284940F2FB33214A22480CF0E1FC59
:100B400025480CF0DEFC40F2FB31EAE703F0060238
:100B5000042A09D1214940F2FE33194A19480CF000
:100B6000D0FC40F2FE31DCE7012513F4E01F18BF92
:100B700043F30002246818BF02F4402205FA01F58D
:100B800018BF5340254223F480120CD1144940F27F
:100B900011430B4A0B480CF0B4FC12480CF0B1FCAA
:100BA00040F21141BDE73468DB074CBF2C43AC4336
:100BB00034603B68BDE8F041184700BFEFF800081B
:100BC000BEF8000828F9000845F9000802000300F3
:100BD0000200010082F90008CFF900081EFA00089F
:100BE00051FA00088FFA000813B501248440104818
:100BF00043681B681C420ED10E4940F224630E4A22
:100C00000E480CF07EFC0E480CF07BFC40F2246198
:100C100009480CF06DFC836801A95B68984720B90E
:100C2000019B1C40201E18BF012002B010BD00BF58
:100C3000C4EF000851FA0008BEF8000828F90008BF
:100C40008FFA0008014809F007BD00BF1407002013
:100C5000012310B503FA01F143681B6819420ED154
:100C60000B4940F279630B4A0B480CF04AFC0B48E5
:100C70000CF047FC40F2796106480CF039FC22B1D7
:100C80008368DB68BDE81040184783681B69F9E793
:100C900051FA0008BEF8000828F900088FFA000889
:100CA00008B502460E4841680369096889070ED4F1
:100CB0000C4940F2A2630C4A0C480CF022FC0C4890
:100CC0000CF01FFC40F2A26107480CF011FC1B78ED
:100CD0000121C3F340035A40BDE80840FFF7B8BF05
:100CE000C4EF000851FA0008BEF8000828F900080F
:100CF0008FFA000808B5002202210448FFF7A8FF78
:100D0000BDE8084004200DF0F4BE00BFA8EF0008C5
:100D100008B504200DF0EDFEBDE8084001220221D7
:100D20000148FFF795BF00BFA8EF0008F8B50646D9
:100D300007250024012746FA05F20721134802F08F
:100D40000102FFF785FF01200DF0D3FE01220521EE
:100D50000E48FFF77DFF01200DF0CBFE0620FFF7C8
:100D600043FF0028C4BF07FA05F31C434FF00002FD
:100D70004FF005010548C8BFE4B2FFF769FF012045
:100D80000DF0B7FE013DD6D22046F8BDC4EF0008F5
:100D900010B50D4C2378ABB90C4B1B7893B10C48B4
:100DA00009F050FD012208210A48FFF751FF0220F7
:100DB0000CF0FDFA10200CF0FFFA08200CF0FCFA01
:100DC0000123237010BD00BFB61B0020B51B0020FF
:100DD0001407002054EF000810B50C4C0020FFF75A
:100DE0005FFF23788BB1002208210948FFF730FF0D
:100DF0000A200CF0E1FA11200CF0DEFA0023237037
:100E00000448BDE8104009F01DBD10BDB61B002010
:100E100054EF0008140700202DE9F74F954B0446C6
:100E20001D78002D40F02481DFF84C92022899F8BB
:100E3000007000F2F780914B1D783D40904B1B787D
:100E40001F40002C00F0FB80012C4FF0000B00F045
:100E5000F9804FF00008474600268A4B01201E709B
:100E6000894BDFF828A219780CF0B4FA042C14BFCF
:100E7000C021D12102200CF0ADFAEC2103200CF0AE
:100E8000A9FA524612F8011B99F800000901F04036
:100E9000C30701F0700106F105004CBF41EA0B01E8
:100EA00041F08101C0B2013600920CF093FA082E95
:100EB000009AE7D139460D200CF08CFA41460E20FD
:100EC0000CF088FA291E18BF0121042049000CF0FB
:100ED00081FA29460F200CF07DFA002110200CF039
:100EE00079FA002111200CF075FA022C8CBF002138
:100EF00001214B011946152000930CF06BFA644B4D
:100F0000022C99F800601C7000F29E805B4B1F78E9
:100F100037405B4B1B781E40002C00F0A480012C56
:100F20004FF0000800F0A28000252E4601200CF0B2
:100F300067FA554B1A78101A424242410220019238
:100F40000CF05EFA042C14BFC021D121441AD4F154
:100F5000000B4FF003004BEB040B0CF051FAEC28A4
:100F600014BF4FF0000B0BF0010B019A02EA0B04C7
:100F700000221AF801BB99F80010501DD1404FEA29
:100F80000B1BC9070BF0700BC0B24CBF4BEA080B30
:100F90004BF0810B01920CF033FA019A584514BFC3
:100FA000002404F001040132082AE2D10D200CF0E3
:100FB00027FA831B5E424FF00E005E410CF020FAD0
:100FC000A84214BF002606F0010604200CF018FA0F
:100FD0003B1E18BF0123B0EB430F4FF00F0004EA94
:100FE00006040CBF012600260CF00AFAB84214BF12
:100FF000002404F0010410200CF002FA002814BFB1
:10100000002404F0010415200CF0FAF9009A26409F
:10101000824214BF002006F001001A4B187003B082
:10102000BDE8F08F032807D004287FF407AF4FF006
:10103000050BA8462F460FE74FF0010B09E7A34623
:10104000B84609E7D84607E7032C4FF0000707D05A
:10105000042C7FF45EAF4FF005083D463E4665E741
:101060004FF0010860E7A04635465FE745465DE77B
:101070000020D4E7B61B002057060020B41B002038
:1010800056060020B51B0020590600204E06002001
:101090005806002037B5124C2378FBB10025114AC1
:1010A0001046D5540DF02CFE431E172B257015D875
:1010B0000D4B1B7893B90DF10701C0B20CF04DF93F
:1010C00060B108229DF8071008480DF011FE084B8A
:1010D000187803B0BDE83040FFF79EBE03B030BDC6
:1010E0009E1B00209F1B0020B61B00204E060020E8
:1010F00058060020BC2330B58FB08DF80430FF2394
:101100008DF807306FF07F4302933E4B8DF805005A
:101110001B788DF806108DF80C3000238DF80D30FB
:10112000394B1B788DF80E30384B1B7893B9AA28B1
:101130003CD101200CF064F9354B8DF807001B8879
:10114000ADF80830334B1878334B8DF80A001B7814
:101150008DF80D3001AB0B2100251C4613F8012B37
:10116000013911F0FF0185EA0205F7D11A220DF1CC
:101170001D000DF0BDFD0C238DF8103023468DF8B9
:101180000F5003CBCDF811001868CDF81510CDF82D
:10119000190000220023214804A90DF0CBFC18B946
:1011A0001F4A1368013313600FB030BDA92811D155
:1011B0001C4B0F201B788DF807300CF021F98DF8AF
:1011C000080010200CF01CF98DF8090004200CF028
:1011D00017F9B9E7A72812D101F00701481D0CF053
:1011E0000FF98DF807000D200CF00AF98DF80800B2
:1011F0000E200CF005F98DF809001520E7E70A4BE1
:101200001878EEE75806002057060020B61B00208D
:101210002C060020B71B0020B51B0020E80600208C
:10122000D8170020B41B0020560600202DE9F04FEF
:10123000302406469BB00EAD2246002128460DF014
:1012400057FDCDE90464CDE90654012404AB0893AD
:10125000002206AB0921A348CDE90A340994FFF71F
:10126000F7FCA148A149836808AA1E680AABB047E9
:101270000646224609219B48FFF7EAFC86BB9DF8FB
:101280003830C32B2CD19DF839303C2B28D19DF818
:101290003A30A34224D19DF83E70262F20D8FC1D61
:1012A000214628460CF03FF807F168036B4413F819
:1012B000282C07F16F030DEB030414F8303C43EACC
:1012C000022383420CD19DF83B30012B08D1B0465C
:1012D0000DF13E03DFF818A2864C0193B84503D305
:1012E00030461BB0BDE8F08FDAF800300133CAF8A1
:1012F0000030019B13F8015F019323780C2B0BD86E
:101300009BB1013B0B2B10D8DFE803F07A7E0F0F67
:101310000F0F0F0F0F94989C282B34D01AD8142B32
:1013200000F086801E2B00F0C480AA2D0FD8A42DBB
:1013300000F2CE80392D00F27E812F2D00F29881AF
:10134000202D04D000F26C810A2D00F2F380FFF70B
:10135000A1FE52E0322BE8D1022D11D8664B33F8B2
:101360001590FFF739FD654B654AA3F80090C5F16C
:1013700096031370634B1D70634B1878FFF74CFD99
:101380002946AA2052E0DFF88491DFF884B199F869
:101390000020531CDBB20C2B89F800300BF80250F4
:1013A0002BD15C4B1D78FDB90BF103030CAA13F88C
:1013B000010F5119CDE902330BF0CFFFA0B1013578
:1013C000082D029BF3D19BF8013053490B709BF819
:1013D00002100B4051490B70514B03CA1860596001
:1013E000494B1878FFF718FDA5209BF80110FFF76F
:1013F00081FE002389F80030237008F101086DE7B1
:10140000484B1D700223F7E7464B1B780D2B0FD17D
:10141000404B1B7863B9404B404A1B782B401370FC
:10142000394B1878FFF7F8FC2946A620FFF762FE33
:101430000023E1E73C4B1D700B23DDE73B4B1D70A8
:101440000C23D9E7334BDFF8E0901B786BBB99F89E
:101450000020072A29D8354B0CA918780BF07DFFFE
:1014600018B301239DF830002D49DFF8B0C088542F
:101470002948934015F0010F02789CF80010DBB268
:1014800008D005F003051A43032D027006D021EAA7
:10149000030104E022EA03020270F8E719431A4B41
:1014A0008CF800101878FFF7B7FCA72099F8001007
:1014B000BCE7184B1B7843B9174B1D4A1B782B40D0
:1014C0001370114B1878FFF7A7FC2946A920ADE748
:1014D000A63D042D00F2B180DFE805F0B6BABEC229
:1014E000C60000BFA8EF000834F0000854F400085C
:1014F000DC170020B31B0020B8F800082C060020E1
:1015000059060020B71B002058060020A31B00200E
:10151000A41B0020B61B0020570600205606002002
:101520004E060020B21B0020B11B0020B01B002083
:10153000B41B00200D2D3FF40AAFFFF7ABFD423D79
:10154000EBB2322B3FF659AF322D3FF656AF01A327
:1015500053F825F091160008FB130008FB13000850
:101560002F160008FB130008FB130008FB130008EC
:10157000FB130008FB130008FB130008FB13000813
:101580002F1600089D160008A11600082F16000847
:10159000A5160008AD16000897160008A916000841
:1015A000FB130008FB130008FB130008FB130008E3
:1015B000FB130008FB130008FB130008FB130008D3
:1015C000FB130008FB130008FB130008FB130008C3
:1015D000FB13000891160008FB130008FB1300081A
:1015E0002F160008FB130008FB130008FB1300086C
:1015F000FB130008FB130008FB130008FB13000893
:101600002F1600089D160008A11600082F160008C6
:10161000A5160008AD16000897160008A9160008C0
:101620002C2D3FF494AEFFF735FD2A2D87D10120F4
:10163000FFF7F2FBE1E63B2D7DE7FFF72BFD0022F4
:101640001F4B1A702823D7E6FFF724FD0123D3E6AA
:10165000FFF720FD0A23CFE6FFF71CFD1423CBE69E
:10166000FFF718FD1E23C7E6FFF714FD3223C3E67C
:10167000144B1A78022A08D8511C1970124B9D5429
:101680000BF08DFE114B1860B7E600221A70B4E61D
:10169000FFF77EFBB1E6FFF79FFBAEE60020C7E752
:1016A0000220C5E70320C3E70420C1E70023084A5E
:1016B0001360084A1360084A1360084A13609CE6E6
:1016C000A31B00209E1B00209F1B0020D017002082
:1016D000E0170020E4170020E8170020EC17002096
:1016E00030B597B0302200210AA80DF001FB00228E
:1016F00000236946234808F00FFD23490A88531C3C
:101700009BB20B8068BB9DF80040262C1FD81F4B56
:10171000ADF82C200A938DF82E4034B122460DF1FD
:1017200001010DF12F000DF0D6FAE51D29460AA89A
:101730000BF0F9FD04F15F030DEB030504F1580311
:1017400005F8300C0DEB0304000A04F8280C0AA875
:10175000FFF76CFD18B10E4A13680133136017B020
:1017600030BD0C4B07210A9300230AA8ADF82C20AA
:101770008DF82E300BF0D7FD8DF82F00000A8DF874
:101780003000E4E7E80600209C1B0020C33C010277
:10179000E4170020C33C01032DE9F84F04460BF089
:1017A00045FEB0FA80F0C0F11F0004EB8006D6F8C9
:1017B0001090CD0005F1040A0B4606358FB2B9F141
:1017C000000F0AD10121E26881400A43E2603361DF
:1017D00024F80A706753BDE8F88F4FEAC90604364B
:1017E00034F806B04FEACB0808F1060834F80830A0
:1017F00099450CD001210A4A0A480CF022F900232D
:1018000083F31188BFF36F8F0423184602DF24F897
:101810000AB024F8059024F80870A753DBE700BF4E
:10182000F2FB00089CF30008B2F5802F2DE9F84385
:101830000ED33E494FF437733D4A3E480BF061FEEC
:101840003D480BF05EFE4FF4377139480BF050FE07
:10185000042A0CD8394940F2E323354A35480BF0C5
:1018600050FE37480BF04DFE40F2E321EDE7043A1D
:10187000CD1D114425F0070521F00706A6EB05084C
:10188000B8F1170F4FEAD8070CD82E494FF43B7325
:10189000274A28480BF035FE29480BF032FE4FF45A
:1018A0003B71D2E7B7FA87F44FF00009C4F1200288
:1018B000C4F12404A4000734E408631CBB4205609F
:1018C000AF60C5F80C900CD91F4940F20233184A9A
:1018D00018480BF016FE1A480BF013FE40F20231C6
:1018E000B3E74946920005F110000DF001FAA2B2EB
:1018F000530043F001036B803B1B9BB205EBC4011B
:101900005800A5F80090488025F83420A6F80290E9
:1019100025F8083005EBC7035A88214642F001023A
:101920005A802846BDE8F843FFF736BF71FC00082F
:1019300016FC000828F9000887FC00089EFC000837
:10194000BFFC0008D8FC000801FD00082DE9F04F9D
:1019500091B0009302F004030293C2F3C203013377
:10196000840705460E46DDF868A00392059340F013
:10197000C781041D002837D101F00706341DC6F1C8
:101980000806009B4FF0000804275A1E4FF0FF3353
:10199000C1460193C3463B46CDF810800DB1009976
:1019A00021600598002800F3C08094480099814286
:1019B00003D393488142C0F0B8800399601B11F0B3
:1019C000020C40F0CB80B9F10F0F40F2CA808D4974
:1019D00040F281238C4A8D480BF093FD8C480BF02C
:1019E00090FD40F28121B6E00729CAD86FF01B00B4
:1019F00011B0BDE8F08F7A285AD84B280FD8472865
:101A000056D829282DD825284FD051D8202818BF9E
:101A100023280CBF4FF0010B4FF0000B6EE04C3849
:101A20002E2845D8DFE800F06A4444444444444446
:101A30004444444447444444444444444454444750
:101A4000475454546A4768446A4418471844447CCD
:101A50007A47444447447A0000204FF0000B0427A3
:101A600034E001212A38C0B201FA00F010EA0E0F6A
:101A700044D110F0625C2BD110EA010B3ED06046DD
:101A8000013C3C44B4FBF7F47C4325B1A3EB050CCB
:101A9000A444B445AAD8002800F0978005990139DC
:101AA00005915AF8041B009178E7019901390191D9
:101AB0004FF0000B22E012F8010C6C2832D100200C
:101AC00012F8023C83466C2BC9D108273B46D7E766
:101AD0000AF1070A2AF0070A073424F00704FAE893
:101AE00002BC35B106982044B0423FF67FAFC4E94E
:101AF00000BC4FF0000B083408273B4612F8010FDA
:101B0000002800F08980BBF1000F7FF474AF252816
:101B1000F4D14FF0010B019B013301930427ECE753
:101B200058469AE700208346AAE7039988072FD5ED
:101B30004FF0010C601BB0F5007FFFF444AF31495A
:101B40004FF41F73304A31480BF0DBFC31480BF087
:101B5000D8FC4FF41F712C480BF0CAFC4FF0000C5E
:101B6000E9E705B309F140010DEB010E0199C0F35E
:101B700087000EF8200C0EF8101CBCF1000F0ED0E0
:101B800060F07F000EF8200C08F1010809F101094E
:101B9000C5F108014FF6DA7E04340691AEE70498E9
:101BA00001300490F2E7BCF1000F01D00136EDE7FF
:101BB000029802360028E9D10098CDE90632FEF7F6
:101BC000F1FADDE906320644E0E7042B08D10AF118
:101BD000040015B1DAF800102160824604348DE764
:101BE0000AF1070323F0070303F1080A1DB1D3E943
:101BF0000001C4E90001082308347FE7E4ED000890
:101C000048260108621A010834FD000828F9000876
:101C100083FD000862FD0008631BB3F5806F0CD3E1
:101C2000394940F2D223394A39480BF06AFC394825
:101C30000BF067FC40F2D2218DE71DB9A6F1080434
:101C4000E018D5E6029A9B0828602B709DF81030AA
:101C5000BAB1EB7085F80280B8F1000F05D0002210
:101C600008A8C5F1010791450DD14FF0000AC5F153
:101C7000010308AF01930DF1300BD14512D1601B68
:101C8000B6E66B70E6E710F8013B190608D507EBDE
:101C9000040CB44503F07F033FF6A8AE04F8013B03
:101CA0000132E0E7B8F1000F03D097F90020002AD5
:101CB00016DB029BC3B11AF80B2004F8012B00229B
:101CC000019B18191044B0423FF690AE3878009945
:101CD00004F8010B204603920CF0FDFF039A144414
:101CE0000AF1010A0137C8E73A7855F82230009323
:101CF000029B009845F82230FEF754FA421CDFE7B9
:101D00006FF00D0074E600BF621A010834FD000890
:101D100028F900089DFD00082DE9F04F95B000AFAF
:101D20008A460546C7E9083258B99A4940F29933BC
:101D3000994A9A480BF0E5FB40F2993196480BF02E
:101D4000D7FB49B903784678807800EB83002844B4
:101D5000564521D8A0EB050ABB6F95F8028003F029
:101D60000103BC6F3B61EB78B8F1000F0CBF00249E
:101D700004F00104FB6113B1BB6F9A0715D4A4B939
:101D80007B6A1BB1514628463A6A98475646304608
:101D90005437BD46BDE8F08F441C2046FEF702FADA
:101DA000013020440AF1010AD2E7BB6FC3F3C0033C
:101DB0007B612B78FB609B007B606B68BB60FB6882
:101DC00005EB830B7B6A002B71D15646D844ACB12E
:101DD0001C461BF8013B55F82300FEF7E3F9FB6FA7
:101DE00001303BB1D7F88030A34282BFFB6F23F8AC
:101DF00014000134C3450644EBD1D846BB6F4FF005
:101E0000000913F0050F0CBF4FF0020B4FF0010B50
:101E1000FB699945BBD298F8013008F1020855F8E2
:101E200023A05F4B9A45C0F080815E4B7A699A454A
:101E30002CBF002301230AB318F8021CB8687B6288
:101E40000BF02AFB7B6AC8B1EA468AB06A46564B59
:101E50000593BB68CDE906314FF40073ADF820302F
:101E6000524B42F8103F00234FF41251504801F0FA
:101E7000AFF8D546023E09F10109C9E723B13B6934
:101E80002BB9A6EB0B06F6E7BB6F9B07F3D55046C5
:101E9000FEF788F9FB6F43B1D7F880309C423FBF13
:101EA000FA6F431C22F8143001340644E3E7002C97
:101EB00065D1B8F1000F68D0BB6F580768D5C1462F
:101EC00007F14000424659460CF005FF0BEB0803B2
:101ED000BB610023334AF9698B426BD3BA6F95F823
:101EE00001B03969920704EB0B0348BF0022DBB253
:101EF00058BF4FEA5902002940F0E180B96F11F054
:101F0000040F14BF494600216B70A970EA7028467F
:101F10003A6A79687B6A9847061EFFF638AFFB6815
:101F200049462B70FB693A6AEB7085F801B07B6A11
:101F300085F8028007F140009847B0F10009C0F22F
:101F4000F0807B68FA69B86903EB420141443A6A60
:101F50007B6AAAEB010198470028C0F2E4804FF0A9
:101F6000000BB14409EB000607F1300AA345C0F0AD
:101F7000A88000213A6A08467B6A984707E74446EA
:101F80004FF0000907F130009CE74446C1469DE749
:101F9000A1469BE7B4FD000834FD000828F90008BD
:101FA000E4ED000848260108CFFD00080400000108
:101FB0006CF30008B869DFF88CC110F8021B10F848
:101FC000016CB86155F826006045C0F0B4809042BD
:101FD00078692CBF4FF0000B4FF0010B30B1B8689F
:101FE0003B600BF059FA3B68574A60BBBBF1000FEE
:101FF0002BD0396959B10F2C36D9544940F243439B
:10200000534A54480BF07DFA40F2434196E6B96FCB
:10201000490718D5B9F10F0F09D94F4940F2464386
:102020004B4A4C480BF06DFA40F2464186E609F106
:10203000280007F1280C09F1010100EB0C0909F84F
:10204000106C5FFA81F9013345E7B86F800715D549
:102050000F2C09D93D4940F24D433D4A3D480BF014
:1020600050FA40F24D4169E6611C04F1280007F185
:102070002804041904F8206CCCB2E4E7B9F10F0F7E
:1020800009D935494FF48A63314A32480BF039FA9D
:102090004FF48A6152E609F1280C07F1280EF44446
:1020A00009F101000CF8101C07F1500109F10209B7
:1020B00051FA80F05FFA89F900F8106CC3E700214B
:1020C00022E71BF80A3055F8239087F82F30FB6F72
:1020D00023B3D7F880309B4520D2FB6F33F81B80A9
:1020E00001213A6A7B6A07F12F00984700281ADB22
:1020F0000644B8F1000F06D14846FEF753F800F148
:1021000001081FFA88F8414648463A6A7B6A9847B0
:10211000002808DB06440BF1010B27E74FF000080D
:10212000DEE74E4633E6064631E67B69002B3FF498
:10213000ABAE002380E67869002886D04FF0000B14
:102140004DE700BFE4ED00084826010872FE0008D4
:1021500034FD000828F9000891FE000880B5054606
:102160000E461746984609F0DBFE034603F042FB95
:10217000DFF83C90044649F8003042463946304684
:10218000A8470C4B1B7873B90B4940F246330B4AF6
:102190000B480BF0B6F90B480BF0B3F940F246319F
:1021A00006480BF0A5F954F8090003F0BFFA00BF88
:1021B00008000000E01B0020EDFE0008C2FE000841
:1021C00028F9000800FF000838B50D460446202213
:1021D00000210CF08DFD0022EB68E361AB68A36188
:1021E0002B6823626B68A26263622A6923B1591E5D
:1021F000194208BF42F0010222610122002104F1CC
:102200002C000CF0A6FC48B1054906482F23064ACD
:102210000BF077F92F2104480BF06AF938BD00BFA5
:1022200048FF000828F9000822FF00082DE9F04FB8
:10223000002789B0CDE90123436A04468B428846D2
:10224000BA460597079754D300F11406EFF31185AA
:10225000102383F31288BFF36F8F3046A9460AF02C
:10226000DDF858B984234D4A4D494E480BF049F9E1
:1022700031464D480BF045F9842163E030460AF0C1
:10228000F1F8079A2AB1394620460BF020FA0023CC
:10229000079306A920460BF041F90699834641456C
:1022A00030D32268236A204613F8221003EB820AF7
:1022B00021F0030103F82210216842460BF052F985
:1022C000E3682060984218D04FF0000B30460AF0C7
:1022D000B3F850B389F31188BFF36F8F059929B113
:1022E000A2690AB12046904700230593BBF1000F75
:1022F000ACD1504609B0BDE8F08F236943F0080324
:102300002361E1E718B120460BF046F9DEE7DDE98D
:102310000132134339D003910CF049FC0399A0BB5F
:102320009DBB30460AF088F878B94FF499731B4A80
:102330001E491C480BF0E5F831461D480BF0E1F84A
:102340004FF4997115480BF0D3F885F31188BFF35A
:102350006F8F04F12C00DDE9012308F0F9F98346C1
:10236000EFF31189102383F31288BFF36F8F304688
:102370000AF054F800283FF475AFBBFA8BFB3046E7
:102380000AF070F84FEA5B1BA0E7204607AB05AAEE
:1023900027680BF020F9834698E700BF51FF00083B
:1023A0007EFF000828F9000893FF0008A9FF000835
:1023B000C0FF00082DE9F0410446C36908460E46F7
:1023C000984704F114050746EFF31188102383F3AF
:1023D0001288BFF36F8F28460AF020F868B984236B
:1023E0001A4A1B491B480BF08CF829461A480BF077
:1023F00088F8842115480BF07BF828460AF032F85B
:1024000033783A4643F001033370616820460BF09D
:10241000A9F8606020460BF075F928460AF00CF820
:1024200068B94FF49973094A0C490A480BF069F8E6
:1024300029460B480BF065F84FF49971DAE788F3F9
:102440001188BFF36F8FBDE8F08100BF51FF000816
:102450007EFF000828F9000893FF0008A9FF000884
:10246000C0FF00082DE9F0470446002700F11406DC
:10247000EFF31188102383F31288BFF36F8F304678
:1024800009F0CCFF054668B98423394A39493A48EE
:102490000BF037F8314639480BF033F884213448D3
:1024A0000BF026F8304609F0DDFF2369A168180714
:1024B00002D463688B4200D2636A5B1A002B41D05E
:1024C000206A10F8213000EB810913F003023CD0A0
:1024D000022A04D150F821205FEA920A05D1DA07D6
:1024E00020D44846E36998478246A1685246204670
:1024F0000BF038F85146A06020460BF041F82F460B
:10250000304609F099FF10BB4FF49973184A1C49E3
:1025100019480AF0F6FF31461A480AF0F2FF4FF464
:102520009971BCE743F0020300F82130E3694846A3
:10253000A56898472946024620460BF013F8002567
:10254000A060DDE71D46A946DAE71546FBE788F3FC
:102550001188BFF36F8F002D8AD137B1B9F1000F09
:1025600003D104F12C0008F077F84846BDE8F08765
:1025700051FF00087EFF000828F9000893FF0008BB
:10258000A9FF0008C0FF00082DE9F0410446C36917
:1025900008460D46984704F114060746EFF31188E4
:1025A000102383F31288BFF36F8F304609F036FF94
:1025B00068B98423274A284928480AF0A2FF3146EF
:1025C00027480AF09EFF842122480AF091FF3046F6
:1025D00009F048FF2B7823F001032B7023699B0738
:1025E00005D5E268236A03EB82039D4222D12B7852
:1025F00023F002032B70D4E90231994204D13A4608
:1026000020460AF0AFFFA060394620460AF0B8FF26
:10261000304609F011FF90B94FF499730D4A1149F2
:102620000E480AF06EFF31460F480AF06AFF4FF479
:102630009971C9E72B6867F39F032B60E8E788F37C
:102640001188BFF36F8F04F12C00BDE8F04108F052
:1026500003B800BF51FF00087EFF000828F90008FA
:1026600093FF0008A9FF0008C0FF000870B50446EA
:1026700000F11405EFF31186102383F31288BFF3E2
:102680006F8F284609F0CAFE68B984231A4A1B498D
:102690001B480AF036FF29461A480AF032FF842107
:1026A00015480AF025FF284609F0DCFE2369A068DA
:1026B0001B0702D46368834213D2646A241A284633
:1026C00009F0BAFE78B94FF499730B4A0E490C48D9
:1026D0000AF017FF29460D480AF013FF4FF49971CD
:1026E000DEE71C1AEBE786F31188BFF36F8F201E1D
:1026F00018BF012070BD00BF51FF00087EFF000819
:1027000028F9000893FF0008A9FF0008C0FF00088F
:102710002DE9F34106460F4615464FF000082A46BC
:10272000304601A90BF013F8044640B10246394681
:1027300001980CF0D0FA2D1BA0442744EFD142465B
:102740003046311D0BF021F848B1074907484823AE
:10275000074A0AF0D6FE482105480AF0C9FE40465D
:1027600002B0BDE8F08100BF48FF000828F900086A
:10277000E0FF00082DE9F34107460E4615464FF0ED
:1027800000082A46384601A90AF0F0FF044648B17D
:102790002EB10246019930460CF09DFA26442D1BBD
:1027A000A044EED14246384607F10A010AF0EDFF97
:1027B00048B1074907486323074A0AF0A2FE63218C
:1027C00005480AF095FE404602B0BDE8F08100BF22
:1027D00048FF000828F90008E0FF000800200A4B25
:1027E00082B0D3F8882042F00102C3F88820D3F8E1
:1027F0008830064A03F001030193019B536843F0BC
:102800000203536002B07047000C024400400244CF
:1028100008B5416805480C3183681B681BB19847AF
:1028200000EAE07008BD6FF05700F9E7ACEE000871
:10283000192810B502D90024204610BD044B53F8C6
:10284000204020460CF063F90028F5D1F3E700BFE3
:102850007CF5000808B504F007F9024B024A1A603B
:1028600008BD00BF1C0600200048E80108B558B9A3
:102870000749084840F23513074A0AF042FE40F281
:10288000351105480AF034FE4368587908BD00BF89
:10289000D900010828F90008A100010810B548B9BD
:1028A00008490948A023094A0AF02BFEA02107483D
:1028B0000AF01EFE03681B6913B1BDE810401847FB
:1028C000184610BDD900010828F90008A100010828
:1028D0002DE9F843044606460127DFF8408094FAC4
:1028E000A4F5B5FA85F507FA05F308EB05156FEAC7
:1028F000030924EA03042B7B5BB12846FFF7CEFFD4
:1029000038B96B6804222846196806EA09060BF0F4
:1029100028F8002CE3D13046BDE8F883FCF300082A
:1029200010B5002288B00E490E480CF0BDF9002207
:1029300000230024CDE906230E234FF40062CDE9E5
:102940000334CDE90144084B08490094084808F0D5
:10295000D9FB084906480CF030F9204608B010BDF4
:10296000552A0008B00C00208D2D0008E81B00201F
:1029700028080020F00001082DE9F047DFF8B490A6
:102980002D4C8046A9EB04038F2B0F460BD92B4906
:1029900040F253132A4A2B480AF0B3FD40F2531178
:1029A00027480AF0A5FD28480AF0B7FF064660B39D
:1029B00000252846BDE8F087237B8BB12368DB68C0
:1029C0000BB1204698476368204683F806A0FFF7BE
:1029D00065FFB0B963680422204619680AF0C1FF98
:1029E000013610344C4514D9184940F25F13144A8B
:1029F00014480AF086FD16480AF083FD40F25F1184
:102A0000CEE70AFA06F31D43EAE705464FF0010A4E
:102A1000E8E7D1D3B8F1000FCBD0002DC8D02846BD
:102A2000FFF756FF0546002FF7D00021642009F07C
:102A3000EBF9F2E70CF40008FCF3000825010108AB
:102A4000F800010828F90008A41800205501010821
:102A500076010108014807F0FFBD00BF24070020F0
:102A6000014B53F820007047F8F5000808B50346FD
:102A700008462BB1044A136000F08CFD002008BD0D
:102A80006FF01500FBE700BF7005002010B5044C87
:102A9000237813B9034807F0DFFD0123237010BD2D
:102AA000B81B00202407002010B5044609480AF08E
:102AB00034FF3CB1084BD3E8EF1F0139C3E8E21FF4
:102AC000002AF8D105480AF097F8BDE810400448FC
:102AD00007F0C2BD9C180020A0180020B00C0020F8
:102AE000240700200022044BD3E8EF0FC3E8E12FB6
:102AF0000029F9D1704700BF9C18002070B5FFF77E
:102B0000F1FF0546104C114EB4421AD9104940F25B
:102B10001623104A10480AF0F4FC10480AF0F1FCA1
:102B200040F216210B480AF0E3FC2046FFF79EFE18
:102B300028B123685B6813B12946204698471034B2
:102B4000E2E7F2D370BD00BFFCF300080CF400080C
:102B500055010108F800010828F90008760101086C
:102B600010B5044C04492046FFF72EFB034B1C60B4
:102B700010BD00BF7C060020E4F50008901800207E
:102B80000023154A10B51370144A4FF47A7113607C
:102B9000134A14481360FFF769FFFFF7E1FF124B78
:102BA000124918468B4215D9114940F22B13114A8C
:102BB00011480AF0A6FC11480AF0A3FC40F22B11C0
:102BC0000C480AF095FC1A1A5C6812110132227145
:102BD0001033E7E7F7D310BDB91B00209C18002085
:102BE000A01800202DD90008FCF300080CF4000800
:102BF00055010108F800010828F9000876010108CC
:102C00000146002200230148FFF710BB7C0600208C
:102C10000148FFF727BC00BF7C060020024B01469D
:102C20001868FFF7B1BC00BF901800200148FFF7FB
:102C30001DBD00BF7C06002070B52D4B1B78002BFE
:102C400054D0FFF7E5FF044600283FD1294B2A4D19
:102C50001B68002B12DD0CF025F80A220023FDF77B
:102C600087FAD5E90032C01A40F2E93361EB02017C
:102C7000984271F1000101D3FFF740FFD5E900321E
:102C800013F57A7342F10002C5E9003274B3BDE86E
:102C90007040FFF7CBBF2846FFF7E8FD20B12B6857
:102CA000214628461B6898471035B54211D913496B
:102CB00040F20A23124A13480AF023FC12480AF091
:102CC00020FC40F20A210E480AF012FC0F4D104E73
:102CD000EBE7E0D32046FFF7A1FF0E4BD3E8EF1F51
:102CE0000139C3E8E21F002AB0D0F7E7002070BD29
:102CF000B81B00209C180020A80C002055010108DA
:102D0000F800010828F9000876010108FCF3000822
:102D10000CF40008A018002070B5154D297831BBBF
:102D20000120FFF729FE134C134EB44218D9134962
:102D300040F2CF13124A13480AF0E3FB12480AF09C
:102D4000E0FB40F2CF110E480AF0D2FB2046FFF71D
:102D50008DFD18B1236820469B6898471034E4E73E
:102D6000F4D3FFF769FF0028FBD101232B7070BD5E
:102D7000B91B0020FCF300080CF400085501010801
:102D8000F800010828F90008760101082DE9F84348
:102D9000374F384BFB1A1B090AD137494FF46F7371
:102DA000364A37480AF0ADFB4FF46F71334819E0EB
:102DB00000210846FFF7E0FD0446A8B14FF4FA7879
:102DC0004FF000092F4B1B789BB92F4940F2463337
:102DD0002E4A2B480AF095FB2D480AF092FB40F250
:102DE00046312A480AF084FB4FF0FF384FF0FF3994
:102DF000E8E702F0FFFC274B274A1B58136033B16A
:102E0000264B1B68092B02DD254807F025FC002511
:102E100044B12046FFF75CFD044618B94FF0FF3877
:102E20004FF0FF39FFF708FF064628B935B91C48AF
:102E300042464B4607F08CFC3546E9E70D4D08E06D
:102E4000F5D22B689B691BB1002228461146984792
:102E50001035BD42F4D913494FF46C73074A084842
:102E60000AF04FFB10480AF04CFB4FF46C719DE7E1
:102E70000CF40008FCF3000895010108F8000108B3
:102E800028F90008E01B0020EDFE0008C2FE000843
:102E900000FF00080800000098180020A01800207B
:102EA00024070020550101087601010813B52C48BC
:102EB0000AF033FD2B4B1B78002B35D0EFF3118438
:102EC000102383F31288BFF36F8F274809F0A6FA07
:102ED00068B98423254A264926480AF012FB22496C
:102EE00025480AF00EFB842120480AF001FB1E4809
:102EF00009F0B8FAFFF7A0FE1B4809F09DFA68B97F
:102F00004FF49973194A1D491A480AF0FAFA1649FA
:102F10001B480AF0F6FA4FF49971E5E784F311883B
:102F2000BFF36F8F02B010BD164B1B68002BF9D09A
:102F300050B9002200231448CDE9002342F2107258
:102F4000002309F0EBFDEDE70928EBD10E4809F06D
:102F500053FE0E4802B0BDE8104007F07DBB00BF35
:102F6000A0180020B91B00209418002051FF000871
:102F70007EFF000828F9000893FF0008A9FF000859
:102F8000C0FF000898180020B00C00202407002083
:102F900010B5064B04461B6898472146A0600448BC
:102FA000FFF708FABDE81040FFF780BF700500206A
:102FB0007C060020044A054B9B1AB1EBD30F34BFAB
:102FC00052F83100002070475CF30008FCF3000861
:102FD0002DE9F04F8FB0C1F34A2604AF0D4690465D
:102FE000B8607B600C0D002E66D04FF000090A23FC
:102FF0004FF0040B07F1140AFE60C7E90799C7F800
:1030000024900093CDF808B0CDF804A007F11C037C
:103010004A464046F968FEF77FFEB0F5006F03466A
:103020001CD36C468AB0D8F8041004AB2B481A465F
:10303000C3E9050140F2FF71D9614FF400711984B1
:10304000274B42F8103F4FF412514B462548FFF7EB
:10305000BFFFA5462C37BD46BDE8F08FC0F30A067A
:1030600004F11700184420F0070080083B60FFF7C8
:10307000C7FD66F35325044630B33B6800F11001E9
:10308000C7E908390A23F961CDE901AB009340464D
:10309000154AF96807F11C03FEF73EFE002813DA13
:1030A0001249134840F24913124A0AF02AFA40F230
:1030B000491110480AF01CFA04F1170020F007002B
:1030C0008008FFF79DFD044666F353252A462046F7
:1030D0007B68B9680AF065FCBCE700BFBE01010867
:1030E000040000017CF3000875D900082A020108D9
:1030F00028F90008FD0101082DE9F04F87B00546C9
:10310000DDE9106BDDE9127A8846144699462FB343
:103110003B465A4610210020CDF800A0CDF814A05F
:10312000FEF714FC00280BDA27494FF4B473274A42
:1031300027480AF0E6F94FF4B47124480AF0D8F9A8
:10314000B0F5006F01460BD340F2FF730221214A14
:10315000214807B0BDE8F04F0AF07CBC394638463C
:1031600004F0070305F00704E40044EA831444EA8A
:10317000402444EA065406F11700084420F00700F2
:1031800080080391FFF73CFD0546A0B19FB13B4687
:103190005A460399CDF800A01030FEF7D7FB00285F
:1031A00009DA094940F28D13084A09480AF0A9F9D9
:1031B00040F28D11C1E74B4622464146284607B0F2
:1031C000BDE8F04F0AF0EDBB29020108FD0101083E
:1031D00028F90008330201087CF30008406820B198
:1031E000034BC01A40F3CF0070474FF0FF307047D9
:1031F0005CF300080EB403B503AB53F8042B01468F
:103200000448019302F09CFD02B05DF804EB03B0AA
:10321000704700BF35320008CA0605D48B064CBF84
:1032200002490349FFF7E6BF704700BF291D0108A7
:103230006B02010838B54B6805461A68CB680C4626
:103240009A4202D108460AF029FC6368D3E8EF2FBE
:10325000511CC3E8E01F0028F8D1A3689D5463689F
:103260001A68E3689A4209D9054906487223064A52
:103270000AF047F9722104480AF03AF9002038BDF3
:103280009D02010828F900086E0201082DE9F04F9F
:1032900089B099469DF85080159B044606930D46CB
:1032A000DDE916A3189F05920493B8F1000F00F012
:1032B000A180B8F1040F0BD988494FF41573884ADF
:1032C00088480AF01EF94FF4157185480AF010F984
:1032D00007F4807307930AF042FB07F0020B0246E3
:1032E000002856D020468049FFF784FF0646BBF1F0
:1032F000000F08D017F0440F4DD12A4620467B49D5
:10330000FFF778FF064407F0010353B1784B2046DE
:1033100053F82820774B7849002A08BF1A46FFF750
:1033200069FF07F48073002B07F0080318BF4FF004
:103330000009002B5BD0714B204653F828207049C0
:10334000FFF758FF0546059B2BB11A4620466D49ED
:10335000FFF750FF0544B9F1000F05D04A4620465B
:103360006949FFF747FF054468483544069B002B31
:1033700047D0224666490AF05EF8002841DA6549DE
:1033800040F2B123564A57480AF0BBF840F2B12147
:103390009BE70646ABE7604B18680028B2D05F4B4E
:1033A0004FF47A7B1B684FF03C0CB5FBF3F5B5FB93
:1033B000F0F14FF4616300FB11550BFB05F5B1FB18
:1033C000F3F2B5FBF0FE03FB121100FB1E55B1FB3F
:1033D000FCF30BFB05F5B5FBF0F50CFB13112046D8
:1033E0000091CDE901E54E49FFF704FF8AE707F0B8
:1033F0000805A8E7B9F1010F45460CBF4348494805
:10340000B4E7049B002B54D0DDF810903946B9F195
:10341000100F204628BF4FF010090026FFF7FCFED2
:10342000B54218DC0026334620461AF803203E49F0
:10343000FFF7E0FE0136102E13D0710703D12046AE
:103440003A49FFF7D7FE4E453346EDD3204638497B
:10345000FFF7D0FEEEE720463449FFF7CBFE0136FA
:10346000DEE7002620463349FFF7C4FE33461AF84C
:1034700003202046A2F120035F2B28BF2E222E49D5
:10348000FFF7B8FE0136102E0DD0720703D120468B
:103490002649FFF7AFFE4E453346E8D32046234981
:1034A000FFF7A8FEEEE7049BCA44B3EB09030493BD
:1034B000AAD1B8F1000F0AD0FB0704D520460D4A67
:1034C0000D49FFF797FE39462046FFF7A5FE204637
:1034D00009B0BDE8F04F0AF0E1BA00BFD20201081E
:1034E0006E02010828F90008DD020108E102010866
:1034F00008F60008CD020108A61801081CF600080D
:10350000060301080C030108100301083532000806
:10351000415D000815030108AC180020A818002020
:10352000EA020108B7DA00081E03010826030108B1
:1035300024030108280301082A03010842F20F733B
:1035400073B58B4228BF0B460568044605216846C3
:103550000D4A09F007FC0646636828460B225B68A3
:103560000A490AF08DFA63683246694628465B6864
:103570000AF086FA63681B2228465B6804490AF051
:103580007FFA02B070BD00BFB6150108CE25010854
:10359000B225010800210123064A904206D8064AB6
:1035A00001B901231360054B1860704701214008E1
:1035B0005B00F2E740420F00A8180020AC18002082
:1035C0000122014B1A707047BA1B0020014B0020EA
:1035D00019607047C41800200148FFF7AFBF00BF53
:1035E0004CF6000810B5064B0C461868FFF738FA81
:1035F0002146BDE8104003460F220248184700BF8D
:10360000C41800204CF600080122F8B5084B094DFB
:10361000094E1A70D5E900470CB92C60F8BD214657
:1036200030463A4600F01EF8241A0644F4E700BF7C
:10363000BB1B0020B8180020BC1B002010B9074B92
:1036400018707047064B1B781BB141F288300BF0A5
:1036500050BA3220002108F0D7BB00BFBA1B0020AF
:10366000BB1B00202DE9F04780460F460425DFF8FC
:103670007C901F4E99F80040ACB90AF09BFF3A4687
:1036800082464146204604F0A9FE044650460AF010
:1036900099FFECB10123337099F800307BB93C46B7
:1036A0002046BDE8F0873A464146002004F096FEE9
:1036B0000446EEE728466C1EFFF7C0FF25460020B3
:1036C00004F0D6FE0028EAD03378002BF2D1E6E7EA
:1036D000337833B1013D2846FFF7B0FF3378002B34
:1036E000C8D13378002BDAD0DAE700BFBB1B00204B
:1036F000BA1B0020014B0360002070475CF60008F5
:103700002DE9F04705460E4617461B4CDFF86C8046
:10371000DFF86C90444529D91A494FF4BB631A4A23
:103720001A4809F0EEFE1A4809F0EBFE4FF4BB61AF
:10373000154809F0DDFE6268D9F824309A4213D3A7
:10374000A3698BB1A9889078C9B2884205D13A465D
:1037500031462846BDE8F04718475279012A03D17F
:103760003A463146284698472434D3E7E3D36FF0EE
:103770008500BDE8F08700BF04080020280800206D
:10378000C81800208F0301085D03010828F900080C
:10379000760101082DE9F041154B164F5E6A164B74
:1037A000BB421FD9154940F2BB53154A154809F0D1
:1037B000A8FE154809F0A5FE40F2BB51104809F0DB
:1037C00097FE5C68B4420BD31D694DB194F802C0FA
:1037D0008488E4B2A44503D12B46BDE8F0411847E4
:1037E0002433DDE7EDD36FF08500BDE8F08100BF45
:1037F000C818002028080020040800208F030108B2
:103800005D03010828F90008760101080022024B37
:103810001A605A60704700BF831900202DE9F041FB
:1038200005460E461746124CDFF8488044451AD923
:1038300011494FF4C163114A114809F062FE114861
:1038400009F05FFE4FF4C1610C4809F051FE636955
:103850000BB92434EAE73A4631462846984700280F
:10386000F7D1BDE8F081F2D36FF08500F9E700BF32
:1038700004080020280800208F0301085D030108C8
:1038800028F9000876010108430670B520D0134BD3
:10389000134CA3421ED913494FF47D73124A1348A7
:1038A00009F02FFE124809F02CFE4FF47D710E48EE
:1038B00009F01EFE0022196A1E7F0439D5B2AE42FD
:1038C00001D82433E5E7013211F832508542F5D1B1
:1038D000012001E0EED3002070BD00BF04080020ED
:1038E000280800208F0301085D03010828F900085B
:1038F00076010108F7B584880F46E4B220468DF8BA
:103900000740FFF7C1FF0546B8B114F07F0F164E10
:1039100002D096F8BA3023B397B103212346134A55
:1039200013480AF00CF99DF8070002F0D1FDF36985
:103930001BB108200DF107019847284603B0F0BDE0
:10394000032123460B4A0A480AF0F9F89DF80700BC
:1039500002F0E0FDF369002BEFD009200DF1070123
:10396000EAE71D46E9E700BFC8180020B2030108D6
:10397000ECF30008C503010808B503460121034A1A
:1039800003480AF0DCF8002008BD00BFDA03010894
:10399000ECF3000838B5054602F012FE10F1780F7E
:1039A000044611D102212B460C4A0D480AF0C7F8F3
:1039B00028460AF0C6F80B4A0024D2F8C43023EA9D
:1039C0000003C2F8C43007E00028F1D001212B46E3
:1039D000054A03480AF0B3F8204638BDF50301084C
:1039E000ECF30008C81800201604010808B50948BF
:1039F0000378C3F341130A3350F823303BB100F18D
:103A0000080200F110019847C043C00F08BD1846D6
:103A1000FCE700BFC818002004282DE9F74F044632
:103A20000F46DFF8D4901AD0012834D1DFF8CC80CB
:103A300098F8B9307BB300F039FF314D4D453AD994
:103A4000304940F2C243304A304809F05AFD30480C
:103A500009F057FD40F2C2412B4809F049FDFFF73C
:103A6000D5FEE3E702EBC6063079019202F0A8FD2D
:103A7000834630790AF065F8D8F8C430BBF1000FFE
:103A800023EA0003019AC8F8C4300AF1010A16DAE1
:103A9000002388F8B9301A4D4D451FD9194940F215
:103AA000EE43194A194809F02CFD194809F029FD7F
:103AB00040F2EE41D0E7EBD24FF0000A2A6A2B7FAA
:103AC0005FFA8AF6B342CDD82435B7E7EB681BB16D
:103AD0003A462146284698472435DDE7F6D3074B7A
:103AE0001B6A2BB13946204603B0BDE8F04F18479A
:103AF00003B0BDE8F08F00BF28080020C8180020E0
:103B0000040800208F0301085D03010828F900085C
:103B10007601010873B5044680782B4D8DF80000BE
:103B20002379627943EA0223ADF80230E37803F0A7
:103B300003038DF804300AF004F8D5F8C4300646C3
:103B400018420CD0A478204600F092FE2046FFF7E1
:103B500021FF0BF02CF810B996200BF077F868468F
:103B600002F062FC10F1780F9DF800301BD10221A9
:103B7000164A174809F0E3FF9DF8000002F0F0FC38
:103B800010F1780F19D19DF800300221114A104828
:103B900009F0D5FF0120D5F8C43085F8B9003343CA
:103BA000C5F8C43007E00028E6D00B4A08480121D8
:103BB00009F0C5FF002002B070BD0028EAD09DF8D2
:103BC0000030064AF2E700BFC81800203804010898
:103BD000ECF300087F0401085B0401089F0401085E
:103BE0002DE9F047A94E0446B3690F4690466BB9DC
:103BF000237803F01F03012B00F0A280022B00F0BA
:103C0000078143B16FF01500BDE8F08798470028A1
:103C1000EED10020F8E794F900206178002A2FDA2D
:103C2000062910D00829D8F8002024D00029E9D18D
:103C300001235170137096F8C3305B0043F0010309
:103C40001370022320E16288100A011F0129054632
:103C5000D8D90728D6D8D1B2726A1478002CD1D01E
:103C60005678AE4203D1994200F0088101332244D4
:103C7000F3E7137808E196F8BA301370012303E1F3
:103C800001390829BED801A353F821F0273D0008C7
:103C9000053C0008373D0008053C0008B13C000821
:103CA000053C0008053C0008053C0008BF3C000836
:103CB0006088C0B202F0EEFA0028AAD0A2E76388BA
:103CC0003BB1FF270020B846756A2B786BB90028F6
:103CD00098D0FFF79BFD638886F8BA30F369002B14
:103CE00097D003206A49984793E76B78042B0DD04F
:103CF000052B0ED0022B06D16F796388BB4208BF1B
:103D000040F00100C0B22B781D44DEE795F8038037
:103D1000F9E76388BB42F6D1B8F1000FF3D128462A
:103D2000FFF7F8FEEFE76388012B7FF46BAF00230A
:103D300086F8C3306DE76388012B7FF463AFF7E744
:103D400096F8BA30002B3FF45DAF756AA3882A4617
:103D50005FFA83FC117800293FF454AF50780228B1
:103D600004D192F804E0E64500F294800A44F1E7B9
:103D70000A704A7038604CE7154499E00B2A7FF4CA
:103D800041AF00274FF0FF08BA46C14606E06B7806
:103D9000042B0FD0052B21D02B781D442B78002B22
:103DA000F5D1F36913B1514607209847002F7FF4EE
:103DB00030AF27E795F80280A38895F803909845DF
:103DC000EAD163889945E7D1B8F1070F1DD806EB12
:103DD0000803AA46012783F8BB90DDE7A388434583
:103DE000DAD16388DBB24B450AD0AF78384600F0B1
:103DF0003FFD3846FFF7CEFDB0FA80F77F09CBE7ED
:103E00002846FFF787FE0746C6E7AA460027C3E70E
:103E100094F900206378002A1ADA002B7FF4F2AEBE
:103E2000A488E4B22046FFF72FFD00283FF4EAAE55
:103E3000630604D096F8BA30002B3FF4E3AED8F80E
:103E40000050204629460AF01DF900236B70F8E661
:103E5000012B08D0032B7FF4D5AE6388002B7FF4B1
:103E6000D1AE012103E0618800297FF4CBAE20466A
:103E7000FFF740FD00287FF4CCAEC3E60228C8F867
:103E800000207FF4F6AE53883B60C2E6C8180020DD
:103E90008219002094F9001062780029BFF66EAFF5
:103EA000D8F80010002A3FF463AF0A2A7FF4AAAEC4
:103EB0002A78002A3FF4A6AE687804287FF45CAF25
:103EC000A87883427FF458AF072B8EBF00239B193D
:103ED00093F8BB300B70D1E62DE9F84305460F4649
:103EE0009046994604264B4642463946284602F0FB
:103EF00095FB10F10B0F044609D102212B46054A10
:103F0000054809F01CFE07F067FE013EEBD1204694
:103F1000BDE8F883C0040108ECF3000813B5164CA3
:103F2000237DF3B9E26801AB8020A1680192FFF71D
:103F3000D3FF019AA3681344A360E3689B1AE3606C
:103F40006BB962B12369E2889A4208DD94F8C8200F
:103F500093FBF2F102FB11330BB90123237502B07D
:103F600010BD002380201A461946237502B0BDE813
:103F7000104002F053BB00BFC81800207FB50023DB
:103F80000D4606460193002862D100293AD1082245
:103F90000B460DEB02010AF082F8002803DA8020BC
:103FA00002F096FA1FE0354C029AC4E903552260EC
:103FB000039ABDF80E30626004F13802A2609DF9E8
:103FC00008202575002A10DB802B09D901212C4AF5
:103FD0002C4809F036FD802002F07AFA2846DFE707
:103FE0001BB1C4E9033304B070BDFFF7FFFC002828
:103FF000D5D0E28823699A42D4BFE260E360FFF73C
:104000008DFFF0E71D4C01ABD4E90212002A05DC5C
:1040100002460AF044F80028E5DAC0E70AF03FF863
:10402000002804DA802002F053FA3046B8E7019AFB
:10403000A3681344A360E3689B1AE360002BD2D10A
:1040400004F13803A360FFF7D1FC0028D7D1A6E71D
:10405000802807D1094BDA68002AD0D11B7D002BBC
:10406000CDD1C0E7084909484FF4C573084A09F0A3
:1040700048FA4FF4C571064809F03AFAC81800200A
:10408000E7040108ECF30008621A010828F90008A7
:104090005D030108054B064A58629A62054A0020F2
:1040A000DA62054A1A63054A9A617047C818002007
:1040B000E13B0008953700081D380008013700086B
:1040C0002DE9F3410446554D4FF0FF334FF0FF32D9
:1040D000534806F009F995F8B8306BB10221514AFE
:1040E000514809F0AEFC6FF077044D4806F0C4F972
:1040F000204602B0BDE8F0816E6A6EB900F0EEF8BD
:10410000FFF7C8FF6E6A3EB90121484A464809F0E8
:1041100098FC4FF0FF34E8E745482C62E86102F074
:10412000B3F801F0CDFF041EDFDB00F0E1FB041E5D
:10413000DBDB7378012B01D1F3793BB901213D4AD7
:10414000394809F07EFC6FF01504CEE7002668467A
:1041500085F8C830ADF802308DF804608DF8006045
:1041600002F062F9041EC0DB802768468DF80070FB
:1041700002F05AF9041EB8DB30462F4909F077FFE8
:10418000041EB2DB38462C4909F071FF041EACDB7B
:104190002A4CDFF8AC80444521D92A494FF4C36347
:1041A000294A2A4809F0ADF9294809F0AAF94FF43B
:1041B000C361254809F09CF90026276A227FF3B2E3
:1041C0009A4201D82434E6E707EBC30257F83310CC
:1041D000107909F04CFF01360028EFD099E7EBD3B6
:1041E000002002F0BDF9041EFFF67FAFD5F8C43001
:1041F000802043F00103C5F8C43002F0B1F9041E79
:10420000FFF673AFD5F8C430002443F48033C5F80B
:10421000C430012385F8B83067E700BFC818002014
:10422000D406002000050108ECF30008230501086E
:10423000193A0008480501087D3F000804080020DD
:10424000280800208F0301085D03010828F90008F1
:104250007601010830B51F4B8BB005AA03F110059C
:10426000144618685968083303C4AB422246F7D194
:104270001B781022237001AC002120460AF038FD83
:104280001222002114480AF033FD1021204602F0CA
:1042900009FE00281ADD0828B8BF082000210938C7
:1042A0000D4A044414F8013F0AA800EB131003F070
:1042B0000F0328336B4410F8140C13F8143C01312D
:1042C00008291070537002F10202EBD102480BB0C2
:1042D00030BD00BF82050108CD1B00202DE9F04F45
:1042E00087B09D4B00AF93F800A0BAF1000F04D047
:1042F0009A481C37BD46BDE8F08F984C00264FF019
:1043000001193546B046FE6023783BB9944B023420
:104310009C42F3D10123904A1370E9E76378052B9F
:1043200005D8DFE803F0C80703C82D6BA046237843
:104330001C44E9E7402307F1100087F810A07B82B6
:1043400087F814A002F056F8B8B1082307F110005E
:104350007B8202F04FF880B1824940F28F13824A8B
:104360008248A7F812A009F0CCF8814809F0C9F8F2
:1043700040F28F117C4809F0BBF87B8AE371D6E7E5
:10438000E378002BD3D1A378002B32D1794D03E011
:104390006B689C4228D02435774B9D420CD97749D5
:1043A0004FF49B73704A714809F0ABF8744809F0F8
:1043B000A8F84FF49B71DDE7EAD36D4688B06A46F2
:1043C000704BCDE90534032342F8103F00234FF42E
:1043D000C2516D48FEF7FCFDAD466B4801216B4AAA
:1043E00009F02FFB002084E7AB6813B12046F96881
:1043F0009847FB680133DBB2FB6098E7002D58D18A
:10440000634A0121604809F01CFBE6E72B6AA078AB
:1044100003EBC2010B79984245D14FF0010BE078D4
:1044200094F805C000F00300387520795FFA8BF32B
:1044300040EA0C20788294F90200002826DA4FF036
:10444000010C0BF110000CFA00F010EA090F25D155
:1044500043F08000387407F11000C7E90031BA60FA
:1044600001F0C8FFD7E901123B68B8B93A7C12F0F5
:10447000800FA2700A714FF001021DBF1033DBB232
:104480009A4002FA0BF249EA020950E7012000FAC9
:104490000BF010EA090F01D11846DBE70BF1010B15
:1044A000BBF1100FBBD101322B7F9A42AED3394AF8
:1044B000A7E70022F8E7032E24D1FFF7CBFE8346BF
:1044C000A0B1FBF76FFE034680B1102806D0B8609C
:1044D0000221314A2C4809F0B4FABB68102BA8BF5E
:1044E000102359461A46A01C0AF0F5FB6FF0020093
:1044F0002378001B191904EB5303C84209D5013670
:10450000F6B214E7002EF1D1B8F1000F17D1234A0B
:1045100077E71A78203A5E2A0AD92149CB23124A32
:10452000124808F0EEFF1F4808F0EBFFCB2121E70F
:1045300001F801AC13F8012901F8022DDDE7A4EB25
:10454000080388F80230C3F3072388F80330FB68B8
:1045500088F80430D3E700BFCC1B002034070020CC
:1045600003080020C90501089305010828F900087F
:10457000D205010804080020280800208F03010844
:1045800076010108F9050108E4F300086007010855
:10459000190601085A0601087706010843070108B1
:1045A000C2060108F9060108094B00211A4610B598
:1045B0001C78844204D15C6814B102EB811010BDF8
:1045C0000131042903F14003F2D10020F7E700BFD5
:1045D000941900202DE9FF4150F8283C044610337F
:1045E00010F82C6C0AD1036950F8202C98073DD59F
:1045F000D2B9590715D5002344F8283C54F8283C73
:1046000010330BD054E9077554F8148C0AF0CFFA24
:10461000002857D0214632480AF0B9FA04B0BDE864
:10462000F08143F00403236103AB304654F8241CAB
:10463000FFF752FC034640B101212A4A2A4800965E
:1046400009F012FA6FF01503D6E7039A54F8243CE8
:10465000134444F8243C54F8203C9B1A44F8203C72
:1046600054F81C3C134444F81C3CC7E703AB3046E9
:1046700054F8241C02F03CF803460028DCD1039DCA
:1046800054F8243C2B4444F8243C54F8203C5B1B55
:1046900044F8203C54F81C3C2B4444F81C3C002DAE
:1046A000A9D0304609F009FDB5FBF0F303FB105526
:1046B000002DA0D154F8203C002B9CD0304602F0B5
:1046C0005FF89BE744F8180CA4F1100005F0C4FF54
:1046D000002DA3D0424639463046A8479EE700BF8A
:1046E000E80C00208E070108F4F300084B1E012B94
:1046F00073B506460D4614D8FFF756FF044690B929
:10470000012D0ED101AB012230460DF1030101F064
:10471000EFFF019B002BF5D101210C4A0C4809F059
:1047200090F902B070BD0AF042FA04F12C0108B110
:10473000012D05D1084602B0BDE87040FFF74ABF21
:10474000044802B0BDE870400AF021BAAB07010886
:10475000F4F30008E80C00202DE9F74F0546164653
:104760009846019109F02DFA002871D1EFF31183D9
:104770001022009382F31288BFF36F8F8346DFF815
:10478000D89000220023484605F0E2FFA0B9DFF8E8
:10479000CCA04FEA8B170AEB8B1BDBF8044014F11B
:1047A000100F20D101212B462D4A2E4809F052F935
:1047B000484605F051FF0DE00BF1010BBBF1040F72
:1047C00009F14009DDD10121274A264809F039F9CC
:1047D0006FF00B04009B83F31188BFF36F8F2046AB
:1047E00003B0BDE8F08F0C99019BCBF814100D9924
:1047F000CBF81000CBF818106FF00F012846CBE96A
:1048000002360AF80750CBF83C80CBF8041009F0C8
:1048100054FC68B1284609F050FCB6FBF0F101FBEE
:1048200010662EB1DBF83C1041F00401CBF83C10CF
:1048300018F0020F07D007F12C010C4851440AF080
:10484000A6F90024C6E7284601F09AFF0446C1E70E
:104850006FF00F04C3E700BFB019002094190020C7
:10486000E0070108F4F30008C5070108E80C002080
:1048700010B5EFF31184102383F31288BFF36F8F09
:10488000FFF792FE50B14368103307D16FF08B03EE
:1048900000F12C01436004480AF079F984F311888F
:1048A000BFF36F8F10BD00BFE80C0020F8B50425E2
:1048B00010270D4CEFF3118687F31288BFF36F8F2B
:1048C0006368103307D16FF08B030848636004F10D
:1048D0002C010AF05CF986F31188BFF36F8F013D5C
:1048E00004F14004E6D1F8BD94190020E80C002042
:1048F00038B50025084C2046084906F0EFF901229A
:10490000A4F11000114601350AF023F9042D04F139
:104910004004F0D1002038BDC0190020D545000862
:104920000123016981F84B300B6833B191F84930AC
:104930001BB1024808310AF02AB97047E80C002080
:104940000123016981F84A300B6833B191F848308E
:104950001BB1024808310AF01AB97047E80C002070
:1049600070B50569EFF31186102383F31288BFF346
:104970006F8FD5F89000FDF7CBFE044686F31188C3
:10498000BFF36F8F30B100220023034805F11801F7
:1049900006F0D0FA204670BDE80C0020012370B567
:1049A00082F8483013680D4614463BB192F84A30FD
:1049B00023B10E4802F108010AF0E9F8D4F890306A
:1049C000DA885B899A4205D17DB904F118014FF468
:1049D0007A7204E004F11801002DF8D00022BDE83D
:1049E00070400023014806F0A5BA70BDE80C002015
:1049F000002103460C4AA0F84810106883F89C1068
:104A0000C3F8940090889279A3F8980083F89A20CC
:104A100083F89B104022A3F89E1083F8A01003F1A6
:104A20004C000AF065B900BF40F4000880B500AF43
:104A300088B06A46064BCDE90530032342F8103FA3
:104A400000234FF4C4510348FEF7C2FABD4680BDAF
:104A500016080108D4F30008002310B50469C4F84F
:104A6000A8300C4BC4F8A400596804F1A80269B935
:104A7000C3E9002204F10800074906F02FF904F108
:104A80001800064906F02AFA002010BD0A605A6094
:104A9000F0E700BF981A0020EDDB0008754B000816
:104AA00030B54FF400334268056942F2A10085B089
:104AB000CDE90103002385F89D30106AADF80C1094
:104AC0000A22007901A9FFF707FA054C95F89D30F5
:104AD00023B901200AF00DF8013CF7D105B030BD33
:104AE000A1860100002373B5102504698DF8071015
:104AF00084F84830EFF3118685F31288BFF36F8F87
:104B00000122D4F890000DF10701FDF701FE86F3B4
:104B10001188BFF36F8F012812D00AF048F8C0B196
:104B20000122104BD3E8EF1F002903D1C3E8E02F87
:104B30000028F7D104D102210B4A0C4808F081FF6C
:104B40000A22002304F11801094806F0F3F902B023
:104B500070BD94F8A130002BE2D000210A2007F0AC
:104B600053F9C7E7941A002037080108D4F3000866
:104B7000E80C0020F0B5D0F88C3005465B6885B0B5
:104B80001B6A1F7D384609F01CF8064650BB95F895
:104B900086303BB3A86F0146C38831F80A2F9B1AB1
:104BA0009BB2B3F5806F28BF4FF4806303AA08F06F
:104BB000B6FD0446B0B18306A5F1180385F8306050
:104BC0000193094B08BF00F1FF342246039900937B
:104BD00038460223FFF7C0FDA86F224600F10A0104
:104BE00008F0D3FD05B0F0BD9D4900080346022141
:104BF000014A024808F02EBF56080108D4F3000805
:104C000010B501460446064808F0C5FF20B9204605
:104C1000BDE81040FFF7EABF012300F8073C10BDD4
:104C2000981A002070B50E4681880446C9B218480B
:104C3000154608F0A3FF40B9A38816480221164A7A
:104C400008F008FF6FF0120070BD94F9002063783F
:104C5000002A16DB202B04D0222B0ED06FF085000B
:104C6000F2E72B681A6840F8102C9A8820F80C2C70
:104C70009B7900F80A3C0020E6E7638800F8093CCD
:104C8000F9E7212BEAD10723103828603360F2E7D7
:104C9000981A0020D4F300087C08010873B50D1E93
:104CA000064614462ADD2A46D4F88C0004F14C014D
:104CB000FDF72EFD854205D901212B1A174A184808
:104CC00008F0C8FE012384F8493023683BB194F80A
:104CD0004B3023B1134804F1080109F058FFD4F810
:104CE0008C209388918912695B1A9BB2D31A3F2B4F
:104CF00004D8012384F8A03002B070BD94F89E302F
:104D0000002BF9D0084B4022009330460123019438
:104D100004F14C01FFF720FDEEE700BFA3080108F6
:104D2000D4F30008E80C00209D4C000873B506463B
:104D30000D4601462C4808F016FF044628B93046B7
:104D400002B0BDE87040FFF771BE691EA0F1A40675
:104D5000052922D8DFE801F0282103232E37036834
:104D60005D680321214A224808F06BFE14F8061CF6
:104D700099B9012304F8063C2B6A3246187BFFF7E9
:104D80008DFF14F85C2C42B92B6A1146187D194B23
:104D9000019600930223FFF7DFFC02B070BD0321F0
:104DA000154A134808F04DFE304602B0BDE8704089
:104DB000FFF71EBE0321114A0D4808F042FE0123F1
:104DC00004F8053CE9E703210D4A094808F039FEDB
:104DD00014F8053C002BE0D003210A4A044808F0EF
:104DE00030FE0023ECE700BF981A0020C408010839
:104DF000D4F300089D490008D6080108EA08010814
:104E0000FB0801080A09010813B500244FF0FF331D
:104E10004FF4806205490648009405F0EFFF05490C
:104E2000034809F0CAFE204602B010BDE823002066
:104E3000E80C00203109010808B5044808F04BFBD4
:104E4000034808F048FB002008BD00BF3A090108EC
:104E50006F09010808B50348034A0021121A08F037
:104E6000F3FF08BD28080020E41B0020074808B510
:104E7000074A0849121A08F0E9FFBDE80840064849
:104E8000064A0749121A08F0E1BF00BFC00400201B
:104E90002808002050260108B8040020C004002083
:104EA000482601082DE9F04706460C4600AF0029C8
:104EB00036D0D1E90012E9468AB06D46A3684FF0BA
:104EC000050AE8461F48CDE90723CDE9050148F862
:104ED00010AF002342464FF421511B48FEF778F8EB
:104EE000D4E90312CD466369AD461848C5E90723E6
:104EF000C5E90501C5F810A0002342464FF4215131
:104F00001148FEF765F8CD46E3690121104A0E48C5
:104F100008F0A0FDA36901210E4A0B4808F09AFD94
:104F2000012E07D1EFF305830B4A31460648103BAB
:104F300008F090FD2146304604F0B0FDBD46BDE8C6
:104F4000F08700BF9C09010894F30008CB09010811
:104F5000FA090108090A0108370A010830BFFFF7FA
:104F6000FDBF00BF2DE9F04105460B4EDFF82C8058
:104F7000324606EB0807CC1B2046094909F0ABFE78
:104F8000A01942460021083C09F0B2FE2C6707F147
:104F90000800BDE8F08100BF00000000080000002C
:104FA0000CF4000810B5244C2449254808F05BFF98
:104FB000A36A99013ED52248224908F054FF1E20D9
:104FC000A36ADA0104D51E481F4908F04CFF1F20D0
:104FD000194CA36ADB0204D519481C4908F043FFA9
:104FE0000220A36A1C0304D51548194908F03BFFA9
:104FF0002120114CA36A590304D51148154908F022
:1050000032FF2220A36A9A0304D50D48124908F002
:105010002AFF2320084CA36ADB0304D508480F4964
:1050200008F021FF2420A36A6FEA03436FEA1343C9
:10503000A36210BD1D20C3E700ED00E04A0A01088D
:1050400094F30008620A0108750A01088F0A010832
:10505000B90A0108D70A0108FC0A0108160B010861
:1050600070B506460D46334C3349344808F0FBFE14
:10507000A36AD9064DD53148314908F0F4FE112014
:10508000A36A1A0704D52D482E4908F0ECFE122019
:10509000284CA36A9B0712D52B49284808F0E3FE49
:1050A000636BA26A110609D50121284A234808F03A
:1050B000D1FC1EB1A36A23F08003A36213201D4C10
:1050C000A36ADA0704D51D48214908F0CCFE142054
:1050D000A36A9B0604D519481E4908F0C4FE152092
:1050E000144B9A6AD60602D49A6A940713D59B6A1F
:1050F000D90610D5184940F22D13184A184808F05F
:1051000000FA184808F0FDF940F22D11134808F094
:10511000EFF91020B4E7074B9A6A920642BF5A6A29
:1051200022F400525A629A6A42F0FF029A62002305
:105130002B7070BD00ED00E0410B010894F30008F6
:10514000570B01088A0B01089D0B0108B50B0108DC
:10515000CB0B0108EA0B01084B0C0108190C0108E4
:1051600028F90008950C010870B506460D46284C34
:105170002849294808F077FEA36AD9043CD5264877
:10518000264908F070FE1720A36A1A0504D52248A4
:10519000234908F068FE18201D4CA36A9B0512D510
:1051A0001D48204908F05FFEA36BA26A100409D5D0
:1051B00001211D4A184808F04DFC1EB1A36A23F4D2
:1051C0000043A3621920124CA36A590504D5124862
:1051D000164908F048FE1A20A36ADA050ED50E48D3
:1051E000134908F040FE1B20094A936A43F47F43A9
:1051F000936200232B7070BD1620C5E7A36A9B0441
:10520000F2D505480B4908F02EFE1C20ECE700BF44
:1052100000ED00E0F90C010894F300080F0D0108FF
:105220008A0B0108200D0108390D01084E0D0108F7
:10523000690D0108EA0B0108F0B58BB07A4B044602
:105240005868002500AFC0F3080385F31188BFF349
:105250006F8F02F07F46B6F17F4F07D102F00C0648
:10526000082E12D17149724808F0FDFD714940F2D3
:105270001B43714A714808F044F9714808F041F93C
:1052800040F21B416C4808F033F916074CBF0C463E
:105290000125002CEAD00022FA71DA1E092A00F258
:1052A000A280DFE802F005989B7BA0A0A0A0A09EB2
:1052B00064495F4808F0D7FD00235B4EFB71F36A39
:1052C0009A0705D560495A4808F0CDFD00232DE026
:1052D000F36A002B01DA5D49F5E7F36A5B006DD5EF
:1052E0005B49534808F0BFFD7369A26943F48073BA
:1052F0007361BFF34F8FBFF36F8F32F8023C726957
:1053000022F480727261BFF34F8FBFF36F8F03F48B
:105310007F42B2F55F4F2AD1DBB2022B27D123683F
:1053200001214C4A424808F095FB2368FA79DAB922
:1053300007F1080604F1200C324620686168083441
:1053400003C264451646F7D17A6A002D68D0C2F3CD
:10535000080121B96FEA52226FEA42227A621846A6
:1053600007F10801FFF79EFD2C37BD46F0BD2E4B1F
:105370009A6AD2B22AB10120F91DFFF771FE0346E5
:10538000D4E79A6A12F47F4F04D00120F91DFFF789
:10539000EBFEF4E79B6AB3F5803F02D3FFF702FE12
:1053A000EDE72D4940F2ED23234A244808F0A9F8FF
:1053B0002A4808F0A6F840F2ED2163E726494FF4A9
:1053C0003C731D4A1D4808F09CF8254808F099F8E0
:1053D0004FF43C7156E70020F91DCEE70020F91D7F
:1053E000D5E720496FE7204A6E4610F4F87F8AB06F
:1053F0001E4918BF11466A46103B07934FF40073CD
:105400001B48ADF820301B4BCDE9050142F8103F99
:1054100000234FF411510648FDF7DAFDB54655E774
:105420006FF308029AE700BF00ED00E0AF0D01083E
:1054300094F30008DA0D0108190C010828F9000896
:10544000ED0D01082B0E0108420E0108630E010844
:10545000710E0108900E0108621A0108AC0E0108D5
:10546000D00E0108000F0108960D0108810D0108FA
:10547000240F010804000001064B5A6942F0100293
:105480005A615A6942F480625A615A6922F00802EC
:105490005A61704700ED00E0EFF30880EFF30981F7
:1054A00001B57246FFF7C8FE01BD00BF002080F3C2
:1054B0001488BFF36F8F002080F30A8880F30B8875
:1054C0000E4880F3088800200D490860BFF34F8F15
:1054D00000F02CF8102080F311880A484FF4006186
:1054E000401880F30988EFF314800221084380F309
:1054F0001488BFF36F8F00F0B3F800002845002038
:1055000094ED00E0E82B0020002318460649D1F86E
:105510009020C2F30722934200DB7047C1F8983015
:10552000C1F8A0000133F6E700ED00E010B572B657
:10553000002484F31388FFF7E7FF23464FF0FF3082
:105540000C4A03F120010133102B42F82100F8D15D
:1055500000234FF0FF30074A03F160010133102BA5
:1055600042F82100F8D162B6BFF34F8FBFF36F8FBF
:1055700010BD00BF00E100E01EF0040F0CBFEFF310
:105580000880EFF30980816911F8021C0229FFD01D
:1055900001B5724608F05CFC01BD00BF00B20028F6
:1055A00007DB01234109034A00F01F00834042F852
:1055B0002130704700E100E000B200280CDB01223E
:1055C0000649430900F01F008240203341F82320A0
:1055D000BFF34F8FBFF36F8F704700BF00E100E054
:1055E00038B54B1C0F2B04460D460FD96B23104AC0
:1055F0001049114807F085FF294610480F2322461D
:1056000007F07FFF6B210A4807F072FF00B2002805
:10561000ACBF00F160400A4A4FEA0313DBB2ABBFF4
:1056200000F5614000F00F0080F80033135438BDDE
:10563000370F01086E0F010828F90008890F0108CB
:1056400014ED00E0044B054A23F07F039360BFF3A1
:105650004F8FBFF36F8F70470000000800ED00E030
:1056600008B5FFF7EFFF074AD2F8883023F470033C
:10567000C2F88830FFF7EEFBFFF7F8FB00F09CF86C
:1056800004F068FB00ED00E042F8203C009B0B4971
:1056900042F81C3C019B21F0010142F8183C029B9E
:1056A00042F8081C42F8143C4FF0807342F8043C66
:1056B0000023203A02654367704700BF5D21000860
:1056C00000B50D4B15469860026F0C4B0E461A60E4
:1056D000036E83F30B882C4686F309880020044B65
:1056E00098472046002100220023024C204700005A
:1056F00085DE00085D210008501B0020A01A002054
:105700001022014B1A61704700ED00E0054B5A6909
:105710009B689A421FBF044A536843F0805353600A
:10572000704700BF501B002000ED00E0084B9B6855
:1057300083420BD1EFF3058343B1064B5A6842F025
:1057400080525A605A6A22F400425A6206F0EEBB56
:10575000501B002000ED00E014498A684FF0300033
:105760001044EFF3098C80E8F01F102080F31288BA
:10577000BFF36F8F0E4F4FF000664A698A603E603C
:10578000106F0C4C2060506F0023536780F311881A
:1057900002F1300090E8F01F8CF3098802F100005C
:1057A00004B508F068FBBDE804407047501B0020BA
:1057B00004ED00E0A01A0020002310210348C218C5
:1057C00001334B2B82F80013F9D1704700E100E060
:1057D00008B5EFF30583064A103B02EBC30152F80C
:1057E000330049688847BDE80840FFF78FBF00BF16
:1057F00050F000080148006870470000A01A00201F
:105800001FB50121094B0A4A0A4800F00FF900238D
:10581000064A0393084B0121019301A8D31A02936E
:1058200000F028F905B05DF804FB00BF000004207B
:10583000000000205CF60008280800200A7A0B68A7
:1058400010B562F304031C46CB68520923F01F0312
:1058500043EA4203044A43F00103C2F89800C2F845
:105860009C40C2F8A03010BD00ED00E010B50A4B1E
:10587000D3F89030C3F30723013B984208D90121A4
:105880000346064A064808F0E5F86FF0150010BD1B
:10589000FFF7D4FFFBE700BF00ED00E0CD0F0108EC
:1058A0008CF300082DE9F04F8946144606464FF068
:1058B00000084F4D85B0C84527DAD6F804A0BAF1E4
:1058C000000F44D0BAF11F0F17D91AF01F0F14D1CF
:1058D000D6F800B01BF01F0F0FD1584608F0E6FABB
:1058E00007460AEB0B00013808F0E0FA874210D0B7
:1058F0006FF015073F4A3B4601E043463E4A01210F
:105900003E4808F0A7F86FF01504204605B0BDE842
:10591000F08F17F1160FEDD0BC42EBDDC5F8987093
:10592000D5F89C10C5F89870D5F8A03021F01F016B
:1059300043F01F0BD6E900321A44994202F1FF3AB4
:105940001AD1D34507D13146F8B208F0B8FA08F1B8
:1059500001080C36AFE73146C5F89870D5F89C3091
:10596000E0B263F30402C5F89C2008F0A8FA10F135
:10597000160FC8D0441CEAE7C5F89870D5F8A020E7
:10598000013B23F01F0302F01F021343D3453146AE
:10599000E0B2C5F8A030E8D008F091FA10F1160F87
:1059A000B1D0C5F89870D5F89C209DF808300BF15F
:1059B000FF3B62F304038DF80830D5F8A0309DF862
:1059C00008205B0863F347128DF80820D6E90032FF
:1059D0001344009323F01F035B44A3EB0A0301303D
:1059E00023F01F036946C0B20393FFF73FFFBEE7F2
:1059F00000ED00E019100108F30F01088CF3000816
:105A00000522044BC3F89420BFF34F8FBFF36F8F71
:105A1000704700BF00ED00E0BFF35F8F0022024B34
:105A2000C3F89420704700BF00ED00E038B50C4D7E
:105A30000C462A78FFF736FF287016300FD140F257
:105A40008913084A0849094807F05BFD21460848C0
:105A500007F057FD40F28911024807F049FD38BDB3
:105A6000DF1B00203C100108621A010828F9000819
:105A70006B1001082DE9F74F314D894606464FF06E
:105A80000008AB462F4FC84502DB03B0BDE8F08FDE
:105A9000D6F804A0BAF1000F4CD031680846019145
:105AA00008F004FA019904460AEB0100013808F0F5
:105AB000FDF984424FF01402234B15D002FB08F38A
:105AC0006FF015024BF8032040F299131F4A20494A
:105AD000204807F016FD49461F4807F012FD40F226
