:1000000040550020E926000087BE0000D5260000EC
:10001000D5260000D5260000D526000000000000EF
:10002000000000000000000000000000C5270000E4
:10003000D526000000000000B9290000D5260000E8
:10004000312A0000616E0000312A0000312A0000D0
:10005000312A0000312A0000312A0000312A000034
:10006000312A0000312A000049680000312A0000CE
:10007000312A0000312A0000312A0000312A000014
:10008000312A0000312A0000312A0000312A000004
:10009000016F0000312A0000312A0000312A0000DF
:1000A000312A0000312A0000312A0000312A0000E4
:1000B000312A0000312A0000312A0000312A0000D4
:1000C000312A0000312A0000312A0000312A0000C4
:1000D000312A0000312A0000312A0000312A0000B4
:1000E000312A0000312A0000312A0000312A0000A4
:1000F000312A0000312A0000312A0000312A000094
:10010000014B1B685B681847C0040020014B1B684B
:100110009B681847C0040020014B1B681B691847E7
:10012000C0040020014B1B685B691847C004002015
:10013000014B1B689B691847C0040020014B1B68DA
:10014000DB691847C0040020014B1B681B6A184775
:10015000C0040020014B1B689B6A1847C0040020A4
:1001600030B4044C9DF8085024680295E468A44615
:1001700030BC6047C00400206B0300007103000026
:10018000730300009903000077030000A30300003D
:100190007D030000AD03000083030000B9030000ED
:1001A0008F03000093030000850300008B03000011
:1001B000A9030000B303000030B50346114890F9CD
:1001C0001C209A4219DD90F924209A4217DA9A1AD3
:1001D000846AA05C0C4A15569D420DD00E3200294F
:1001E00018BF01309442C0B206D129B1013BDBB245
:1001F000012B01D80130C0B230BD0D20FCE700203A
:10020000FAE700BF500C002064F0000008B5054B71
:1002100093F91C30984203DAFFF7CEFF024B1B56CE
:10022000184608BD500C002064F0000008B5184BBB
:1002300093F82C20FAB9012283F82C20154A126871
:10024000A2F10800082803D813490141C90709D5BC
:10025000911F092910D9013212D04FF4DF71742097
:1002600000F034F80D4A9A62D8221A6283F82420EA
:1002700008229A611A7708BD094A0A41D207ECD4CC
:10028000084A9A62D8221A6283F824200422F0E7EE
:10029000500C0020000E0020DEFEFFFF9FF000004B
:1002A000EEFCFFFF72F00000BFF34F8F0549064BD5
:1002B000CA6802F4E0621343CB60BFF34F8F00BF04
:1002C000FDE700BF00ED00E00400FA051FB572B6BF
:1002D000134B5D6895B9FFF7E7FF2346B2FBF6F2D3
:1002E0005C1C002AF9D104AEDCB256FA83F303F8A1
:1002F0000C2C0A2234B901A8A847ECE702460023D7
:100300000A26EDE7631E04AEDCB256FA83F3B0FBB7
:10031000F2F602FB1600303003F80C0C3046E9E729
:10032000C80D00204FF08052034BD2F830111960F5
:10033000D2F834215A607047000E002008B5FFF74C
:10034000F1FFBDE80840FFF771BF801A00F3070016
:1003500038B540B20D4659B21446FFF757FF002397
:1003600028706B70204440B238BD00230360704792
:100370007047002070474FF0FF3070474FF0FF305C
:10038000704770474FF0FF307047002070470020E3
:1003900070470023037070479DF800300022FFF77C
:1003A000D4BF4FF0FF307047002070474FF0FF3050
:1003B00070474FF0FF307047704710F8012B11F86D
:1003C000013B012A28BF9A42F7D0D01A7047034652
:1003D00013F8012B002AFBD1181A013870470000CE
:1003E00030B58FB00C460546302200210DF10500D6
:1003F0000EF0A3FB631E2F2B8DF804400FD822466E
:1004000029460DF105000EF08AFB06480022002364
:1004100001A90DF0BEFF10B103480AF0C0FD0FB0F6
:1004200030BD00BFF00A00209017002030B51B4DF2
:100430008BB00446A368DB6B2BBBA368DB6A43BBB2
:10044000A3681B691BB326220DF1010120469847C2
:1004500000281CDD8DF80000BFF35B8F55E8003FDE
:10046000034445E80032002AF8D1BFF35B8F0C4803
:100470000022002369460DF08CFF0028DAD00948DD
:100480000AF08DFDD6E7204698470028D5D10BB05D
:1004900030BD204698470028D2D1F8E788170020C1
:1004A000C80A00208017002070B50378022B8EB098
:1004B00003D1684607F058FA08B10EB070BD424843
:1004C0000AF06DFD9DF80050302D21D19DF80530CA
:1004D000A52B1FD19DF806305A2B1BD19DF8073054
:1004E000012B17D19DF80830012B13D12E210DF1CE
:1004F00005000AF03AFDBDF83340A0420AD1334866
:100500000AF04DFD29460DF10500FFF769FFD0E720
:10051000082D55D99DF80530C32B51D19DF80630D3
:100520003C2B4DD19DF80730012B49D19DF80B4054
:10053000262C22D804F10903AB421ED8E61D314611
:100540000DF105000AF011FD04F138036B4413F8B6
:100550002B2C04F13F030DEB030616F8333C43EA62
:100560000223834209D19DF80830022B05D1184897
:100570000AF015FD214603A8C7E79DF80B40262C7D
:100580001ED804F10903AB421AD8E51D29460DF126
:1005900005000AF0EAFC04F138030DEB030405F151
:1005A00038030DEB030514F82B2C15F8333C43EA04
:1005B0000223834204D19DF80830032B3FF479AF26
:1005C00004480AF0ECFC74E79C1700209817002000
:1005D00084170020941700202DE9F04FABB000AF36
:1005E0009E4D28460DF0DDFD58B39D4E0FCE07F110
:1005F00070040FC433682360012387F8713000232F
:1006000087F87830302387F8813007F17000954BF8
:100610007B6706F0C3FFA0B9934807F075FA80B96D
:10062000924807F08BFA60B99148082107F09EFACA
:1006300038B9502007F0C0FA18B907F0E7F90246B8
:1006400048B18C4A8C4801210BF07BFB0020AC3771
:10065000BD46BDE8F08FAC6854B3236C43B3874903
:1006600028469847236A2BBB854A8348854EDFF886
:10067000188203210BF065FB4FF00009DFF80CA294
:100680003522002107F170000EF057FA337843B994
:100690007F4800220023514608F0CAFD68B90123B3
:1006A00033709AF80040262C40F286800022A7E0A2
:1006B000784AC7E769489847D6E73378002BF0D1E6
:1006C00075484222002307F13C0108F0B1FDC8B98A
:1006D000386762480DF065FDA0B1AB689B6C8BB1CB
:1006E0005E4807F1700204219847044650B93B6FF9
:1006F00043B197F83C20E3B29A4200F2A3806748E6
:100700000AF04DFC0EF043F94FF47A72A0FB02039D
:1007100002FB0133C40B44EA4344A4EB090241F257
:1007200087339A42ACD9BFF35B8F5D4BD3F800A0FF
:10073000BFF35B8F5B4BBFF35B8FD3F80090BFF3CE
:100740005B8F594BBFF35B8FD3F800E0BFF35B8F38
:10075000524BBFF35B8FD3F800C0BFF35B8F534B9B
:10076000BFF35B8F1868BFF35B8F514BBFF35B8F99
:100770001968BFF35B8F4F4BBFF35B8F1B68BFF3F1
:100780005B8FC7F804D08EB06A46DFF82CB1CDE994
:100790000B130923CDE905BACDE9079ECDE909C0C0
:1007A00042F8103F3448002344F6C00101F05CF8E1
:1007B000A146D7F804D061E7404BC7F80C801B88EE
:1007C0003B82BC742CB13E49224607F113000EF067
:1007D000A6F904F1070B594607F10C000AF0C5FB16
:1007E00007F1080204F1A70303EB020B04F1A003D5
:1007F00013440BF89C0C000A03F8940C04F1090252
:100800004FF0000B07F10C0107F1750087F870201D
:1008100087F871B087F873B00EF081F907F17000B6
:1008200006F0F8FF28B9254A307013880133138089
:1008300046E70C303FF444AF1E480AF0B0FB86F8A0
:1008400000B03DE707F10802A033134413F86B1C16
:10085000AB6802485B68984701344AE72CED00001A
:1008600050F00000A90400005D01010059010100E1
:10087000510101006EF30000A8EF00002D040000FC
:10088000B4F30000DB230020C33C0101B4230020AB
:10089000C80A002093F30000F00A00208C17002003
:1008A0009C1700209817002094170020881700201C
:1008B0008417002080170020EBF300009023002015
:1008C000B52300202DE9F84F8A4600AF002974D0E7
:1008D00004680E1F361BF50826F0070604EB060811
:1008E000B8F802B01BF0010B16D1E94688B06A4691
:1008F000334BCDE90531032342F8103F31485B46C5
:100900004FF4C25100F0B0FFCD468BF31188BFF316
:100910006F8F0423184602DF294620460AF04BFB5E
:10092000284434F83030C01A854217D0E94688B0E0
:100930006A46254BCDE9053A032342F8103F21488A
:1009400000234FF4C25100F08FFF0023CD4683F304
:100950001188BFF36F8F0423184602DFB8F8023006
:1009600023F00103A8F80230294620460AF023FBB1
:1009700005EB000804EBC8035B88DA0708D441469E
:1009800020460AF061FB4246294620460AF0A1FBB8
:10099000A65BAE1B04EBC6035B88DB0709D43146BC
:1009A00020460AF051FB2A46314620460AF091FBC8
:1009B0003546294620460AF003FBBD46BDE8F88FC0
:1009C0008AF4000008F0000061F400002DE9F04F07
:1009D00091B08407009302F004030293C2F3C203B0
:1009E00003F10103DDF868A0039205460E46059366
:1009F00040F09D81041D00284AD101F00706341DF6
:100A0000C6F10806009B00275A1E4FF004084FF05D
:100A1000FF3301930497B946BB4643460DB1009995
:100A200021600598002800F3D78090480099814202
:100A300003D38F488142C0F0CF80039911F0020C9C
:100A4000A4EB050040F0D680B9F10F0F00F2CF8083
:100A5000002D00F0D68009F140010DEB010EC0F32E
:100A6000870001990EF8200C0EF8101CBCF1000F45
:100A700000F0C38060F07F000EF8200C013709F110
:100A80000109C5F10801043406914FF6DA7E8CE0C5
:100A90000729B7D86FF01B0011B0BDE8F08F7A2896
:100AA0005BD84B280FD8472857D829282ED8252877
:100AB00050D052D8202818BF23280CBF4FF0010B6C
:100AC0004FF0000B71E04C382E2846D8DFE800F0DC
:100AD0006D4545454545454545454545484545459B
:100AE0004545454545564548485656566D486A451C
:100AF0006D4518481845457F7C48454548457C006C
:100B000000204FF0000B4FF0040835E02A38C0B247
:100B1000012101FA00F010EA0E0F46D110F0625CDC
:100B20002CD110EA010B40D06046013C4444B4FB98
:100B3000F8F408FB04F425B1A3EB050CA444B44578
:100B4000A8D8002870D00599013905915AF8041BDE
:100B5000009163E70199013901914FF0000B24E006
:100B600012F8010C6C2834D112F8023C00206C2BD6
:100B70008346C8D14FF008084346D6E70AF1070A72
:100B80002AF0070A0734FAE802BC24F0070435B15A
:100B900006982044B0423FF67DAFC4E900BC08345B
:100BA0004FF0000B4FF00808434612F8010F0028E1
:100BB00053D0BBF1000F7FF472AF2528F5D1019B14
:100BC000013301934FF0010B4FF00408ECE7584656
:100BD00097E700208346A8E7039988077FF551AF80
:100BE000601B4FF0010CB0F5007FFFF42DAF6FF0EC
:100BF000150051E74FF0000CF5E704980130049020
:100C00003DE7BCF1000F01D0013638E7029802360B
:100C100000287FF434AF0098CDE90632FFF7D7FB08
:100C2000DDE9063206442AE7042B08D10AF1040064
:100C300015B1DAF80010216004348246B5E70AF1F4
:100C4000070323F0070303F1080A1DB1D3E90001EC
:100C5000C4E9000108340823A7E7631BB3F5806FDC
:100C6000C5D23DB9A6F10804E01815E720EC000054
:100C7000F8010100029A28609B082B709DF8103043
:100C8000AAB1EB70AF702FB108A80022C5F1010C1A
:100C900091450ED1C5F101030DF120084FF0000A76
:100CA00001930DF1300BD14512D1601BF4E66B704E
:100CB000E8E710F8013B190608D50CEB040EB64521
:100CC00003F07F033FF6E6AE04F8013B0132DFE7B5
:100CD0001FB198F90020002A17DB029BD3B11AF844
:100CE0000B2004F8012B0022019B18191044B0427C
:100CF0003FF6D0AE98F8000004F8010B009903927B
:100D000020460DF00CFF039A14440AF1010A08F181
:100D10000108C8E798F8002055F822300093029B9C
:100D200045F822300098FFF752FB421CDCE76FF0D9
:100D30000D00B1E62DE9F04F97B000AFC7E90A32D8
:100D400005468A4649B903784678807800EB8300E7
:100D50002844564524D8A0EB050AD7F8803095F8EA
:100D60000280D7F8804003F00103FB61EB787B62DF
:100D7000B8F1000F0CBF002404F001041BB1D7F838
:100D800080309A0715D4A4B9FB6A1BB1BA6A5146E0
:100D900028469847564630465C37BD46BDE8F08F3A
:100DA000441C2046FFF713FB013020440AF1010ADE
:100DB000CFE7D7F88030C3F3C0033B622B78BB6129
:100DC0009B003B616B687B61BB6905EB830BFB6A36
:100DD000002B77D15646D844BCB11C461BF8013BCA
:100DE00055F82300FFF7F3FAD7F88430013043B108
:100DF000D7F88830A34282BFD7F8843023F8140094
:100E00000134C3450644E9D1D846D7F8803013F001
:100E1000050F0CBF4FF0020B4FF0010B4FF0000914
:100E20007B6A9945B7D298F8013055F823A0AE4BAC
:100E30009A4508F10208C0F04B81AC4B3A6A9A45DA
:100E40002CBF002301230AB318F8021C7869FB6247
:100E50000AF085FAFB6AC8B1EA468AB06A46A44B32
:100E600005937B69CDE906314FF40073ADF820306E
:100E7000A04B42F8103FA04800234FF4125100F05D
:100E8000F3FC023ED54609F10109C9E723B1FB692C
:100E900033B9A6EB0B06F6E7D7F880309B07F2D5FF
:100EA0005046FFF794FAD7F884304BB1D7F8883022
:100EB0009C423FBFD7F88420431C22F814300134F1
:100EC0000644E0E7002C69D1B8F1000F6CD0D7F8E8
:100ED000803058076BD5C14607F148004246594655
:100EE0000DF01DFE0BEB0803FB6000220233796A54
:100EF0008A425ED3D7F8802095F801B0F96992074D
:100F000004EB0B03DBB254BF4FEA59020022002965
:100F100040F0A680D7F8801011F0040F14BF4946A6
:100F200000216B70A970EA703969BA6AFB6A2846B9
:100F30009847061EFFF62FAFBB692B707B6AEB70DC
:100F40004946BA6AFB6A85F801B085F8028007F164
:100F500048009847B0F10009C0F2B6803B697A6A50
:100F6000786A03EB4201FB68BA6A414403EB400034
:100F7000AAEB0101FB6A98470028C0F2A780B144A0
:100F800009EB00064FF0000B07F1380AA34569D3BF
:100F90000021BA6AFB6A08469847FCE6444607F116
:100FA00038004FF0000999E74446C1469AE7A14648
:100FB00098E713F8016CDFF830C155F8260013F8F4
:100FC000021C6045C0F08A80DFF820C16045386AA5
:100FD0002CBF4FF0000B4FF0010B38B17869C7E917
:100FE00001320AF0BCF9D7E90132F0B9BBF1000FC8
:100FF0001ED0F96949B1611C04F1280007F13004E1
:10100000041904F8206CCCB20FE0D7F8801049071F
:101010000BD509F1280007F1300C09F1010100EBB3
:101020000C0909F8106C5FFA81F9013202335EE7AE
:10103000D7F880008007DED409F1280C07F1300EC4
:10104000F44409F101000CF8101C07F1580151FAA1
:1010500080F009F102095FFA89F900F8106CE4E701
:1010600000215EE71BF80A3087F8373055F82390E7
:10107000D7F884302BB3D7F888309B4521D2D7F8E6
:10108000843033F81B80BA6AFB6A012107F137000C
:10109000984700281ADB0644B8F1000F06D14846ED
:1010A000FFF795F900F101081FFA88F8BA6AFB6AA0
:1010B000414648469847002808DB06440BF1010BDF
:1010C00064E74FF00008DEE74E4664E6064662E657
:1010D0003B6A002B3FF4E0AE0023B5E6386A0028F7
:1010E000A6D04FF0000B79E720EC0000F8010100DA
:1010F000B7F4000004000001B0EF0000014B1860DD
:10110000704700BF9805002080B505460E4617467B
:10111000984608F053FF034601F09CFCDFF8189056
:10112000044649F80030424630463946A84754F84C
:10113000090001F02BFC00BF080000002DE9F0477A
:10114000058B0446280717460CD501290CBF45F02E
:10115000100545F02005258387F31188BFF36F8FB5
:10116000BDE8F087022905F0070540F0948020468D
:101170000AF0A7FB052864D801A353F820F000BFAC
:1011800059110000971200004312000005120000E0
:101190001F1200003112000001F007035A1F012A3C
:1011A0001FD8002221F00701062BD4F8008089B255
:1011B000C4E9002209D1434603E0628B0132628315
:1011C0001B68002BF9D141F00201218320460AF06F
:1011D00078FB4FF0000900286DD041F020012183F9
:1011E00069E0042B0AD121F0070189B2218320464E
:1011F0000AF067FB10B141F0200121834FF0000895
:10120000C14658E02369D3F80090238B23F00703ED
:1012100043F0060323834FF0000846464BE0236962
:10122000D3F80490238B23F0070343F00403F1E782
:101230002369D3F80890238B23F0070343F00503B9
:10124000E8E74FF00008C146E7E7012243F0080352
:10125000238387F31188BFF36F8F002A3BD1B8F146
:10126000000F4AD1B9F1000F02D02D492046C847DE
:10127000EFF31187402383F31288BFF36F8F238B23
:1012800023F008039BB22383D9063FD523F0100235
:10129000228303F007056669218B002EBFF67CAF21
:1012A0000023D4F8008021F00701C4E9003341F0A5
:1012B000010121839946238B03F0070AAA4502D036
:1012C000A268002AC1D1B8F1000F02D1B9F1000F14
:1012D000DAD00022BAE7A1680029C0D00D68002941
:1012E000BDD04F68334652462046B8471DB12B68E3
:1012F00029461D46F3E72B46FAE741463346524658
:101300002046D8F800800AF008FBA8E79A067FF587
:1013100023AF23F02002228303F0070527E700BF55
:1013200047B900002DE9F047DFF85480044607462E
:101330004FF0010994FAA4F5B5FA85F509FA05F319
:101340002E0108EB05156FEA030A24EA03042B7B40
:1013500063B158F806301B696BB9464404227368C0
:101360002846196807EA0A070AF07BFC002CE1D13D
:101370003846BDE8F087284698470028F6D1ECE7C4
:1013800038F0000010B51049104888B000220DF068
:1013900046FB4FF400320023CDE9062300240E2340
:1013A000CDE90334CDE90144094B0A4900944FF4D7
:1013B0004072094808F088FB084907480DF046F9D3
:1013C000204608B010BD00BFE1130000101300203C
:1013D0001117000080330020800E002076F50000F9
:1013E000014808F07DB800BF500B00202DE9F04700
:1013F000804621480F460AF014FC0646002833D0E8
:1014000000252846BDE8F087237B83B12368DB688D
:101410000BB120469847636883F8069023681B69E0
:10142000D3B963680422196820460AF01AFC013611
:1014300010345445E8D3B8F1000FE2D0002DDFD0CE
:101440002846FFF76FFF0546002FF7D000214FF425
:10145000A4700DF0BCF9F1E7204698470028E0D0D1
:1014600009FA06F31D43E2E7044CDFF814A0054631
:101470004FF00109DDE700BFB017002038F0000091
:1014800048F00000014B53F820007047FCF00000CA
:1014900008B5034608462BB1044A136000F044FC2B
:1014A000002008BD6FF01500FBE700BF9C05002081
:1014B00010B5044C237813B9034808F011F8012340
:1014C000237010BDDC230020500B002010B5044613
:1014D0000B480AF0A6FB5CB1BFF35B8F094B53E8E6
:1014E000001F013943E80012002AF8D1BFF35B8FD7
:1014F000054809F089F80548BDE8104007F0F0BF3D
:10150000A8170020AC17002010130020500B00205B
:10151000064BBFF35B8F002253E8000F43E8002126
:101520000029F9D1BFF35B8F704700BFA8170020D7
:1015300070B5FFF7EDFF084C084E0546B44200D3E6
:1015400070BD63685B792BB123685B6813B1294672
:10155000204698471034F1E738F0000048F00000CA
:1015600010B5044C044920460AF025F8034B1C60D2
:1015700010BD00BFD4090020E8F00000A017002033
:101580000D4A0E48002310B513700D4A13600D4A22
:101590004FF400411360FFF77BFFFFF7E1FF0A4BB9
:1015A0000A4918468B4200D310BD1A1A5C68121102
:1015B000013222711033F5E7DD2300201FBC00004B
:1015C000A8170020AC17002038F0000048F00000F9
:1015D00001460022014800230AF00EB8D409002079
:1015E00001480AF0A5B800BFD4090020024B01460B
:1015F00018680AF0F8B800BFA017002001480AF0E8
:101600002DB900BFD409002070B52A4B1B78002BE0
:101610004ED0FFF7E5FF0446002846D1264B274D64
:101620001B68002B19DD0DF0B2F94FF47A76A0FBA0
:10163000063206FB0121D5E90020DB0B43EA4143DA
:101640009B1A4FEAD13140F2E93261EB000193423B
:1016500071F1000101D3FFF76BFFD5E9003213F5FB
:101660007A7342F10002C5E900320CB3BDE8704064
:10167000FFF7C4BF6B685B7923B12B6821461B68F9
:10168000284698471035B542F4D32046FFF7AEFF01
:10169000BFF35B8F0A4B53E8001F013943E8001288
:1016A000002AF8D1BFF35B8FB8E7064D064EEAE794
:1016B000002070BDDC230020A817002008130020A4
:1016C000AC17002038F0000048F0000070B50D4D58
:1016D000297861B90120FFF789FE0B4C0B4EB4420B
:1016E00006D3FFF791FF0028FBD101232B7070BDBB
:1016F00063685B791BB1236820469B689847103468
:10170000EDE700BFDD23002038F0000048F00000C6
:1017100000212DE9F8430846FFF768FE044648B368
:1017200040F267684FF0000901F094F91A4B1B4A28
:101730001B58136033B11A4B1B68092B02DD194883
:1017400007F0CEFE184F002544B12046FFF7EAFD12
:10175000044618B94FF0FF384FF0FF39FFF754FF38
:10176000064628B9B5B90F4842464B4607F0ECFE8D
:101770003546E9E74FF0FF384FF0FF39D4E72B68E3
:101780009B691BB100221146284698471035BD427F
:10179000F5D3E8E7054DFAE708000000A41700209C
:1017A000AC170020500B002048F0000038F000007B
:1017B00013B518480AF035FA174B1B7873B1EFF3DD
:1017C0001184402383F31288BFF36F8FFFF71CFF50
:1017D00084F31188BFF36F8F02B010BD0F4B1B68ED
:1017E000002BF9D050B900220023CDE900230C488A
:1017F0004FF40042002308F0CFFEEDE70928EBD1BB
:10180000074808F001FF074802B0BDE8104007F0A4
:1018100067BE00BFAC170020DD230020A417002006
:1018200010130020500B002010B5064B1B68044617
:1018300098472146A060044809F05BFFBDE81040CE
:10184000FFF7B6BF9C050020D4090020044A054BD1
:101850009B1AB1EBD30F34BF52F831000020704710
:10186000A8EF000038F000002DE9F04F8FB004AF72
:10187000C1F34A26B8600D4690467B600C0D002EE1
:1018800061D04FF000090A234FF0040B07F1140A4E
:10189000FE60C7E90799C7F824900093CDF808B017
:1018A000CDF804A007F11C03F9684A464046FFF74B
:1018B00041FAB0F5006F03461CD36C468AB0D8F8E5
:1018C000041004AB2448C3E9050140F2FF71D9615B
:1018D0001A464FF400711984204B42F8103F2048FB
:1018E0004B464FF41251FFF7BFFFA5462C37BD46BC
:1018F000BDE8F08FC0F30A0604F11700184420F089
:10190000070080083B60FFF763FE66F3532504463B
:1019100080B13B68134A00F11001C7E90839F96149
:10192000CDE901AB0A230093F96807F11C03404697
:10193000FFF700FA66F353257B68B9682A4620460C
:101940000AF0AFF9D2E704F1170020F00700800891
:10195000FFF73EFE0446EDE78BF5000004000001B2
:10196000D0EF000075BC00002DE9F04F87B0DDE935
:10197000127ADDE9106B0546884614469946BFB1D8
:101980001021CDF800A03B465A460020CDF814A007
:10199000FFF71CF8B0F5006F01460BD3194A1A483F
:1019A00040F2FF73022107B0BDE8F04F0AF0D2B950
:1019B0003946384604F0070305F00704E40044EA1A
:1019C000831444EA402444EA065406F1170008440C
:1019D00020F0070080080391FFF7FAFD054640B1AB
:1019E0003FB10399CDF800A03B465A461030FEF7B0
:1019F000EDFF4B4622464146284607B0BDE8F04F72
:101A00000AF04FB9CAF50000D0EF0000406820B1DD
:101A1000034BC01A40F3CF0070474FF0FF307047C0
:101A2000A8EF00000EB403B503AB014653F8042B36
:101A30000448019301F094F902B05DF804EB03B09F
:101A4000704700BFB7BD0000CA0605D48B064CBF67
:101A500002490349FFF7E6BF704700BF03F60000E5
:101A600002F600002DE9F04F89B09846159B0693C9
:101A7000DDE916A39DF85090189F059204460D4687
:101A80000493B9F1000F00F0B08007F4807307935E
:101A90000AF0E5F807F0020B0246002874D07849F6
:101AA0002046FFF7BFFF0646BBF1000F08D017F036
:101AB000440F6BD173492A462046FFF7B3FF064413
:101AC00007F0010353B1704B704953F82920704B54
:101AD0002046002A08BF1A46FFF7A4FF07F48073C8
:101AE000002B07F0080318BF4FF00008002B79D037
:101AF000684B694953F829202046FFF793FF0546B4
:101B0000059B2BB165491A462046FFF78BFF05441C
:101B1000B8F1000F05D0624942462046FFF782FF28
:101B2000054460483544069B1BB15F49224609F0D5
:101B3000E5FB049B002B00F08E80DDF81080394619
:101B4000B8F1100F204628BF4FF01008FFF77CFFB8
:101B50000026B54250DC002633461AF803205349CC
:101B60002046FFF75FFF0136102E4BD0710703D1DF
:101B70004F492046FFF756FF46453346EDD34D49C2
:101B80002046FFF74FFFEEE706468DE74A4B186801
:101B9000002894D0494B4FF47A7B1B68B5FBF3F5D2
:101BA0004FF46163B5FBF0F100FB11550BFB05F53C
:101BB0004FF03C0CB1FBF3F203FB1211B5FBF0FE4E
:101BC000B1FBFCF300FB1E550CFB13110BFB05F5E1
:101BD0000091B5FBF0F53A49CDE901E52046FFF764
:101BE00021FF6CE707F008058AE7B8F1010F0CBF89
:101BF0002C4834484D4696E72D492046FFF712FF02
:101C00000136A6E7304920460026FFF70BFF334692
:101C10001AF803202D49A2F120035F2B28BF2E22A2
:101C20002046FFF7FFFE0136102E0DD0720703D1BC
:101C30001F492046FFF7F6FEB0453346E8D81C4959
:101C40002046FFF7EFFEEEE7049BB3EB0803C24428
:101C500004937FF472AFB9F1000F0AD0FB0704D5EB
:101C60000B4A0A492046FFF7DDFE39462046FFF7BA
:101C7000EBFE204609B0BDE8F04F0AF08FB800BF78
:101C80000AF600000EF600000CF1000033F600002A
:101C900005F6000020F1000036F600003CF60000DA
:101CA00040F60000B7BD0000612D000045F60000C1
:101CB0004DF600004BF60000B8170020B4170020C6
:101CC00017F60000EDBD00004FF6000051F60000D1
:101CD00073B542F20F738B4228BF0B4605680F4A5B
:101CE00004460521684608F0D1FE63680C495B682C
:101CF00006460B2228460AF043F8636832466946D6
:101D000028465B680AF03CF8636806495B681B225A
:101D100028460AF035F802B070BD00BF0600010089
:101D20007D01010061010100074A00210123904269
:101D300006D8064A01B901231360054B18607047A5
:101D400040085B000121F2E740420F00B417002079
:101D5000B8170020014B01221A707047DE230020C3
:101D6000014B002019607047D01700200148FFF791
:101D7000AFBF00BF50F1000010B5064B18680C460D
:101D8000FFF780FB21460346BDE8104002480F22C2
:101D9000184700BFD017002050F10000F8B5094DDA
:101DA000094B0A4ED5E9004701221A700CB92C6084
:101DB000F8BD214630463A4600F01EF8241A064483
:101DC000F4E700BFC4170020DF230020E023002039
:101DD00010B9074B18707047064B1B781BB141F2C6
:101DE00088300CF0C2B9A42000210CF0F0BC00BF78
:101DF000DE230020DF2300202DE9F047DFF880906C
:101E0000204E80460F46042599F80040ACB90CF0EE
:101E10009FF93A4682464146204606F037FF04467F
:101E200050460CF09DF9ECB10123337099F8003065
:101E30007BB93C462046BDE8F0873A464146002043
:101E400006F024FF0446EEE72846FFF7C1FF6C1EAC
:101E50002546002006F064FF0028EAD03378002BE6
:101E6000F2D1E6E7337833B1013D2846FFF7B0FF02
:101E70003378002BC8D13378002BDAD0DAE700BFF3
:101E8000DF230020DE230020014B03600020704789
:101E900060F1000007B51B491B480AF092F970BBBE
:101EA0001A4919480AF08DF948BB194916480AF031
:101EB00088F920BB174914480AF083F9F8B901469C
:101EC000154A11480AF064FCC8B9024613490E4885
:101ED00001230AF037FD90B9012300930146022344
:101EE0000948EF220AF077F848B907480AF09CF849
:101EF00028B9054803B05DF804EB0AF0C5B803B093
:101F00005DF804FB14060020BC0B0020FC0500203B
:101F1000E4050020CC050020A005002084F6000088
:101F200008B5044809F03AFA034809F037FA0020E6
:101F300008BD00BF9DF60000D2F60000014808F081
:101F400045BC00BF60F1000038B5044618B90F4B1E
:101F50000F485B6898476168B1F5683F10D0B1F5EC
:101F6000680F0DD00B4DA9420AD011F468612068AA
:101F700007D0014608480CF0BCF9002323606560D7
:101F800038BD14220CF0D9FDF9E700BFE8080020A5
:101F9000FFF600002C5F5CA9D41C002008B520B31C
:101FA0004368B3F5683F10D101220368BFF35B8F2C
:101FB00053E8001F002903D143E800200028F7D18F
:101FC000BFF35B8F0DD1002008BD094A93420AD0B0
:101FD00000684FF0FF324FF0FF3307F08DF9002813
:101FE000F1D00448F0E70448EEE76FF4E040EBE797
:101FF0002C5F5CA9E98FFFFFEA8FFFFF08B5D8B11E
:102000004368B3F5683F10D100220368BFF35B8FCC
:1020100053E8001F012903D143E800200028F7D12D
:10202000BFF35B8F0BD1002008BD074A934208D055
:10203000006807F0D3F9F6E76FF4E040F4E70348EF
:10204000F2E70348F0E700BF2C5F5CA9E98FFFFFD0
:10205000EA8FFFFF10B5044618B91D4B1D485B6899
:1020600098476368B3F5683F2FD0B3F5680F2CD05D
:10207000194A934219D1236803BB18484FF0FF3225
:102080004FF0FF33214607F03FF808B923681BB92A
:102090000F4B13485B6898472068142200210CF00E
:1020A0004CFD4FF46863636008E0B3F5680F0DD82A
:1020B0003A2B03D040F6BA629342DED120680CF08E
:1020C00077F9636843F03A03636010BD054AF3E7AC
:1020D000E8080020FFF600002C5F5CA9D41C00205B
:1020E00025F700003A00003A08B5064906484023A3
:1020F00014220CF0F1F8BDE808400449044808F047
:10210000D7BB00BFD4170020D41C002068F100000A
:102110007CF1000008B50348034A0021121A09F0B7
:10212000AAFE08BD500C00205C3300200748084A76
:10213000084908B5121A09F0A0FE0748074A0849DD
:10214000BDE80840121A09F098BE00BFC004002084
:10215000500C002000020100B8040020C004002040
:10216000F80101002DE9F047064600AF0C460029B2
:1021700036D0E9468AB0D1E90012A3686D462148FD
:10218000E8464FF0050ACDE90501CDE9072348F8F7
:1021900010AF1D48424600234FF42151FFF764FB66
:1021A000CD46D4E903126369AD461848C5F810A0BE
:1021B000C5E90501C5E907231348002342464FF44A
:1021C0002151FFF751FBCD46E369114A0E48012129
:1021D00009F0C0FDA3690F4A0B48012109F0BAFDBF
:1021E000012E07D1EFF305830B4A0748103B314618
:1021F00009F0B0FD2146304606F0C2FDBD46BDE8FF
:10220000F08700BF52F7000000F0000081F70000E7
:10221000B0F70000BFF70000EDF7000030BFFFF798
:10222000FDBF00BF2DE9F0410B4EDFF8308006EB1B
:102230000807CC1B05463246094920460CF06FFCC6
:10224000A01942460021083C0CF077FCAC6707F16E
:102250000800BDE8F08100BF000000000800000099
:1022600048F0000010B5204C2049214809F012FE2A
:10227000A36A990136D51E481E4909F00BFE1E209F
:10228000A36ADA0104D51A481B4909F003FE1F208E
:10229000154CA36A1B0304D51548184909F0FAFD2B
:1022A0002120A36A590304D51148154909F0F2FD0C
:1022B00022200D4CA36A9A0304D50D48114909F058
:1022C000E9FD2320A36ADB0304D509480E4909F080
:1022D000E1FD2420044A936A6FEA03436FEA134343
:1022E000936210BD1D20CBE700ED00E000F8000078
:1022F00000F0000018F800002BF8000045F800007E
:1023000063F8000088F80000A2F8000070B50646E7
:102310000D46284C2849294809F0BCFDA36AD90478
:102320003CD52648264909F0B5FD1720A36A1A05B1
:1023300004D52248234909F0ADFD18201D4CA36A9D
:102340009B0512D51D48204909F0A4FDA36BA26A84
:10235000100409D51D4A1948012109F0FBFC1EB1E2
:10236000A36A23F40043A3621920124CA36A5905FF
:1023700004D51248164909F08DFD1A20A36ADA0522
:102380000ED50E48134909F085FD1B20094A936AB2
:1023900043F47F43936200232B7070BD1620C5E782
:1023A000A36A9B04F2D505480B4909F073FD1C2074
:1023B000ECE700BF00ED00E0CDF8000000F0000009
:1023C000E3F80000F4F8000007F9000020F900002D
:1023D00035F9000050F9000068F900002DE9F843D4
:1023E000804689461746354D3549364809F052FD35
:1023F000AB6ADE0627D53449324809F04BFD11247B
:10240000AB6A1D0704D531492E4809F043FD12245B
:102410002A4DAB6A980718D52D492A4809F03AFD8C
:102420006E6BAB6A190646D52A4A26483346012107
:1024300009F090FCB9F1000F03D0AB6A23F08003E0
:10244000AB62132403E01024DAE76FF015061B4D8E
:10245000AB6ADA0704D520491A4809F01BFD142499
:10246000AB6A9B0604D51D49164809F013FD1524D7
:10247000124B9A6AD50602D49A6A90070AD55B680D
:10248000190507D54146304600F036FA10B180F301
:1024900009880224094B9A6A920642BF5A6A22F4BA
:1024A00000525A629A6A42F0FF029A6200233B701D
:1024B0002046BDE8F8836FF01506C2E700ED00E0A6
:1024C00097F9000000F00000ADF90000F4F80000FA
:1024D000E0F90000F8F900000EFA000068F90000C9
:1024E0002DE9F041684B8AB0D3F8048000AF044670
:1024F000C8F30806002585F31188BFF36F8F02F03B
:102500007F43B3F17F4F07D102F00C03082B12D1A8
:102510005E495F4809F0BEFC00252C460023FB7194
:10252000F31E092B00F28F80DFE803F00A85888113
:102530008D8D8D8D8D8B10074CBF0C460125EDE7E1
:1025400054495348504E09F0A5FC0023FB71F36A2F
:102550009A0705D550494E4809F09CFC00232DE010
:10256000F36A002B01DA4D49F5E7F36A5B00F5D514
:102570004B49474809F08EFC7369A26943F48073A4
:102580007361BFF34F8FBFF36F8F32F8023C7269F4
:1025900022F480727261BFF34F8FBFF36F8F03F429
:1025A0007F42B2F55F4F2BD1DBB2022B28D12368DB
:1025B0003C4A3748012109F0CDFB2368FA79DAB9A2
:1025C00007F1080604F1200C20686168324603C256
:1025D000083464451646F7D17A6A002D50D0C2F30C
:1025E000080121B96FEA52226FEA42227A6207F1AA
:1025F00008011846FFF7B6FD2837BD46BDE8F08153
:10260000214B9A6AD2B22AB1FA1D01212046FFF766
:10261000E5FE0EE09A6A12F47F4F04D0F91D012006
:10262000FFF774FE05E09B6AB3F5803F96D3FFF792
:1026300019FE0346C2E7FA1D0021E7E7F91D002055
:10264000EEE7194987E7194A194B18F4F87FE8466D
:102650008AB008BF13466A461649CDE905134FF400
:102660000073ADF82030103E134B079642F8103F30
:10267000074800234FF41151FFF7F6F8C5466DE700
:102680006FF30802B2E700BF00ED00E05BFA000064
:1026900000F0000086FA00009DFA0000BEFA00007B
:1026A000CCFA0000EBFA000007FB00002DFA000056
:1026B00042FA00002BFB000004000001044B5A69A1
:1026C00042F010025A615A6922F008025A617047BA
:1026D00000ED00E0EFF30880EFF3098101B57246E9
:1026E000FFF7FEFE01BD00BF002080F31488BFF39A
:1026F0006F8F0F4880F3088805F0D8FD00200D4942
:102700000860BFF34F8F00F02BF8402080F3118852
:1027100009484FF40461401880F30988EFF31480EE
:102720000221084380F31488BFF36F8F00F0B4F8E0
:102730004055002094ED00E0804300200749D1F887
:1027400090200023C2F307221846934200DB704713
:10275000C1F89830C1F8A0000133F6E700ED00E0C1
:1027600008B572B6002383F31388FFF7E7FF144B15
:102770004FF0FF32C3F88020C3F88420C3F88820CC
:10278000C3F88C20C3F89020C3F89420C3F8982095
:10279000C3F89C20C3F88021C3F88421C3F88821A2
:1027A000C3F88C21C3F89021C3F89421C3F8982171
:1027B000C3F89C2162B6BFF34F8FBFF36F8F08BD84
:1027C00000E100E01EF0040F0CBFEFF30880EFF310
:1027D0000980816911F8021C0229FFD001B57246F7
:1027E00009F04DFB01BD00BF40B2002807DB044AE1
:1027F0004109012300F01F00834042F82130704757
:1028000000E100E040B200280CDB4309064900F07B
:102810001F0020330122824041F82320BFF34F8F55
:10282000BFF36F8F704700BF00E100E0054B420926
:1028300000F01F0053F82220012303FA00F010409B
:10284000704700BF00E100E040B2D30754BF02313F
:1028500000210028ACBF00F16040074A4FEA411355
:10286000ACBF00F5614000F00F00DBB2B4BF135401
:1028700080F80033704700BF14ED00E0044B054AB8
:1028800023F07F039360BFF34F8FBFF36F8F7047C9
:102890000000000000ED00E008B5FFF7EFFF074A79
:1028A000D2F8883023F47003C2F88830FFF732FC86
:1028B000FFF73CFC00F0B0F806F088FB00ED00E00C
:1028C00042F8203C009B42F81C3C0A49019B42F81C
:1028D000183C029B42F8143C21F001014FF0807338
:1028E00042F8043C42F8081C0023203A0265C36702
:1028F000704700BF09110000094A0346906870B193
:1029000013F1160F806E05D0A0F14002934205D35B
:10291000834203D2814228BF0020704700207047C5
:102920003C23002008B515460B4A0C4B9060826F83
:102930001A600E4600F0A0F82C4686F309880020A5
:10294000034B98472046002100220023014C2047DA
:10295000ABBE0000091100003C230020F01C002049
:10296000014B10221A61704700ED00E0054B5A69D7
:102970009B689A421FBF044A536843F080535360D8
:10298000704700BF3C23002000ED00E0084B9B682F
:1029900083420BD1EFF3058343B1064B5A6842F0F3
:1029A00080525A605A6A22F400425A6207F00CBB05
:1029B0003C23002000ED00E014498A684FF030000D
:1029C0001044EFF3098C80E8F01F402080F3128858
:1029D000BFF36F8F0E4F4FF000664A698A603E600A
:1029E000906F0C4C2060D06F0023D36780F3118868
:1029F00004B5104600F040F8BDE8044002F1300094
:102A000090E8F01F8CF30988704700003C230020F9
:102A100004ED00E0F01C0020044800234021C2180F
:102A20000133302B82F80013F9D1704700E100E048
:102A300008B5EFF30583064A103B02EBC30152F8D9
:102A4000330049688847BDE80840FFF78FBF00BFE3
:102A500080ED00000148006870470000F01C002075
:102A6000024B034A0348012100F08AB80000042009
:102A7000000000208CF10000836E054A403B13608B
:102A8000044B4021C2E901131046012100F082B835
:102A9000F41C002000000B1508B503461048D0F8C0
:102AA0009020C2F30722013A934207D90D480E4AFB
:102AB000012109F04FF96FF0150008BDC0F89830FA
:102AC0000A6822F01F021A4342F01002C0F89C204C
:102AD0008A6842F00102C0F8A0201846EDE700BF66
:102AE00000ED00E0E0EF000042FB0000F0B50E4614
:102AF00085B01F4604460025B5420DDA606810B364
:102B000097B1431E18420AD0104A11482B460121A2
:102B100009F020F96FF01502104605B0F0BD1F282E
:102B2000F2D921680B42EFD12368019309F0E0F953
:102B3000A36801A90343D0B20393FFF7ADFF10F1DF
:102B4000160FE7D0421C01350C34D5E768FB0000B6
:102B5000E0EF0000044B0522C3F89420BFF34F8F31
:102B6000BFF36F8F704700BF00ED00E0BFF35F8FD2
:102B7000024B0022C3F89420704700BF00ED00E034
:102B800010B5034C01232278FFF7B0FF207010BD71
:102B9000F023002008B50B4A00231278FFF7A6FFA8
:102BA00010F1160F07D0084A0021D2F89030C3F375
:102BB0000723984200DB08BDC2F89800C2F8A010B5
:102BC0000130F2E7F023002000ED00E02DE9F043B2
:102BD0005D485E49D0F890300C68C3F307239C42EF
:102BE00085B000F2AE80FFF7C1FF49680022944231
:102BF00001F10C011AD1564F564D3C706846FFF753
:102C000043F9554C554E81464FF00008C14520D13F
:102C10003B784D490020D1F89020C2F3072293421F
:102C2000C0F28980FFF796FF002050E0C0F898209E
:102C300051F80C3C23F01F03134343F01003C0F87A
:102C40009C3051F8043C43F00103C0F8A03001323D
:102C5000CDE7009800EB08114FEA081CCB68234031
:102C6000B3F5000F49D00BD8B3F5001F32D0B3F540
:102C7000800F37D0B3F5801F14D008F10108C5E7E5
:102C8000B3F1007F42D0B3F1805F48D0B3F1807FD1
:102C9000F3D150F80C3088684A6809F029F940F0FF
:102CA000887009E050F80C3088684A6809F020F90B
:102CB00040F0885040F43020039001A93878CDE9E5
:102CC0000123FFF7E9FE002831DA6FF0150005B0A7
:102CD000BDE8F08350F80C3088684A6809F008F9BC
:102CE0003043E9E750F80C3088684A6809F000F989
:102CF00040F0C06040F40030DEE750F80C308868E7
:102D00004A6809F0F5F840F08270D5E750F80C30C9
:102D100088684A6809F0ECF840F48020CCE750F865
:102D20000C3088684A6809F0E3F82843C4E73B7828
:102D300001333B70A1E7C1F89830C1F8A00001331E
:102D400069E74FF0FF30C2E700ED00E098F10000C6
:102D5000F0230020000002110000F0FF0000081125
:102D6000F0B587B007460E4614460021102268468B
:102D70001D460BF0E2FE02238DF802302A46054B79
:102D8000019321466846CDE9047607F0A9FE07B015
:102D9000F0BD00BF11BF000008B5024B1B6898478B
:102DA000002008BD001D0020034B044A18609378E2
:102DB00043F0020393707047001D00204C06002072
:102DC00008B50649064821F00701C1F1005202F595
:102DD000802208F052FA002008BD00BF878E002034
:102DE000041D002070B54169867A0B4D044659B127
:102DF000437ADB0706D4242303FB0653DB691B68F5
:102E00009B689847002363612420214600FB0650FD
:102E1000BDE870400BF067BB740B0020024B24220E
:102E200002FB0030704700BF740B0020827A064B13
:102E3000242101FB02331A6A1B7D1B33801A23F005
:102E40000303B0FBF3F07047740B002038B5074B59
:102E5000827A242404FB0233DB69D3E901240C6069
:102E60001568FFF7E3FF04FB005038BD740B00202A
:102E70002DE9F04385B005466846039190461C460F
:102E80000BF087FDDDE90067EFF31189402383F341
:102E90001288BFF36F8F6B8A002B41D02A8A9A4227
:102EA00025D900220023284606F0E8FA0446F0B1AE
:102EB00089F31188BFF36F8F039B002B41D03246FB
:102EC0003B4668460BF08AFDA27A264B242101FB83
:102ED00002332046DB691B6803A91D68DDE9002376
:102EE000A847606170BB2046FFF77CFF24E0698A39
:102EF0004B1E6B8289F31188BFF36F8F2B7D2A8A5B
:102F00002C6A1B3323F00303521A02FB0344154BB4
:102F1000154AEB1A9B105343A3722B7DE372CBE748
:102F200089F31188BFF36F8F23464246284606F087
:102F3000A5FA04460028BFD10024204605B0BDE80C
:102F4000F0836361012300252381039B6382E27A7E
:102F50006560294604F118000BF0EFFD63692582D6
:102F6000E360EAE7740B0020398EE33870B50D4C4E
:102F7000242500B970BD037A4668002BFAD0013BC6
:102F8000DBB20372002BF5D1C3604360837A05FB8B
:102F900003439B6913B198473046EAE7FFF722FFE6
:102FA000FAE700BF740B00200B4B01224FF0805159
:102FB000C3F84025D1F83031082B4FF0804305D1BC
:102FC000D1F83411022908BFC3F838260122C3F80A
:102FD00080250020704700BF00E0014048B1054B4C
:102FE000054A1B68B3FBF2F35843044B43F001035B
:102FF00018477047D408002040420F00E0F000005E
:1030000008B5054A054B136010463F23536005F091
:1030100029FA002008BD00BF101D0020FFFF070097
:103020004FF08043D3F84036DB072ED54FF0102306
:10303000D3F8043303F00703072B26D1134A0123E7
:10304000C2F80435D2F80034002BFBD04FF0102129
:10305000D1F8043323F0070343F00403C1F8043329
:103060000023C2F80435094AD2F80034002BFBD003
:10307000BFF34F8F0649074BCA6802F4E06213435F
:10308000CB60BFF34F8F00BFFDE7704700E001400A
:1030900000ED00E00400FA052DE9F04190F8283039
:1030A00003F01F03012B04460F4600F128062FD022
:1030B000022B18D08BB394F82910204609F027F87A
:1030C000024678B3304609F00CF91D4D002834D182
:1030D00013693BB33A463146204698470346FFF70B
:1030E000B9FC2B5024E0818DC9B209F0F1FB0546F3
:1030F0000028E0D0304609F0F4F80246686883689A
:10310000CAB99B6873B13A463146BDE8F0411847E9
:10311000818DC9B209F0C3FBE9E790F8291009F0E5
:10312000FAFBE4E7FFF796FC054B6FF085021A50B7
:103130000020BDE8F081DB68E4E7D368C9E700BFA1
:103140000C0000002DE9F04F0B7E33F0800893B0A7
:1031500004460D46164640F08E847AB10846FFF7C5
:1031600005FF6B7EDF0703D49E0711D52B7E7BB94D
:10317000204613B0BDE8F04F09F0DFB84A7E00F1F9
:103180002809900708D5802B0CD12846FFF7EEFEC2
:10319000404613B0BDE8F08F910700F02784002B64
:1031A00040F02484D2072FD52B8A082B40F00684C8
:1031B000EA681368A3625368C9F8043029460020FE
:1031C00008F0BFFE054610B1FFF7D0FEEFE048461D
:1031D00009F087F8E28D70B9B2B12946A0690AF00A
:1031E00052F90146002800F02D84204613B0BDE8B6
:1031F000F04F09F016BD3AB11146204609F00CFD1A
:103200000546002800F01E84FFF724FC94F828806F
:10321000B14F002318F0600FC351C8F3411307D01A
:10322000032B40F0BD81FFF715FC6FF0850337E0FD
:10323000484609F056F894F82930002840F04E81AD
:10324000013B0A2BEFD801A252F823F0C333000050
:10325000273200004F34000027320000793200008E
:10326000273200002732000027320000E932000038
:10327000273200004B330000618D7F29D3D8A38D06
:10328000002BD0D1E38D002BCDD118F01F0FCAD168
:1032900094F83030022B05D1FFF7DCFB4FF0FF3301
:1032A0003B5076E0A069036993F880301B0707D58F
:1032B000C9B209F078F8804628B1002D6CD167E7D3
:1032C000012384F8393094F83030012B0AD1638D12
:1032D00043B984F83030FFF7BDFB3B58002B00F0BA
:1032E000858056E00123F4E7204608F06FFE628DEA
:1032F000FF2A014697D8E38D002B94D194F828300B
:10330000D80690D194F83030002BC5D02AB1D2B273
:10331000204609F0EAF90028BED0618D94F83830D3
:103320008B42D8D0C9B2204609F0E6F98046002881
:10333000C3D1628D002A14BF0223012384F83030E8
:103340000521204609F0F8FCC5E708F01F08B8F190
:10335000010F7FF468AFE38D002B7FF464AF628DC3
:10336000FF2A3FF660AFA18DFF293FF65CAF94F8CE
:103370003030022B90D1D2B2C9B2204609F0CFFB37
:1033800010F1020F804640F01081FFF763FB47F811
:10339000008065B14FF000082846FFF7E7FDB8F15F
:1033A000000F7FF4F5AEFFF755FB3B58F3B14846ED
:1033B00008F097FF0346A069002B00F04F8380219F
:1033C00055E3E38D002B7FF42EAF94F83030002BC3
:1033D0003FF462AF012BA18D02D100297FF45CAFD5
:1033E00018F01F080CD0B8F1020F16D0E38D002B97
:1033F00040F0D782204608F08AFF0028D7D1B7E6F0
:1034000000297FF449AF638D012BEFD194F86C3024
:1034100061F3C30384F86C30E8E7B4F82AA0BAF18A
:10342000000FE3D15FFA81F84146204609F06AFCBB
:103430000346FFF70FFB3B50013302D14FF0FF383B
:103440003BE752464146204608F051FF43E7E38DF3
:10345000002B7FF4E8AE628DA38D022A5FFA83FA17
:1034600011D108F01F085AEA08087FF4DCAEA06901
:103470000122190A08F074FF00287FF4D4AE01235A
:1034800084F8393027E794F8301000293FF404AF6E
:10349000012902D1002B7FF4FFAE18F01F0811D0D4
:1034A000B8F1020FA2D1002AA0D15146204609F05E
:1034B00014FC0346FFF7CEFA3B500133BED0012285
:1034C0005146C0E7002B7FF4E7AE012A8ED194F875
:1034D0006C3043F008039DE70C0000000A2B3FF618
:1034E000A2AE01A252F823F01535000027320000E9
:1034F0002732000027320000273200002732000068
:103500008F350000273200001F39000027320000ED
:1035100049390000E38D022B7FF485AE94F83030FA
:10352000002B3FF4B9AE012BA18D02D100297FF40D
:10353000B3AE18F01F0811D0B8F1020F1CD04FF035
:10354000000805F10C0A504608F0C3FEE38D9842CE
:1035500018D2FFF77FFA6FF00B03A1E600297FF482
:103560009BAE94F86C304FEA930808F00208C3F35E
:10357000001348EA0308E4E7C9B2204609F0D1FB8A
:103580008046DEE74146504608F0FEFCA3E6B4F86C
:103590002AA018F01F0F4FEA1A235FFA8AFA09D0FF
:1035A00029462046FFF778FD8046B8F1000F7FF4EA
:1035B00084AE90E6013B0E2B3FF635AE01A252F8E9
:1035C00023F000BF0136000041360000EB3600005A
:1035D0002732000027320000E3360000E336000007
:1035E0002732000027320000273200002732000077
:1035F0002732000027320000273200002D3800005B
:1036000005F10C08404608F064FE83462046B4F8F5
:103610002EA008F0DBFC20B101287FF404AE616F1E
:1036200000E0216F002900F02A820A78DA4528BFDD
:10363000DA46524528BF5246404608F094FC4AE616
:10364000204608F0C3FC0AF1010201900146D2B203
:10365000204609F024F8804600283FF4E4AD05F147
:103660000C0AD0F804B0504608F033FE9BF8002056
:10367000824228BF02465946504608F074FCD8F8EA
:103680000CB0BBF1000F09D1298AE38D99427FF676
:1036900022AEC91A504608F081FC1CE6DBF8040093
:1036A00083681B6B13B9DBF800B0EAE70199984710
:1036B0000028F8D0A0F1040858F8041F0029F2D01F
:1036C0000A78002AEFD05046CDE9022108F001FE29
:1036D000029A0399904238BF82B2504608F043FCE8
:1036E000EAE7204608F072FC9DE552460321204699
:1036F00008F04DFD824600283FF495AD08F0E4FD4A
:10370000B4F82EB09AF81530C8B99AF814808DF82C
:1037100028808DF82930DAF8103005F10C0A1B8862
:10372000ADF82A30504608F0D4FDC3455A4628BFAC
:103730004246824228BF02460AA950467DE7DAF88F
:1037400008208DF81530C14B1340C14A4FF00008D6
:1037500093428DF8148058D1102106A80AF0B9F8C8
:10376000021EFFF660AD0AA9102ADFF8E8E20DF1AB
:10377000180C084628BF1022424501F1020133D837
:10378000920002325FFA82F88DF81480034605F148
:103790000C0A5046029308F09CFDD845424628BFCB
:1037A0005A46904228BF104602288346804628BFCA
:1037B0004FF0020B5A46A8EB0B0805A9504608F03B
:1037C000D2FB4FEA58030193029B9B4603EB58023E
:1037D000934521D118F0010F3FF47DAD019A995C1A
:1037E000504608F0C9FB76E51CF8013B4FEA131A76
:1037F00003F00F031EF80AA01EF8033001F802AC14
:1038000001F8013C08F10108B6E79AF81480DAF8EB
:1038100010308DF81480BAE71BF8011B5046CDE933
:10382000023208F0B1FBDDE90232D1E7204608F0B0
:10383000CDFB38B101282CD0FFF70CF96FF08503D0
:103840003B5048E5236F002B00F019815B88B3F5EE
:10385000007FF1D9804B0A9300238DF82C30E36C64
:1038600004F14C0B9B4508BF0023BDF82A10A3B1FF
:103870005A7D0F2A08D11A7D0A44ADF82A209DF8F6
:103880002C2001328DF82C20226D934203D01B682E
:10389000EBE7636FD7E7BDF82A10019105F10C0A39
:1038A000504608F016FDB4F82E800199884528BFCF
:1038B0008846804528BF80464246052A28BF052203
:1038C0000AA95046019208F04EFB019AB8EB020893
:1038D0003FF401ADE36C5B453FF4FDAC002B3FF4DE
:1038E000FAAC5A7D0F2A14D11A7D19690193424509
:1038F00028BF4246504608F036FB019B1A7D4245E0
:1039000094BFA8EB0208A8EB0808B8F1000F3FF439
:10391000E2AC226D93423FF4DEAC1B68DEE794F824
:103920003030002B3FF4B8ACE38D012B7FF47BAC3F
:1039300005F10C08404608F0CCFC00283FF409AE25
:1039400094F8381040464CE708F01F08B8F1010F12
:103950007FF4A2AC204608F0B6FE00283FF49CACF1
:10396000B4F82CA0BAF1FF0F3FF65DAC43681B79A9
:103970005345FFF458AC5FFA8AF30F2B3FF653AC74
:10398000E38D012B7FF44FAC05F10C08404608F0A5
:10399000A0FC00283FF4DDAD04EB0A0393F83A10D5
:1039A000D0E7484608F09DFC18B92846FFF7DEFA34
:1039B00020E52946204609F034F908B1284603E4F9
:1039C000A069036993F8801011F004017FF4D0AB73
:1039D00009F06DFD054600283FF4E9AC014620469C
:1039E00009F01FF900283FF4C3ABE7E752077FF562
:1039F000DEAC002B3FF4C9AB2846FFF7B7FA94F8CA
:103A00003930002B3FF4C4AB94F82930052B05D195
:103A1000618DA069C9B208F0C6FC064694F8293049
:103A2000032B09D1638D022B06D1A18DA069002241
:103A3000090A08F095FC0646002384F83930B046A0
:103A4000FFF7A6BB6FF00B06B1E400BF00FF02005A
:103A500000030200C0010100050F0500E38D002BEB
:103A60003FF4ADAC16F10C0118BF0121C90109F0FA
:103A700044FCFFF77DBB6FF00408FFF789BB6FF0D4
:103A800015081AE40B78062B10B414D10369D3F887
:103A90009C20EFF31184402383F31288BFF36F8FD0
:103AA0004B6800201860506A58B9C2E9083384F3A3
:103AB0001188BFF36F8F044810BC002200230AF066
:103AC00068BC03605362F2E7180B00202DE9FF4148
:103AD00040264FF0FF335E484FF0FF3201A905F05A
:103AE000A7FB039B1B69D3F89C40236A93B1EFF3B8
:103AF000118286F31288BFF36F8F216A29B1606A41
:103B00000B682362814208BF636282F31188BFF3AE
:103B10006F8FC9B99DF80430062BDAD0072BD8D89F
:103B200001A252F823F000BF7B3B00006F3B000076
:103B30009B3B0000813B0000BF3B0000B53B000009
:103B4000D33A0000493C00000B7ED1F81E205D06F0
:103B5000204609D1FFF7F6FA02460028C5D0072112
:103B6000204609F0E9F8C0E708F0A9FEF4E70022D2
:103B70000121204609F0E0F8ABE700221146F8E702
:103B800094F86C3043F0040301A984F86C302046AB
:103B900008F031FC00220321EBE794F86C3023F0AD
:103BA000040301A984F86C30204608F024FC0022AC
:103BB0000221DEE701A9204608F01DFC89E794F800
:103BC0006C30A76923F0040384F86C30D7F80880C0
:103BD0003B69BFF35B8FD3F8A030BFF35B8F9A07CD
:103BE0002FD5D8F83C3038469847D8F824300021F3
:103BF00038469847D8F84030054638469847ADB91A
:103C00002946204608F078FD054678B9A06909F0F4
:103C10006DFC831E5842584194F86C3084F8305043
:103C200023F0680343EA401384F86C300022042137
:103C3000204609F081F8002D3FF44BAF2A460721BA
:103C400097E74FF0FF35F1E7029A062191E700BFB1
:103C5000180B002030B589B000220023CDE90623DF
:103C600000246FF00703CDE90334CDE901441A4B7A
:103C70001A4900944FF48062194805F025FF19494C
:103C800017480AF0E3FC184B18498B4207D3184B2E
:103C9000184900208B4210D3002009B030BD03F139
:103CA0001402BFF35B8F52E8000F42E80045002D7D
:103CB000F9D1BFF35B8F1833E7E703F11402BFF3C9
:103CC0005B8F52E8004F42E80005002DF9D1BFF3A9
:103CD0005B8F1833DEE700BFCD3A0000C03600200E
:103CE00048130020B8FB0000380C0020500C0020C6
:103CF000500C0020500C002038B5024609490546FA
:103D0000806909F059FC044648B985F8380028460E
:103D100008F0C8FB044610B1A86909F080FC2046F1
:103D200038BD00BF853A000070B5084C084E054606
:103D3000B44202D30024204670BD63682846196847
:103D4000FCF73BFB0028F6D01834F1E7380C0020D4
:103D5000500C002070B50646EFF31181402383F329
:103D60001288BFF36F8F1B4D2A6881F31188BFF350
:103D70006F8F526892F86C20D20705D4BDE870406E
:103D80002122002305F0E4BDEFF3118283F31288B2
:103D9000BFF36F8F2C682CB1696823682B608C424D
:103DA00008BF6B6082F31188BFF36F8F44B1606806
:103DB00004F10801C3699847074821460AF099FAB7
:103DC0002B6833B130460022BDE87040002305F077
:103DD0008BBD70BD181D0020480A002030B585B08D
:103DE000CDE90012054600221448002303A905F07E
:103DF0008BF90246E8B9039BDDE900015D600833F9
:103E000083E80300EFF31180402383F31288BFF3AC
:103E10006F8F039B1A600A4A516861B9C2E9003387
:103E200080F31188BFF36F8F06480022002305F04E
:103E30005BFD05B030BD0B605360F1E7480A002020
:103E4000181D0020C804002000B50346FEF702FE3E
:103E50000A4A11580A4AD2F8882091420CD11B69AB
:103E600093F8400030B1DA6B9388918910695B1A3E
:103E70009BB2C01A5DF804FB0020FBE708000000BD
:103E8000D013002000B5084A0346FEF7E3FDD2F840
:103E90008810064A125891420ABF1B69002093F805
:103EA00038005DF804FB00BFD013002008000000BC
:103EB00000B50B4A0346FEF7CDFDD2F88810094A3B
:103EC0001258914207D11B6993F840202AB993F800
:103ED00038005DF804FB0020FBE70120F9E700BF94
:103EE000D01300200800000038B50346FEF7B2FDED
:103EF000084C094DD4F888402858844208D11C69E0
:103F0000606B07F057FE10B1012384F8393038BDDB
:103F10000020FCE7D01300200800000010B5046961
:103F2000606B4289C3889A4202D14FF0FF3010BDC6
:103F3000012207F03FFE0028F7D0034804F1780182
:103F40000AF04FFB0020F2E7D013002038B50346FB
:103F5000FEF780FD0E4C0F4DD4F88840285884425F
:103F600013D11C69EFF31185402383F31288BFF34B
:103F70006F8FE06B07F0FEFD85F31188BFF36F8F45
:103F800010B1012384F8413038BD0020FCE700BFA8
:103F9000D01300200800000038B54B78046945684C
:103FA0002069202B08D0222B19D0FEF753FD114B8E
:103FB0006FF085021A5010E0CB88072BF5D1D3683B
:103FC0001A6842609A8802819B79837208F0D5FE54
:103FD00022460821284608F0BDFE002038BD4B8847
:103FE0008381C3F3400203F0010302764376224645
:103FF0000921EFE70C00000013B50A4800240AF07D
:1040000000FB0949074800944FF0FF334FF4C062AA
:1040100005F000FC054903480AF018FB204602B0F1
:1040200010BD00BFD0130020003B0020BDFB0000EE
:1040300008B513464A78212A14D133B9FEF70AFD90
:104040000B4B6FF00B021A500AE0CA88016909692C
:10405000072A28BF0722043103F10C0007F083FF71
:10406000002008BDFEF7F6FC014B6FF08502EAE781
:104070000C00000073B504698DF807104025EFF3BC
:10408000118685F31288BFF36F8F0122E06B0DF16B
:10409000070107F06FFD86F31188BFF36F8F0128CA
:1040A00010D00AF0CDFAB0B10F4BBFF35B8F0122F5
:1040B00053E8001F002903D143E800200028F7D16E
:1040C000BFF35B8F2122002304F14801074805F06C
:1040D000E1FB02B070BDA37E002BE5D000212120C2
:1040E0000AF075FBCBE700BF201D0020D013002095
:1040F00038B505690E49EB6B0024C3E90144DC6067
:104100006B6B05F14800C3E90144DC600AF07FFAFB
:1041100005F1780007490AF048FA074905F124003B
:104120000AF043FA284608F028FE204638BD00BFB2
:104130003D410000094300009D4300002DE9F04788
:1041400050F8483C00F140055B68064600212846CF
:10415000D3F8009008F04DFE002854D001212846E5
:1041600008F047FE074600284DD1BFF35B8F55E8A6
:10417000003F43F0200245E800210029F7D1BFF3BA
:104180005B8F9B063FD4D9F8103020485B689B6852
:10419000002293F83680002307F0CBFE044658B97E
:1041A0002846052108F058FE31461948BDE8F04779
:1041B0002122002305F06EBB824680F818805AF851
:1041C0000C1F428A56F80C0C07F0F4FC804601469E
:1041D000504607F0C2FEB8F1000F04D008F03F08C7
:1041E000B8FA88F77F0906F82D7C2146484608F082
:1041F00059FD40B12046FEF7B9FE28460521BDE82D
:10420000F04708F029BEBDE8F08700BF740B00201E
:10421000D0130020F8B50D46016947680C6949685C
:104220002B7E8968064691F83D102AB3994204D145
:10423000042104F1880008F00FFE33692A7E5B68D0
:104240009B6893F836309A4204D1052104F1880026
:1042500008F002FE33692A7E5B689B6893F826307B
:104260009A4203D104F18C0005F094F929463846AE
:10427000BDE8F84008F02EBD994216D12A8AE968B7
:10428000606B07F077FC30B1E36923B11D4804F19E
:1042900024010AF0A6F9042104F1880008F0DCFDED
:1042A000184804F178010AF09CF933692A7E5B68AA
:1042B0009B6893F836309A4217D1E36923B11148CD
:1042C00004F124010AF08DF9052104F1880008F0B9
:1042D000C3FDE36B5A89DB889A4206D00948002265
:1042E000002304F1480105F0D5FA33692A7E5B68A2
:1042F0009B6893F826309A42B8D104F18C0005F0FF
:10430000EFF8B3E7D013002070B550F8783C5B6845
:104310001D6800F1100302460021184608F069FDEF
:10432000002838D00121184608F063FD98BB52F8E8
:10433000441C8A8888890969121A92B28A1A3F2A0B
:1043400029D9BFF35B8F53E8002F42F0100143E8F7
:1043500000100028F7D1BFF35B8FD3061BD42B6965
:104360000D485B689B68002293F83D60002307F0CE
:10437000E0FD044678B1438A0676402B28BF4023EF
:1043800043820146284608F08DFC20B12046BDE856
:104390007040FEF7EBBD70BD740B002038B550F8CF
:1043A000083C0446002B53D050F8243C5B6800F1D5
:1043B00064051A680023838283830221284608F05B
:1043C00018FDC8B154E9023110699847637D23B1E3
:1043D000204804F154010AF004F90521284608F0A8
:1043E00008FDA0B9637F73B10022002304F124010A
:1043F000184805F04FFA0AE00321284608F0F9FCB6
:104400000028DFD1E2E714F8093C002BECD10221AF
:10441000284608F0EEFC40B123695A89DB889A42AD
:1044200003D00C4821460AF0DCF80321284608F0A6
:10443000E0FC68B1A2699388918912695B1A9BB20A
:104440009A4205D021460348BDE838400AF0C9B871
:1044500038BD00BFD013002008B50346FEF7FAFAB6
:10446000164A1158164AD2F88820914223D11B6966
:1044700003F188020221104608F0BBFC28B1596BF9
:104480004889C988401A18BF012083F838000321E1
:10449000104608F0AEFC60B1D96B8A88888909693A
:1044A000121A92B2914204D0012283F840200120D6
:1044B00008BD0022F9E70020FAE700BF080000006D
:1044C000D01300200169BFF35B8F01F1880353E82B
:1044D000000F40F0080043E80002002AF7D1BFF3C4
:1044E0005B8FCA6B9388908912691B1A9BB29A42A0
:1044F00003D0024824310AF074B87047D01300206A
:1045000038B50469BFF35B8F04F1880555E8003FB7
:1045100043F0040345E80032002AF7D1BFF35B8F74
:10452000636B5A89DB889A4204D0094804F124015C
:104530000AF057F80421284608F05BFC30B904F172
:1045400078010348BDE838400AF04BB838BD00BFD9
:10455000D013002070B503691C69BFF35B8F04F1B1
:10456000880555E8002F42F0010245E800210029A6
:10457000F7D1BFF35B8F0221284608F03AFC10B157
:104580001846FFF7BDFFE36BDA885B899A420BD1CF
:104590000321284608F02DFC78B104F124010748D6
:1045A000BDE870400AF01DB804F148010348BDE8B9
:1045B00070400022002305F06DB970BDD0130020BB
:1045C000F8B5036900AF0C4603F1A005BFF35B8F9C
:1045D000D3F8A030BFF35B8FC3F38003994218D1A7
:1045E000184A194B6E4688B0002918BF13466A4610
:1045F0001649CDE905134FF40073ADF81C30144B88
:1046000042F8103F134800234FF4E451FDF72CF912
:10461000B546BFF35B8F5CB155E8003F43F0040340
:1046200045E80032002AF7D1BFF35B8FBD46F8BDE5
:1046300055E8003F23F0040345E80032002AF3D098
:10464000F6E700BF1CFD0000DFFB0000E6FB0000FA
:104650000300000128F000002DE9F0470546D0F8DE
:1046600008A0894690461F4608F0F6FC0446C0B1F3
:10467000067DF30709D5037E1648174A012107F086
:1046800069FB6FF07700BDE8F0873B46424649463C
:1046900008F09CFC40B9237E104A0E48012107F027
:1046A00059FB6FF01200EEE79DF8203084F8198076
:1046B00026F00606678323772675DAF81830214638
:1046C00028469847227DB0FA80F35B0963F3000225
:1046D0002275D8E728F00000F8FB000012FC00006B
:1046E00070B50546866808F0B7FC0446D0B1037D76
:1046F000DB0708D4037E0D480D4A012107F02AFB91
:104700006FF0770070BD0146F3692846984738B1CD
:10471000237D03F00103227D63F300022275F1E79C
:104720000346F8E76FF01200ECE700BF28F0000046
:1047300034FC0000F8B587680546FB6B0C469847CB
:10474000286908F077FCD0B12146284608F084FC9F
:104750000646B8B1037D9B0705D0037E0B4A0C4883
:10476000032107F0F7FA346824B1BB6831462846C4
:104770009847044628463B6C98472046F8BD4FF0C2
:10478000FF34F7E76FF01204F4E700BF4FFC0000BE
:1047900028F000002DE9F341D0F808801746D8F83A
:1047A0003C3005460E4698470C4800220023394607
:1047B000FEF75EFB044670B9094A0A4800963B467C
:1047C000012107F0D1FA2846D8F840309847204612
:1047D00002B0BDE8F0810676F5E700BF980B002037
:1047E00070FC000028F0000010F0080F0B4B42B2E4
:1047F0000CD100F00F00002A4FF0140202FB00332E
:10480000B4BFD3F80806D3F808077047002AB4BF2E
:10481000D3F8A806D3F8A807704700BF007002407D
:10482000F8B50246EFF31181402383F31288BFF3FA
:104830006F8F00F0080508F02BFF01248440570615
:104840006FEA04061BD0D5B9174F3B6823FA00F076
:10485000C00714D533403B6053B2DB4322F08000E5
:10486000DB0F00F2DA301B0103EB40030F48C0F806
:104870000038D0F8043843F00203C0F804380C487C
:1048800003683340036035B90A480368120654BF11
:10489000334023430360054BC3F86C4481F3118814
:1048A000BFF36F8FF8BD00BFFC1D002000700240F9
:1048B000001E0020041E0020EFF31180402383F32C
:1048C0001288BFF36F8F0A4BD3F8001C032261B923
:1048D00049F27531C3F8001CC3F8142DC3F8001C4D
:1048E00080F31188BFF36F8F7047C3F8142DF7E77B
:1048F00000E00640EFF31180402383F31288BFF3FA
:104900006F8F0A4BD3F8001C61B949F27532C3F8B6
:10491000002CC3F8141DC3F8002C80F31188BFF3DA
:104920006F8F70470022C3F8142DF6E700E00640B1
:1049300070B5024608F0ACFEEFF31185402383F317
:104940001288BFF36F8F531E0124062B04FA00F464
:104950000FD80E4E0E4B31681B680B43C34013F04B
:10496000010306D10B4802F59472214340F822302E
:104970003160094A136823431360084B8022C3F84F
:10498000042185F31188BFF36F8F70BDFC1D0020DB
:10499000041E002000700240001E002000E100E024
:1049A000F8B50306044623D410F0080720D100F020
:1049B0000F02920002F1804202F51C32D2F8443418
:1049C000B3B1EFF31186402383F31288BFF36F8FE7
:1049D00008F05EFE084DC2F8A074012303FA00F14E
:1049E0002B6823EA01032B6086F31188BFF36F8FD6
:1049F000024BC3F81845F8BD041E002000700240A9
:104A000010B591F91800154B0A7E0028B4BFD3F8F1
:104A10001045D3F8144502F00F02012393402342BE
:104A20000DD10E4A0028B5BFD2F81005D2F81405F2
:104A300003430343B4BFC2F81035C2F814350B7EEC
:104A40001A0709D4054AC2F80C3543F48073C2F83A
:104A50000C35087EFFF7A4FF002010BD0070024057
:104A60000B7E064A13F07F0F0BBF012343F48073C4
:104A70005365C2F818350020704700BF007002402F
:104A800070B506460D4608F0E7FA044608F0EDFA60
:104A900028BB204608F00CFB08B3802D16D1437EBE
:104AA0009A0744BF0E4A15705B070FD50D4B1B7854
:104AB00013B90D4B01221A65204608F0F5FA0022C1
:104AC00001463046BDE8704008F00BBB2846FFF7B2
:104AD0002FFF20460121BDE8704008F0CABA70BD22
:104AE000F3230020F82300200070024070B5064632
:104AF0000C4608F0B1FA054608F0B7FA20BB284684
:104B000008F0D6FA0146F8B1ACB9437ED8071BD4F9
:104B10009A0704D50D4B1C700D4B0122DA644B7EB5
:104B20005B0708D50B4B1B7873B130460022BDE8FC
:104B3000704008F0D6BA2046FFF7FAFE2846012159
:104B4000BDE8704008F095BA70BD00BFF3230020A7
:104B500000700240F923002008B5054A05480321EA
:104B600008F09EFD09F096FA03F0C0FF002008BD92
:104B70009EFC000030F0000010B54468206801F091
:104B8000D3F8104B1860104B1B782BB10F4B002241
:104B90001868114608F099FA002201212720FDF734
:104BA00053FE201D03F070FF04F1080003F0AAFF7C
:104BB00009F069FA064A0748032108F071FD002050
:104BC00010BD00BFB41D0020F5230020081E0020EA
:104BD000A7FC000030F00000012810B503461AD0F1
:104BE00002280AD000BB144B02460146186808F0A0
:104BF0006CFA124B01221A700CE0114B114C00227E
:104C00001A70114BC4F800332720FDF7EDFD012386
:104C1000C4F8043510BD084B00220146186808F09E
:104C200054FA064B0022E6E7084A0948BDE810405E
:104C3000012107F08FB800BF081E0020F5230020D7
:104C4000F423002000700240FDFFDF01B3FC0000F0
:104C500030F000000146014809F04FBF600B002012
:104C600008B5054B1970054B1B7813B10420FFF7ED
:104C7000F1FF002008BD00BFF6230020F72300202D
:104C800010B50469087E0D4A08F002FD012303FAFD
:104C900000F013680343136005F0CCF84020FFF7E1
:104CA000D9FF4FF0FF324FF0FF3304F18401044885
:104CB00004F08EFE05F0D2F8002010BDF81D002093
:104CC0006C0B00202DE9F043064689B007694D4A78
:104CD0004D48032108F0E4FC4C4B1E6007F18400B2
:104CE00009F066FB00220023CDE9062300246FF0C3
:104CF0000703CDE90334CDE90144454B454900960E
:104D00004FF40072444804F0DFFEDFF8108144499C
:104D1000414809F09BFCD8F81020424B134043F463
:104D2000820343F04003C8F81030C14688F81840A9
:104D30004146304608F0A2F93B4B3C4A054678B163
:104D40003B4A3148012108F0ABFC284609B0BDE8D8
:104D5000F083016919401143016108F12008E5E77A
:104D60000134092C10D009EB4410082C817C41F04F
:104D700040018174EDD1D9F810112E4808402E4918
:104D80000143C9F81011E8E72C4C2D4B2269134060
:104D900043F4041343F0400323618046A14668F0C6
:104DA0007F0121763046214608F068F91E4B1F4AE4
:104DB00005460028C4D108F10108B8F1090F17D041
:104DC00009EB4810B8F1080F817C41F02001817493
:104DD00008D1D9F810111748084017490143C9F8FC
:104DE000101103E001691940114301612034D6E735
:104DF00097F8803023F0720343F0720387F8803015
:104E0000A3E700BFCAFC000030F00000081E00202D
:104E1000ED4E000040410020781400202C1F00209F
:104E2000D2FC00000000BEFF0000F9FF40000600B9
:104E3000DBFC00000000F7FFFF0108000C1E002053
:104E40000000DEFF10B50C462046114608F032F98E
:104E5000207E08F01DFC0146034808F023FC0120D9
:104E6000FFF7F8FE002010BD5020002008B5064ACC
:104E70000B7EC2F80C3543F48073C2F80C35087E03
:104E8000FFF78EFD002008BD0070024010B50C7EBB
:104E90004FF0FF324FF0FF33114804F055FB20462E
:104EA000FFF7BEFC04F00F02012393400D4A14F0FB
:104EB000800F14BFD2F81015D2F814156FEA03034F
:104EC00015BF0B400B40C2F81035C2F8143504482A
:104ED00004F006FB044B8022C3F80421002010BD1F
:104EE000400B00200070024000E100E02DE9F04F8F
:104EF000BF4D85B004464FF0FF384FF0FF39002218
:104F0000CDE900894FF0FF31BA4809F0FDFDB948FD
:104F10004FF0FF3109F0F4FD0746380733D5B64AA4
:104F2000B648032108F0BCFBB54842464B4604F0A6
:104F30000BFBEFF31182402383F31288BFF36F8FD3
:104F4000B04B1B787BB1D5F8003413F400730AD151
:104F50000121C5F82C15D5F82C15D5F800148905B4
:104F600048BFC5F82C3582F31188BFF36F8FA44872
:104F700004F0B6FA01212046FFF722FB00220321AC
:104F8000204608F0A2F8FE060DD59F4A9B48032153
:104F900008F086FB00212046FFF712FB00220221C9
:104FA000204608F092F8B8060DD5984A9348032198
:104FB00008F076FB00212046FFF702FB00220221C9
:104FC000204608F082F8B90761D4FA0710D5BFF37C
:104FD0005B8F8F4B002253E8008F43E800210029AC
:104FE000F9D1BFF35B8F0126B8F1000F40F0C0800C
:104FF000790734D5874B4FF0000C83F800C0D5F803
:105000008004C0B28DF80800D5F88414C9B28DF8B8
:105010000910D5F88834D5F88C2443EA02239BB2D2
:10502000ADF80A30D5F89024D5F8946442EA062207
:10503000ADF80C20D5F89824D5F89C6442EA0622F5
:1050400092B2754EADF80E20002840F0AA800529D6
:1050500040F0A78001213170002A00F0AE807B066D
:105060007FF549AF206984304FF0FF324FF0FF33B6
:1050700004F042F9694E3168002940F0DD8068484B
:1050800004F06CFC2069843004F0A8F933E7654B28
:10509000BFF35B8F002253E8008F43E80021002913
:1050A000F9D1BFF35B8F4FF0010AB8F1000F8CD03C
:1050B00098FAA8F3B3FA83F30F2B1E46C6BFA3F1E9
:1050C0001006F6B246F080060AFA03F328EA03084F
:1050D0003306314620462FD507F0BEFF834607F042
:1050E000E3FF814650B9504A44483346012106F057
:1050F00031FE31462046FFF7C3FCD6E70021584673
:1051000007F0B7FF00224946204607F0EAFF802E4D
:10511000EFD1404B002183F800A02046C5F850A0F5
:1051200007F09AFF07F0C0FF01460028E1D00022F7
:10513000204607F0D6FFDCE707F08EFF834607F036
:10514000B3FF814650B9394A2C483346012106F055
:1051500001FE31462046FFF7C9FCA6E7584600216C
:1051600007F087FF00224946204607F0BAFFF0E724
:1051700098FAA8F3B3FA83F30F2B1946C6BFA3F12D
:105180001001C9B241F0800106FA03F30A0628EAC9
:105190000308204602D5FFF773FC25E7FFF7A6FCBE
:1051A00022E7234A86F800C0D5F8703412789A4274
:1051B0000AD1204B00221A7014E003F07F03ADF8EF
:1051C0000A30ADF80C20F4E71A4A0123137033704B
:1051D0004FF4A063ADF80830D5F87034ADF80A305C
:1051E000CDF80CC002A9204607F0A2FF37E700BFA8
:1051F00000700240600B0020F7FC000030F000005F
:10520000400B0020F42300200EFD000024FD0000D0
:1052100050200020F9230020F8230020F81D002052
:105220006C0B00204C2000203CFD000055FD0000D0
:10523000F6230020F723002091FAA1F7B7FA87F7A9
:105240000F2F3946C6BFA7F11001C9B241F0800146
:10525000204607F001FF804690F818904FF0FF328B
:105260004FF0FF33134804F06FF94846FFF7D8FAC0
:10527000104804F035F9104B8022C3F80421414650
:10528000204607F046FF0021404607F0F2FEBFF33C
:105290005B8F0123BB40094ADB4352E8000F1840F3
:1052A00042E800010029F8D1BFF35B8F3268134058
:1052B0003360E0E6400B002000E100E04C200020DD
:1052C0004FF08053D3F83031082B02BF024B00223D
:1052D000C3F81C2C704700BF007002402DE9F0415C
:1052E00005464FF0FF324FF0FF33414804F02CF9F0
:1052F000404B8022C3F884212720FDF797FAA8B1FC
:105300003D4F3E4B3C681B686FF30F041C434FF04E
:105310000108002C37D13A4E40F2FF133B602720A2
:10532000C6F80445FDF76EFAC6F80043354A13780F
:105330008BB1334B0021C3F808110121C3F80026BB
:10534000C3F804165960D3F808110029FBD00021D6
:10535000C3F8081111702A4B0024C3F80045FFF769
:10536000AFFF234804F0BCF821462846FFF7B8F900
:10537000F0B1254A2548012108F092F96FF00405A3
:105380002846BDE8F08194FAA4F6B6FA86F60F2E08
:105390003346C6BFA6F11003D8B243F0800003071E
:1053A00001D4FFF73DFA08FA06F624EA0604B0E74E
:1053B00028468021FFF794F905460028D9D1144BDF
:1053C00014491E68304606F04DFB10F1780F044674
:1053D00003D1304606F022FB0446002CD0DA0E4AF8
:1053E0000A482346012106F0B5FC2546C8E700BF60
:1053F000400B002000E100E0041E0020001E002001
:1054000000700240F123002072FD000030F0000027
:10541000B41D0020A41D002095FD00002DE9F04FD3
:10542000AD4BDFF8B8A2D3F85421AD4F87B00AB323
:105430000022C3F85421D3F8042391021AD5D3F8DB
:10544000C034002B14BF4FF001224FF48072A54BE3
:105450009B683BB99AF8000008F01AF901238340D1
:1054600022EA03023B6813439F4A3B60136823F020
:1054700001231360984BD3F8604134B10022C3F884
:105480006021D3F86C44C3F86C44D3F828214AB1A6
:105490000022C3F82821954B187808F0F9F8012369
:1054A00083401C439AF800509AF900802A0700F1C3
:1054B0000B81B8F1000FB4BF8D4B8E4B05F00F027E
:1054C000920013441A684AB300221A602846FFF774
:1054D0008BF9894B1A7800F0010050401870FFF7E3
:1054E000EFFE864B28461A6808F0D2F8C240D30770
:1054F000064600F12381B8F1000F80F20F81882D5C
:1055000000F00C81784A01231168B3400B4313600B
:1055100081238AF80030734803F0E2FF8CB13B68C6
:10552000714ADFF8DC9124F001210B433B601368E2
:1055300023EA01031360A4B24FF00108002C40F0ED
:105540000381654BD3F800217AB10024C3F80041F0
:105550006C4B1C706C4A6D48032108F0A1F8684B35
:1055600022461868042107F0B0FD5B4BD3F85821A0
:105570002AB30022C3F85821D3F80044C3F80044EA
:10558000E00505D55F4B012208201A70FFF762FB8A
:10559000A10505D55B4B002210201A70FFF75AFBBE
:1055A00062050CD5574B1A784AB100221A704A4B43
:1055B0000122C3F8082520209A65FFF74BFB464BD4
:1055C000DFF838B1D3F85C31F3B1464B9B681BB9B7
:1055D0009AF800305B0617D03F4B0022C3F85C21DD
:1055E000DBF80030404A23F00113CBF800303B6871
:1055F00023F4803343F001033B601368042023F05D
:1056000001131360FFF726FBDBF800403B681C40EA
:1056100000F03381304BD3F82C95B9F1000F40F0F6
:105620002C8130480022002303F08EFF002840F038
:10563000248114F001230CBF94FAA4F393FAA3F38A
:10564000B3FA83F30293029B9DF808400F2BC8BF67
:10565000103C2B4BCCBFE4B244F0800418682146C8
:1056600007F0FAFC039007F023FD63B2049304F003
:105670000803059363B2002B064680F29C80039BCF
:10568000058A5B8BD0F80C80C3F30A039D4240F27D
:105690008C801D46002608F06043B3F1005F06D001
:1056A00041461B48DFF868802A4609F038FA002E88
:1056B00000F0B380029B01229A40DBF8003023EA1D
:1056C0000203CBF80030A8E0124B134A33EA280358
:1056D00028BF1346F6E600BF00700240F223002008
:1056E000041E0020400B0020FC1D0020F32300209E
:1056F0000871024030710240F1230020001E00209A
:10570000081E0020F4230020ACFD000030F0000053
:10571000B81D0020507102402C7102406348314690
:1057200007F0C0FF0220FFF795FAB8F1000FFFF66F
:10573000E9AE013D062D7FF6E5AEE9E6002DF4D198
:105740005B4B0122DA64E3E694FAA4F5B5FA85F539
:1057500008FA05F345F080052946D9F8000024EA47
:10576000030407F079FC07F0A3FC06462846FFF780
:105770003BF8014606F10C0006F017FC338A002BBB
:105780007FF4DCAE304607F097FC18B1304607F0E6
:1057900097FCD3E6284607F07BFF0146434807F015
:1057A00081FF0220FFF756FAC8E607F085FC80F07B
:1057B0000106F6B26FE704F008023D4B002A5FD005
:1057C000D3F8C03413F4803F08BF9946328AF36897
:1057D000758A03EB0208AD1A72699B1AED1A4D45E2
:1057E00053D2344A344800954B46012106F0BCFAA6
:1057F000294606F10C0006F0B0FB039B5B8BC3F35C
:105800000A034B457FF456AFF2687169738A521AE6
:105810009B1A328A93423FF44DAF4FF080530121DF
:10582000D3F83031082B02BF214B8222C3F81C2C45
:10583000029B3A688AF8004001FA03F322EA030265
:105840003A6004F008021A4B0ABB049A04F00F04F1
:10585000002A4FF0140202FB0432A9BF0A3403EB02
:105860008403C2F80087C2F80457AFBF43F824107E
:10587000C2F80086C2F80456596007B0BDE8F08F40
:1058800004F5947253F82290A0E74D46B0E7049ACD
:10589000002AB5BFC3F8A086C3F8A087C3F8A456F2
:1058A000C3F8A457B4BF59629964E6E74C200020BE
:1058B00000700240B2FD000030F0000010B5EFF3C0
:1058C0001184402383F31288BFF36F8F164B1B782C
:1058D00003F0FF02CBB11549D1F82C3513B30023E7
:1058E000C1F82C354FF08053D3F83031082B0CD150
:1058F0000F4BD3F8000CC02188B949F27530C3F8BA
:10590000000CC3F8141CC3F8000C84F31188BFF317
:105910006F8F002A0CBF6FF00A00002010BDC3F883
:10592000141CF2E71A46F0E7F4230020007002404E
:1059300000E0064073B50022009211464023044661
:10594000FEF78AFE024648B1604A6148012107F02D
:10595000A7FE6FF00404204602B070BD0090402303
:1059600020468021FEF778FE04460028ECD15949F4
:10597000594B4860C860012618688E6006F003F82D
:10598000051E07DA554A52482B46314606F0E2F921
:105990002C46E0E7EFF31185402383F31288BFF331
:1059A0006F8F4F4B4FF40062C3F8002407F062FE84
:1059B00008B1FEF781FF4FF08053D3F83031082B48
:1059C00018D1EFF31180402383F31288BFF36F8F58
:1059D000444BD3F8001CC022002970D149F2753124
:1059E000C3F8001CC3F8142CC3F8001C80F3118802
:1059F000BFF36F8F3A4B0122C3F80025D3F8002480
:105A00001205FBD54FF40062C3F800244FF0805319
:105A1000D3F83031082B17D1EFF31180402383F3F3
:105A20001288BFF36F8F2F4BD3F8001C002949D188
:105A300049F27532C3F8002CC3F8141CC3F8002CCB
:105A400080F31188BFF36F8F07F014FE30B1FEF7BB
:105A500051FF07F00FFE08B1FEF72EFF4FF0805305
:105A6000D3F83031082B1E4B0AD140F2E372C3F851
:105A700000284022C3F80428BFF36F8FBFF34F8F75
:105A80008022C3F81C250122C3F83025164B40F2B2
:105A9000FF121A60154B00211960154B1960154B48
:105AA0001970FFF70DFC144B197007F0E3FD08B1F6
:105AB000FEF720FF85F31188BFF36F8F4BE7C3F824
:105AC000142C93E70022C3F8142CB9E7D1FD000091
:105AD00030F00000A41D0020B41D0020F3FD0000E4
