:040000050800198551
:020000040800F2
:10000000183E002085190008C55100087119000824
:100010007119000871190008711900087119000898
:10002000000000000000000000000000511A00085D
:100030007119000800000000D11B0008A928000861
:10004000491C0008491C0008491C0008491C0008FC
:10005000491C0008491C0008491C0008491C0008EC
:10006000491C0008491C0008491C0008491C0008DC
:10007000491C0008491C0008491C0008491C0008CC
:10008000491C0008491C0008491C0008491C0008BC
:10009000491C0008491C0008491C0008491C0008AC
:1000A000491C0008491C0008491C0008491C00089C
:1000B000491C0008491C0008491C0008491C00088C
:1000C000491C0008491C0008491C0008491C00087C
:1000D000491C0008491C0008491C0008491C00086C
:1000E000491C0008491C0008491C0008491C00085C
:1000F000491C0008491C0008491C0008491C00084C
:10010000491C0008491C0008491C0008491C00083B
:10011000491C0008491C0008491C0008491C00082B
:10012000491C0008491C0008491C0008491C00081B
:10013000491C0008491C0008491C0008491C00080B
:10014000491C0008491C0008491C0008491C0008FB
:10015000491C0008491C0008491C0008491C0008EB
:10016000491C0008491C0008491C000830B585B02E
:1001700003F0A2FC01A800F08BFC164B1B68834225
:1001800004D04521144804F06CFFFEE769469DF851
:10019000080000F029F8044608B105F05BF8009A61
:1001A000039B0E4D1344019A128913442B6005F0F2
:1001B00075FB01F073F901F013FC84F30B8884F3F1
:1001C0000A88074B286898474521064804F049FFEC
:1001D000FEE700BFE40500209666000860020020EC
:1001E00001000020B9660008024608B538B106488B
:1001F0000023452104F035FF6FF0150008BD4FF0D6
:1002000000630B60FAE700BFDC66000821B101293A
:1002100006D06FF015007047044B53F8300070475C
:10022000024B03EBC0035868704700BF38630008F7
:100230002DE9F04FB7B0429FDFF864810DF1380B24
:10024000D8F800500397419FCDF804B00297409F23
:10025000814600978A461446439E03F02EFC28B13F
:10026000D8F80050284637B0BDE8F08F56B15A464E
:1002700016AF134603CBBB42306071601A4606F1DD
:100280000806F6D12146484603F098FE00230D905B
:10029000009322464FF6FF73514607A803F049FC2E
:1002A00007460028DCD1DDE90C32214648469E1A7B
:1002B00003F071FDB042D3D34FF0FF36DFF8E49086
:1002C000DFF8E4A00DF1160305AA06A907A803F0BC
:1002D00080FC0028C4DB5ED1069907A803F0C4FCAB
:1002E000BDF8163040B94FF6FF70304931F8022B97
:1002F0008242B5D09A42F9D1102B15D0222B2AD0A8
:10030000012BDFD1BDF81430202BA9D82046069947
:1003100016AA04F0C1FE0028A2D19DF8141016A858
:1003200000F046F80646CDE7BDF81470202F97D1AF
:100330003B462046069916AA04F0AEFE00288FD14F
:100340003A46584616A903F0D0FCD9F8003083424B
:1003500086D10127B6E7002E1ADBDAF800309E427C
:1003600016DABDF81430802B3FF67AAF2046069996
:1003700016AA04F091FE00287FF472AFF6B2202195
:100380005846BDF81430009616AA00F03FF805460E
:100390004FF0FF3696E7012F7FF462AF62E700BFB0
:1003A00044000020E405002040630008686600085F
:1003B0002DE9F041202980460D46A4B005D94FF023
:1003C000FF34204624B0BDE8F08100240D4B0E4ED2
:1003D0001F68BC42F3DA08A801F034F8736808A873
:1003E0001A6856F8081B04F006FD08A9684604F0D0
:1003F00028FD2A464146684605F02BFD0028E0D03E
:100400000134E6E740630008446300082DE9F04743
:1004100098B017461E469DF880203B4B814653F806
:10042000321003EBC2035B6803911868DFF8DC80CD
:100430000144302304AA03A8D8F8005005F082FC38
:1004400000284FD1DDE903431C44214608AB05AA2F
:1004500003A805F09FFC002844D1069A072A41D141
:100460002B49079805F0F5FC00283BD1099A082A8A
:1004700038D128490A9805F0ECFC98BB214604AA1B
:1004800003A805F073FC68BBDDE903A30AEB0302D4
:10049000944227D1412B25D13E443023314605AA31
:1004A00004A8049705F04EFC1B4DA0B9DDE9043209
:1004B00013449E420FD3324604A908A803F0E2FB7E
:1004C00048B9324604A910A803F0DCFB18B99AF821
:1004D0000030042B0AD0D8F800302D68AB4218BF8A
:1004E000D8F80050284618B0BDE8F08700F0BAFEF2
:1004F00008AB0090202249460AF1010004F013FBEA
:1005000001282B68E9D0E6E7446300084400002096
:10051000886B00087F6B0008E4050020084A400053
:100520000B7852F820108B4208D0013052F820008E
:1005300083420CBF70204FF0FF307047702070472F
:100540004C6300081FB5602303FB0100046A1023FD
:10055000A1686A462046103904F09EFD034628B182
:1005600022784521034804F07CFD0024204604B095
:1005700010BD00BF0267000838B50E4B04460029C5
:1005800018BF0B46436203F5E0730121436503F096
:1005900004FC58B90221204603F0FFFB054638B998
:1005A000206A04F0B8FD6066284638BD0125FBE7E7
:1005B0000925F9E764020020302310B55943421899
:1005C000146A0CB904F046FE41580D4B994206D10D
:1005D000D16813895B1802D25189C91801D3002050
:1005E0000CE0A3689942FAD2106920F4F97020F067
:1005F00001000005000DB0FA80F0400910BD00BFF9
:100600003DB8F3961FB5302303FB02010A6A0AB90D
:1006100004F020FE0023CDE9023301934FF48073F0
:100620000093034BFFF704FE05B05DF804FB00BF29
:10063000D00B002000487047E80900202DE9F04F5A
:100640004FF0300A0AFB010ADFF8B4B0DAF8208074
:1006500006460D4691461F46DBF8004089B0B8F1CA
:10066000000F01D104F0F6FD03F026FC20B9DAF802
:10067000101011F010010AD01DB14146304603F0B0
:10068000A5FC204B1C68204609B0BDE8F08F35B3AF
:10069000484603F05DFC10B3023F012F1FD8202312
:1006A0006A46404604F0F8FC0028ECD1164B009A4C
:1006B0009A4214D14521154804F0D3FC114B1C6813
:1006C000134B1B68A342DED0C5B10121404603F0A5
:1006D000EEFB104A4521104804F0C3FCD1E729463F
:1006E0003046FFF769FF10B9DBF80040E8E72A461B
:1006F00049463046FFF786FF0446E1E7074AE9E747
:1007000044000020400000203DB8F39640670008F8
:10071000E4050020366700088C6700082E67000893
:1007200073B50D46002104462846CDE9001103F0BB
:100730000FFC50B323681E4EB34206D1204601AAD7
:1007400003F02FFD08B104F085FD236BB34206D101
:100750006A460121204603F024FD0028F3D1DDE99B
:1007600000239A4284BF13460192AB60019A294646
:10077000204600F043FB0F4B1A68002A03DD572187
:100780000D4804F06EFC02B070BD01462046FFF734
:10079000D9FE06460028D6D005F1080103F0B4FAC8
:1007A0000028D0D1AB683046019304F074FCDDE73B
:1007B0003DB8F396540A0020B46700082DE9F843C9
:1007C0000E46904699460024099FBC4201D3002062
:1007D0000EE03D1BB5F5806F28BF4FF480653046B5
:1007E0002B460A4A04EB090104F056FC10B1012023
:1007F000BDE8F88308992B464046044A611804F086
:1008000060FC0028F3D12C44DFE700BFE80500209E
:100810002DE9F04186B00E46044603F074FB014614
:1008200020B14521914804F01CFCFEE72046FFF76B
:10083000A3FE054678B900222046114603F049FB85
:10084000054610B300225721894804F00AFC012311
:1008500084F8603009E038225721864804F001FC12
:1008600001239D4284F86030E5D194F86030042B78
:100870008DF80F3000F29380012B00F2988000F089
:10088000AE80FF2384F86030A9E0204600F072FAC1
:100890000028DCD00127784B204602A9CDE902735D
:1008A000CDE9045503F0D9FB38B12A4657217348E6
:1008B00004F0D7FB84F86070D7E702A803F048FB88
:1008C00080F0010102AA2046C9B203F002FB0546EE
:1008D0000028B7D102A803F03BFB98BB204602A931
:1008E000FFF71EFF9DF80F3084F86030033B012BAB
:1008F00007D8284600F0EEF8054610B1FF2384F82B
:1009000060309DF80F30023B022B0DD8002000F024
:10091000CBF8054640B1FF2384F8603045215848A4
:1009200004F09FFB04F096FC94F86030FF2BF5D0A8
:10093000002DF7D12A462946204603F0CAFA00289E
:1009400085D0EFE79DF80F80B8F1010F19D1284647
:1009500002F0F2F8831E022B05460FD803464146EB
:10096000204602AAFFF76AFE464B1B68984205D054
:10097000454B1D68A84214BF0525012584F8605029
:1009800073E72B463946204602AAFFF757FE3D4B38
:100990001B68984214BF05239DF80F3058E7052BBC
:1009A0007FF46FAF002000F095F8C0B169E72046F2
:1009B00002A9FFF7B5FE94F86030DA1E012A0BD8C1
:1009C000002000F087F818B9002000F06DF830B171
:1009D000FF2384F86030A5E7023B012BF4D994F89B
:1009E0006030FF2B9AD00022012B284F019211D0AA
:1009F0001146204603F06DFA60B13D6810220021D7
:100A000002A805F01EFA204603F095FA284606B023
:100A1000BDE8F081002320461A461946FFF70EFE76
:100A2000DFF860803D68D8F800309842E6D1A842EF
:100A3000E4D0154B1B689842E0D00021204603F01B
:100A400060FA0028D9D1019B01330193019B012B4E
:100A500000D0FEE7206A03F012F83071236A5B6869
:100A60003460D8F80050B360C8E700BFE3670008FF
:100A70005668000814680008010100018268000837
:100A8000AC680008E405002040000020440000207D
:100A900010B50446002003F09AF902482146FFF7FA
:100AA000B7FE10BDE809002013B5094B01A913F8E2
:100AB000300000F079FD48B9019804F0A6FF044623
:100AC000019804F0E8FA204602B010BD0124FAE7CC
:100AD000546300081FB50F4B01A913F8300000F054
:100AE00063FDA8B9019802A901F0D0FF044668B9D6
:100AF0009DF80B30032B03D1019804F04EFF044600
:100B0000019804F0C8FA204604B010BD0124F7E7AC
:100B10000124F8E7546300082DE9F74F06460C4618
:100B200091461D46A3B9302303FB01030129D3F8E5
:100B300020A07CD1284601F0FFFF04287AD0A046EF
:100B4000736DD3F804B0BAF1000F75D104F082FBD5
:100B5000184603F0FDF98046002852D10146304680
:100B6000FFF7F0FC20B90127384603B0BDE8F08F4D
:100B700001A903F0C9F80028F5D13046019903F026
:100B80009EFA736A0746D3F804B0EB79042B0CD1B4
:100B9000ECB1012C28D12B68013BBB4223D823D1D7
:100BA0002C79033C18BF01241EE0404601F0C4FF2D
:100BB0000428EDD0FCB92C68012C03D813D12B7973
:100BC000022B10D1BC428CBF002401240CE02B6806
:100BD000013BBB4206D90124302303FB0463D3F855
:100BE00020A0B0E703D000244FF0000BF4E72B79EE
:100BF000022BF8D1EFE7012CF6D12B68012BF2D8AC
:100C0000E9E7302303FB0463D3F820A0EB79042B3E
:100C100006D0002001F090FF042801D0012C02D062
:100C20004FF0000B8FE7736DD3F804B08BE74FF0F4
:100C30000108F5E7A046F3E720234A465946504607
:100C400004F02AFA074600288DD1B8F1000F18D019
:100C5000D9F80030164A934213D0012C11D101F07B
:100C60006BFF042814BFBB46736D4A4608BFD3F818
:100C700004B050462023594604F00EFA00287FF4B1
:100C800072AFD9F800300A4A93420ED1002D3FF4DA
:100C90006BAF012C01D1C6F868B0D9F80070044BD5
:100CA000FF1A18BF4FF0FF375EE7002DF5D15BE765
:100CB0003DB8F3962DE9F04F06460C4685B0014647
:100CC00000201746FFF72AFC051E4CDB3046D4F8FF
:100CD000649003F00CF84FF000084FF0010A4FF059
:100CE000FF3400905FFA89F9DDB9B8F1010F03DD37
:100CF00045211F4804F0B5F9631C0ED00123002CD8
:100D00007B7104EBD47304F001044FEA6303B8BFB2
:100D10006442013301343B603C71284605B0BDE8B4
:100D2000F08F009905F1FF3B012330460BFB0911C1
:100D30000DF10F0204F0B0F9031E019315DB01223F
:100D400030460DF10F0104F0C4FD019B30B1534555
:100D500001D008F101085D469A46C5E7B4F1FF3FAE
:100D600008BF2C46F7E70725D7E70125D5E700BFE1
:100D7000B86800082DE9F041876A866D0446B742DD
:100D800009D07B1CB34206D05721184804F069F9FA
:100D90000020BDE8F081382F1AD957211448F5E713
:100DA000636A03EBC503D3F80480636D03EBC503EB
:100DB0005B68984502D057210E48E7E70135AA4203
:100DC000EED8204604F093F830B957210A48DDE701
:100DD0000025721EA846F2E7B74205D9636A03EB05
:100DE000C5035B684345E6D10120D2E7DB68000814
:100DF00013690008426900086E6900082DE9F04F88
:100E000004460D468BB0114603F059F9636AD4F8D5
:100E1000208082465E68B8F1000F01D104F01AFA12
:100E2000276D002FFAD0284603F092F8F8B1606ED3
:100E300002F0D8FFA36A03F1FF3900233344834251
:100E400002D209F1FF39F9E7CA4510D35721A14869
:100E500004F007F909FB06F357210AFB06629E48D6
:100E600004F0FFF80123EB710BB0BDE8F08F3A46B8
:100E70002946204603F056F92B68012B15D1EB6863
:100E8000022B0CD04146204603F0A0F80028C5D123
:100E90002A464146204603F0AEF80028BED1394626
:100EA000204603F093F80028B8D10DF12602404601
:100EB00009A902F037FF01236B71BDF824202389B3
:100EC000134462891344E268013A32441344B3FB89
:100ED000F6F3628F0393238F1344BDF82620134447
:100EE000E26B013A32441344B3FBF6F30493EB791B
:100EF000042B62D1D1462B68AAEB0902013B9A422E
:100F0000C0F0C980626A4FEAC90352F8391012680A
:100F1000A1EB020B2A79012A40F0BA80039A4A45D4
:100F200019D3626D38461344996813683246C91A5A
:100F30000023059102F075FF00287FF46FAF05993B
:100F40005B4600913A46414620460196FFF736FC43
:100F500000287FF463AF2946204603F006F80223F9
:100F60002B7118B15D4A136801331360049B4B4524
:100F700013D3002332465946404602F052FF002860
:100F80007FF44CAF5B46424639462046CDE900B679
:100F9000FFF714FC00287FF441AF2946204602F0F9
:100FA000E4FF2B6801332B6001232B71002872D0E2
:100FB0004A4A1368013313606DE0002001F0BCFD64
:100FC000042897D04FF000092B68013B4B457AD895
:100FD000636A4FEAC9021968059153F8391003EBA7
:100FE000C9039B68059806932B79A1EB000B012B95
:100FF00067D1039B4B4518D3636D384699581B68DE
:101000003246C91A0023079102F00BFF00287FF433
:1010100005AF07995B4600913A4641462046019646
:10102000FFF7CCFB00287FF4F9AE2946204602F0FA
:101030009CFF02232B7118B1284A136801331360F7
:10104000049B4B4515D3002332465946404602F0D7
:10105000E8FE00287FF4E2AEDDE9052339469B1A5D
:1010600020464246CDE900B6FFF7A8FB00287FF4F2
:10107000D5AE2946204602F078FF2B6801332B605D
:1010800001232B71F8B1154A1368013313601AE07C
:10109000022A3FF46BAF09F1FF39D1457FF62BAF40
:1010A000002332461946384602F0F9FE00287FF444
:1010B000B5AE3946204602F089FF00283FF4D4AE91
:1010C000ACE6022BBCD009F10109D1457FF67CAF1B
:1010D000CAE600BFA7690008D6690008540A0020C4
:1010E0000822F0B5002789B003F09EF9CB6A0C46C0
:1010F00003930B6B064604934B6B684605938B6B0F
:10110000CDE901770693CB6B6946079313466A4690
:10111000009703F0A3F831460546304603F09EF8E9
:10112000216B05440391616B68460491A16B0591A5
:10113000E16BCDE90617694603F090F831460544A6
:10114000304603F08BF80544206ACDE9047700901F
:10115000606A03970190A06A0290A06B0690E06B12
:101160000790304603F07AF80544606AD4F838C036
:101170000090A06ACDF810C00190E06AD4F83CC09D
:101180000290606BCDE905C00390206A079030465D
:1011900003F064F80544E06ACDE904770090206B21
:1011A00003970190606B0290206A0690A06A0790F6
:1011B000304603F06CF9236B2D1A0093636B3046B5
:1011C0000193A36B0293E36B0393636A0693E36A51
:1011D0000793082303F05BF9636B2D1A0093A36B4D
:1011E00030460193E36B0293236A0393636A04938B
:1011F000A36ACDE90537236B0793082303F047F96A
:10120000A36B2D1A0093E36B3046CDE90137636A77
:101210000393A36A0493E36A0593636B079308231C
:1012200003F035F92D1A10D50823314630460C4A03
:1012300003F014F82D18F7D409B0F0BD0823314697
:101240003046074A03F023F92D1A002DF6D1082263
:101250003146034803F0F4F80128EFD1ECE700BF72
:1012600060630008004870475C6300082DE9F04F98
:10127000002603689DB002934368DFF8C0E1039342
:1012800083688A46DDE902150493C3680593036900
:10129000DDE904B70693436907938369DDE9062C0A
:1012A0000893C36998460993089B00935AF806402F
:1012B0000CAB24BA5EF8049B9C514FEAF223A14484
:1012C00083EAB213009C83EA72634B4424EA02046B
:1012D00002EA0C0984EA09042344434485EA0B0426
:1012E0004FEA713888EAB1080C4005EA0B0984EA34
:1012F000090488EAB1580436A044402E03EB0704E1
:1013000043445F46DDF8008040F088804FF0100ACB
:101310004B4E0A9656460AF1010A0DF1700E0AF07C
:101320000F070EEB870757F8407C06F00F094FEACE
:10133000B748019788EAF71806F10E0707F00F077C
:101340000EEB870757F8407C09364FEAF74E8EEAD6
:10135000774ECDF82CE006F00F060DF1700E0EEB77
:1013600086060EEB890959F840EC56F8406CBAF144
:10137000400F7644DDF804E088EADE08DDF82CE072
:1013800046448EEA972E764404EA02084FEAF42E89
:101390002CEA040787EA08078EEAB41EDDF82880E5
:1013A0008EEA746E774458F804EF49F8406C77443D
:1013B0003744009E4FEA733E3E4481EA0507CDF86C
:1013C00028808EEAB30E07EA030701EA05088EEAD1
:1013D000B35E87EA08077744374406EB0B0ECDF877
:1013E00000C0AB4622D1029E3E440660039E1E44CE
:1013F000049B46600B448360059B2B44C360069BA3
:1014000073440361079B23444361089B1344836136
:10141000099B6344C3611DB0BDE8F08FAB46CDF8B6
:1014200000C00D469446194622463FE794460D46B5
:101430002246194674463B466CE700BF0C64000820
:101440004864000810B50446C8B17022002103F0BA
:101450004CFD0B4B0B4A0C49C4E900230B4B0C48C9
:10146000C4E902130B4BC4E9040301200A4BA36136
:1014700003F17453A3F52303A3F69243E36110BD74
:1014800085AE67BB67E6096A72F36E3C3AF54FA515
:101490007F520E518C68059BABD9831FBFF36F8FB2
:1014A00072B600234FF0FF30094A03F120010133E7
:1014B000102B42F82100F8D100234FF0FF30044AEE
:1014C00003F160010133102B42F82100F8D170477D
:1014D00000E100E0014B1B68184700BF48000020F6
:1014E00030B5044685B00D4610220021684604F050
:1014F000A8FC02238DF80230044B2A462146684698
:10150000019302F085F905B030BD00BFD514000885
:1015100080B505460E461746984601F017FF03466C
:1015200000F0A4FB0446DFF81890424649F800306A
:1015300039463046A84754F8090000F033FB00BF95
:1015400008000000034A0020536823F002035360A0
:10155000704700BF0040024408B5416805480C319F
:1015600083681B681BB1984700EAE07008BD6FF004
:101570005700F9E7285F000808B500F0A9FE044B02
:10158000044A1A60044AD36A43F00103D36208BDD7
:10159000640000200048E80100080244014B036099
:1015A00000207047C465000870B5104B0D461C68DC
:1015B000B4B10F4B196800238B4202DB6FF00100BE
:1015C00070BD224612F8106B864202D014460133D9
:1015D000F2E7E06804F039FA28B100202C60EFE768
:1015E0006FF00C00ECE76FF01200E9E74C00002010
:1015F000C465000810B5436888B0029383680C4640
:10160000CDE9033200230A68C068CDE90623054905
:1016100001AA059303F083FF079808B9059B23608F
:1016200008B010BD3351000808B5054803F06FFC41
:10163000044803F06CFC044803F069FC002008BD7A
:10164000856A0008B66A0008E96A000808B5034818
:10165000034A0021121A03F0A7FD08BDB0000020C4
:10166000D40C0020074808B5074A0849121A03F0AD
:101670009DFDBDE808400648064A0749121A03F0D6
:1016800095BD00BF40000020AC000020686C000841
:101690000000002040000020286C000830BFFFF749
:1016A000FDBF00BF2DE9F04105460B4EDFF82C8051
:1016B000324606EB0807CC1B2046094904F0B4FB70
:1016C000A01942460021083C04F0BBFB2C6707F13F
:1016D0000800BDE8F08100BF000000000400000029
:1016E00030630008154B9A6A12F0007F9A6A14BFA3
:1016F0001E201D2012F0807F9A6A18BF1F2012F44E
:10170000801F9A6A18BF022012F4002F9A6A18BF2D
:10171000212012F4802F9A6A18BF222012F4003F71
:101720009A6A18BF232012F4803F9A6A18BF2420B7
:101730006FEA02426FEA12429A62704700ED00E0DF
:1017400010B5194B0246986A9C6A10F4805F14BF6A
:101750001720162014F4006F9C6A18BF1820A405E7
:1017600009D5986B986A000404D51AB19A6A22F4D4
:1017700000429A6219200C4B9A6A12F4806F9A6A9E
:1017800018BF1A20D2050CD49B6A13F4005F18BF4F
:101790001C20054A936A43F47F43936200230B7035
:1017A00010BD1B20F5E700BF00ED00E010B51C4B9D
:1017B0000246986A9C6A10F0100F14BF1120102086
:1017C00014F0080F9C6A18BF1220A40709D5586BA3
:1017D000986A000604D51AB19A6A22F080029A62C9
:1017E00013200F4B9A6A12F0010F9A6A18BF142047
:1017F00012F0200F9A6A18BF1520D40658BF9B6AB2
:10180000074B9A6A920642BF5A6A22F400525A6201
:101810009A6A42F0FF029A6200230B7010BD00BF6B
:1018200000ED00E0F0B5494B04465B6800258BB045
:10183000C3F3080385F31188BFF36F8F02F07F4075
:10184000B0F17F4F11D102F00C0008280DD0100725
:101850004CBF0C4601250022033B8DF80720032BCB
:1018600005D8DFE803F024676B642C46F3E7002318
:101870009DF80720CAB902AE04F12007324620685D
:101880006168083403C2BC421646F7D1099A002D9C
:1018900058D0C2F3080121B96FEA52226FEA4222FE
:1018A0000992184602A903F083FC0BB0F0BD274B48
:1018B000DA6A9107DBD4DA6A002AD8DBDA6A5200E6
:1018C000D5D55A69A16942F480725A61BFF34F8F2E
:1018D000BFF36F8F31F8022C596921F4807159617F
:1018E000BFF34F8FBFF36F8F02F47F43B3F55F4FAA
:1018F00004D1D2B2022A01D12368B9E7134B9A6A04
:10190000D2B232B101200DF10701FFF74FFF0346BC
:10191000AEE79A6A12F47F4F05D001200DF107015E
:10192000FFF70EFFF3E79B6AB3F5803F9FD3FFF706
:10193000D9FEECE700200DF10701E6E700200DF1EC
:101940000701EDE76FF30802AAE700BF00ED00E032
:10195000064B5A6942F010025A615A6942F4806299
:101960005A615A6922F008025A61704700ED00E09E
:10197000EFF30880EFF3098101B57246FFF752FFDC
:1019800001BD00BF002080F31488BFF36F8F0020DB
:1019900080F30A8880F30B880E4880F308880020C3
:1019A0000D490860BFF34F8F00F02CF8102080F332
:1019B00011880A484FF40061401880F30988EFF35A
:1019C00014800221084380F31488BFF36F8F00F066
:1019D00083F80000183E002094ED00E0D80C0020B1
:1019E000002318460649D1F89020C2F307229342FB
:1019F00000DB7047C1F89830C1F8A0000133F6E76A
:101A000000ED00E010B572B6002484F31388FFF7F0
:101A1000E7FF23464FF0FF300C4A03F1200101336A
:101A2000102B42F82100F8D100234FF0FF30074A75
:101A300003F160010133102B42F82100F8D162B6A6
:101A4000BFF34F8FBFF36F8F10BD00BF00E100E009
:101A50001EF0040F0CBFEFF30880EFF309808169DB
:101A600011F8021C0229FFD001B5724603F0A6FB53
:101A700001BD00BF00B2002807DB01234109034A72
:101A800000F01F00834042F82130704700E100E081
:101A900000B2002801F10101ACBF00F16040064B2B
:101AA0004FEA0111C9B2ABBF00F5614000F00F0071
:101AB00080F800131954704714ED00E0044B054AF8
:101AC00023F07F039360BFF34F8FBFF36F8F704797
:101AD0000000000800ED00E008B5FFF7EFFF074A3F
:101AE000D2F8883023F47003C2F88830FFF7AEFDD7
:101AF000FFF7B8FD00F09CF801F0DCF900ED00E024
:101B000042F8203C009B0B4942F81C3C019B21F011
:101B1000010142F8183C029B42F8081C42F8143CB0
:101B20004FF0807342F8043C0023203A026543677B
:101B3000704700BF1115000800B50D4B15469860A1
:101B4000026F0C4B0E461A60036E83F30B882C4613
:101B500086F309880020044B984720460021002284
:101B60000023024C20470000E9510008111500082D
:101B7000A40B0020E80A00201022014B1A617047D4
:101B800000ED00E0054B5A699B689A421FBF044A6A
:101B9000536843F080535360704700BFA40B00208C
:101BA00000ED00E0084B9B6883420BD1EFF3058307
:101BB00043B1064B5A6842F080525A605A6A22F486
:101BC00000425A6201F0C8BBA40B002000ED00E007
:101BD00014498A684FF030001044EFF3098C80E814
:101BE000F01F102080F31288BFF36F8F0E4F4FF05D
:101BF00000664A698A603E60106F0C4C2060506F2E
:101C00000023536780F3118802F1300090E8F01F41
:101C10008CF3098802F1000004B503F0DEFABDE898
:101C200004407047A40B002004ED00E0E80A002007
:101C3000002310210348C21801334B2B82F80013F4
:101C4000F9D1704700E100E008B5EFF30583064ADB
:101C5000103B02EBC30152F8330049688847BDE8E6
:101C60000840FFF78FBF00BF786000080148006898
:101C700070470000E80A00201FB50121094B0A4AFD
:101C80000A4800F0F7F80023064A0393084B0121A5
:101C9000019301A8D31A029300F0F6F805B05DF89D
:101CA00004FB00BF000004200000002008660008BC
:101CB000B00000200A7A0B6810B562F304031C46DA
:101CC000CB68520923F01F0343EA4203044A43F05E
:101CD0000103C2F89800C2F89C40C2F8A03010BDC1
:101CE00000ED00E010B5074BD3F89030C3F30723A5
:101CF000013B984202D8FFF7DDFF10BD6FF01500E1
:101D0000FBE700BF00ED00E02DE9F04F0F46144661
:101D100006464FF000084B4D85B0B84580F28E80E6
:101D2000D6F80490B9F1000F35D0B9F11F0F40F289
:101D3000838019F01F0F7FD1D6F800A01AF01F0F73
:101D40007AD1504603F064FA834609EB0A00013861
:101D500003F05EFA83456FD11BF1160F6CD05C4522
:101D60006ADDC5F898B0D5F89C10C5F898B0D5F8DC
:101D7000A03021F01F0143F01F0AD6E900321A44B7
:101D8000994202F1FF391BD1CA4508D131465FFAA9
:101D90008BF003F046FA08F101080C36BDE7314636
:101DA000C5F898B0D5F89C30E0B263F30402C5F8EA
:101DB0009C2003F036FA10F1160F3DD0441CEAE7E0
:101DC000C5F898B0D5F8A020013B23F01F0302F01E
:101DD0001F021343CA453146E0B2C5F8A030E8D02F
:101DE00003F01FFA10F1160F26D0C5F898B0D5F8F9
:101DF0009C209DF808300AF1FF3A62F304038DF845
:101E00000830D5F8A0309DF808205B0863F347122E
:101E10008DF80820D6E900321344009323F01F0305
:101E20005344A3EB0903013023F01F036946C0B2FA
:101E30000393FFF757FFBEE76FF01504204605B088
:101E4000BDE8F08F00ED00E00522044BC3F89420BC
:101E5000BFF34F8FBFF36F8F704700BF00ED00E0FF
:101E6000BFF35F8F0022024BC3F89420704700BF7E
:101E700000ED00E010B5034C2278FFF745FF20701D
:101E800010BD00BFD00C00202DE9F74F294D8A4628
:101E900006464FF00008AB46274FD0451BDAD6F870
:101EA0000490B9F1000F3FD031680846019103F06A
:101EB000AFF90199044609EB0100013803F0A8F9D4
:101EC00084424FF014021D4B08D002FB08F36FF060
:101ED00015024BF8032003B0BDE8F08F14F1160F84
:101EE0002C60F8D01978A142F5DD02FB08B0C7F8E4
:101EF0009840C7F89840D7F89C4000F10801007B53
:101F000064F304000871D7F8A0000C79400860F36E
:101F100047140C71D7F89C1021F01F016960D7F8A5
:101F2000A01021F01F01296108F1010814350C36B9
:101F3000B3E700BFEC0A002000ED00E0D00C002069
:101F4000F0B55349534DD1F890302C68C3F30723B3
:101F50009C4287B000F299800020FFF781FF4E4B32
:101F6000C1F8C030844216D14C4D01A82C70FFF747
:101F700015FB002607464A4CB74213D100202B78A8
:101F80004349D1F89020C2F30722934277DBFFF751
:101F90005BFF002046E0696801EB0011FFF78AFE55
:101FA0000130DFE70199300101EB0613DA682240C6
:101FB000B2F1807F52D00AD8B2F5001F34D0B2F50A
:101FC000800F3ED0B2F5801F12D00136D4E7B2F1B7
:101FD000006F43D0B2F1805FF7D15A689B6809580F
:101FE000013B22F01F00034423F01F03012032E0D5
:101FF0005A689B680958013B22F01F0003440120E6
:10200000844623F01F0340EA4C10CDE902218DF8ED
:10201000100002A928780593FFF764FE00282ADA49
:102020006FF0150007B0F0BD5A689B680958013B76
:1020300022F01F0003444FF0020C012023F01F0385
:10204000E1E75A689B680958013B22F01F000344EE
:10205000022023F01F034FF0000CD4E75A689B685E
:102060000958013B22F01F0003444FF0030C0120EC
:1020700023F01F03C7E72B7801332B70A5E7C1F8C6
:102080009830C1F8A00001337BE74FF0FF30C9E77B
:1020900000ED00E014660008AAFF4400D00C002008
:1020A0000000F0FF08B5054802F031FF002383F37C
:1020B0001188BFF36F8F0423184602DF256B0008D9
:1020C00007B5084A92E80300CDE900010648826896
:1020D000126822B16946904703B05DF804FB6FF0C7
:1020E0005700F9E730630008285F00083F280246E0
:1020F00019D800F01F0301201F2A00FA03F30B4A2E
:1021000008D8D16833EA01010ED01269934318BF91
:1021100000207047D16A33EA010105D0126B934366
:1021200008BF0120F3E70020704700BF00200244F1
:10213000012300F01F023F2803FA02F309D81F28E9
:10214000054A03D8D360136100207047D36213633C
:10215000FAE76FF015007047002002442DE9F041C6
:10216000054600264FF001080E4F6B78F4B2A342EB
:1021700001D8BDE8F0812B781C442046FFF7B6FF5C
:1021800068B12046FFF7D4FF57F834303BB107EB76
:10219000C40204F01F04516808FA04F0984701369D
:1021A000E3E700BF000B0020014B23F8101070473D
:1021B00074000020034678B1B0FA80F2C2F11F0229
:1021C000D2B2064931F91200054AD2F880100B4309
:1021D000C2F88030FFF74EBCFF22F2E77400002007
:1021E00000200244034AD2F8803023EA0003C2F8F8
:1021F0008030704700200244032921D8DFE801F035
:10220000020C10190F4B1A6822EA00021A605A6871
:1022100022EA00025A6070470A4B1A680243F5E747
:10222000084B5A6802435A601A6822EA00021A6090
:102230007047044B1A6802431A605A68104358608A
:10224000704700BF0020024430B5B0B1B0FA80F34F
:10225000C3F11F03DBB20B4850F833408C4204D16A
:1022600000EBC3056D68954205D044B940F83310C2
:1022700000EBC3004260002030BDFF23EBE76FF0AE
:102280000F00F9E7000B002060B1B0FA80F3C3F152
:102290001F03DBB20021044A42F8331002EBC302F1
:1022A00051607047FF23F5E7000B0020C300074A89
:1022B000C0F38100183052F8202003F018000F23DB
:1022C0008340134023FA00F0704700BF002002440F
:1022D000074B1A6822F004021A605A68D207FCD42D
:1022E0000222DA601A6842F001021A60704700BFE9
:1022F00000040340044B1A6822F001021A601A68B5
:10230000D207FCD4704700BF00040340024B18689A
:10231000C0F34000704700BF000C02440B88C3F3B9
:102320000B03102B32D813B96FF085007047013BB7
:102330000F2BF9D801A050F823F000BFB1230008FB
:10234000292300082923000829230008292300083D
:102350007D230008AD230008A7230008A723000859
:10236000A7230008A7230008A7230008A723000825
:10237000B1230008B1230008B1230008114B1360FA
:102380000968B1F5805F15D200207047882B0AD00C
:1023900003F67473C3F30B031C2BC5D80A4820FA49
:1023A00003F3DB07C0D5094B1B68E8E7084BE6E7FA
:1023B000084BE4E7C1F313310131B3FBF1F31360D0
:1023C000E2E700BF0090D00301011111640000207A
:1023D000006CDC02001C4E0E10B55E4CE369236AF3
:1023E0005D4B1A6942F030021A615A691007FCD538
:1023F0005A4800F0FBFB236923F4FE0343F48003F7
:102400002361FFF783FF012807D0236843F001030E
:102410002360FFF77BFF0128FBD14E4A136823F0AE
:1024200018031360136843F480531360136899040E
:10243000FCD5D36903F01803182B18D1FFF766FFFA
:10244000012807D0136843F001031360FFF75EFF14
:102450000128FBD13F4BDA6922F00302DA61DA6925
:1024600012F0180FFBD11A6A22F00F021A62394BD0
:102470001A6822F080721A609A6A22F0030242F00F
:1024800001029A629A6A22F47C5242F480629A6251
:102490009A6A42F00C029A629A6A22F020029A62C8
:1024A0005A6B6FF3080242F01D025A639A6A22F0D7
:1024B00010029A625A6B22F47E4242F400725A630E
:1024C0009A6A42F480329A625A6B22F4FE0242F413
:1024D00080325A639A6A42F400329A625A6B22F04E
:1024E000FE4242F080725A639A6A42F480229A62F3
:1024F0001A6842F080721A601A689201FCD5DA6A92
:1025000022F00302DA621A6B22F003021A631A6ADB
:1025100022F00F021A621A6A22F070021A621A6A14
:1025200022F4E0621A621A6A22F4E0421A62DA695C
:1025300042F00302DA61074BDA6902F01802182A46
:10254000FAD1DA69002022F40042DA61044B034A2E
:102550001A6010BD000C024400080244001C4E0E1C
:1025600064000020004870473C66000810B50C4627
:10257000FFF7C0FE054BB3F80C389B022360002325
:102580006360FFF7A5FE002010BD00BF00F0FF084C
:1025900038B5036905461C6849B103F016F858B10F
:1025A0002869043000F0ECFC6FF0040038BDA36A29
:1025B000DB0706D40020F9E7A36A43F00103A36216
:1025C000F8E7034B636003F188336360F2E700BF11
:1025D000230167452DE9F0472D4B17461B688A46B6
:1025E000804603F001090025FFF784FE013F294ED4
:1025F0005744574507D2B9F1000F01D0FFF768FEE5
:102600002846BDE8F087D8F810301C68A36ADB07BD
:102610003BD4404602F0D9FF051EECDBBAF5002F93
:10262000E3694FEA5A3206D2002BA36A27DB23F074
:102630000043A36206E0002BA36A23DA23F00043E1
:10264000A362403AA36A404643F00403A362A36A2C
:1026500023F4FE53A362A36A43EA8213A362A36A2C
:1026600043F02003A362A36A02F0AFFFA36A051E32
:1026700003EA0603A362BEDB0AF5005AB9E743F09A
:102680000043D6E743F00043DAE76FF00405B2E712
:1026900000040340FBFFFF7F2DE9F84F00241F4695
:1026A0002C4B89461E6805469046A346FFF722FE3E
:1026B00006F0010609F100695F4508D92B69D3F8D6
:1026C00000A0DAF82830DB0707D56FF004040EB15C
:1026D000FFF7FEFD2046BDE8F88F284602F075FFA3
:1026E000041EF4DB2BF003044444231F04F10C020A
:1026F00053F8041F19BB9342FAD1DAF82830A9EB3A
:10270000040043F00203CAF82830DAF8283004F154
:102710001003021954F8041B9C421160F9D1284699
:1027200002F053FFDAF82830041E23F00203CAF83F
:10273000283009F11009CADB0BF1100BBCE74B463E
:1027400009F1100219680131BFD104339342F9D164
:10275000D3E700BF00040340084B0B60186808492A
:1027600010B10B68136070474FF0800C4FF40050AD
:10277000C3E900C001230B60F4E700BF840B002015
:10278000800B00202DE9F843D0F8049090460746CE
:10279000D9F808000D461E4602F0F2FDB8F5001FFC
:1027A000044616D12846D9F80840FFF77FFD844239
:1027B0000CD1294602F0E4FD0446FFF713FD204644
:1027C000FFF762FD00212046FFF716FD0020BDE85F
:1027D000F883B8F5800F20D0B6F1806F19D0B6F12C
:1027E000C06F18D0B6F1007F1AD102263A462046B3
:1027F0000E49FFF729FDB0B92846D9F8081002F0B4
:10280000C4FD20463146FFF7F7FC2046FFF7D2FC17
:10281000DCE70126EAE70326E8E76FF08500D6E764
:102820006FF01500D3E76FF00F00D0E77158000884
:102830004FF0E0230D4A9969126818699B690029D5
:1028400008BF1146002B08BF134610F4803F08480C
:1028500001D1994205D20168114401604FF0E02195
:10286000096900681044C01A704700BFA00B00201F
:102870009C0B00201022094B002083F8232045F6F2
:10288000C052074B1A60074B45F6BF5218604FF015
:10289000E0235A61072298611A61704700ED00E059
:1028A000A00B00209C0B0020684620F007018D46FD
:1028B00019B5FFF7BDFF1449144B0868D3E900426E
:1028C000001942F10002C3E9000200230B6045F643
:1028D000C0530F4AD2E90041001BB0FBF3F0434361
:1028E0001B1941F10001C2E90031EFF311811023FE
:1028F00083F31288BFF36F8F00F00AFFFFF742F9EE
:10290000BDE81940854670479C0B0020B8000020A8
:10291000B00000202DE9F041374E89B1421C0AD1A8
:102920004FF0E022136923F0010313614FF07F435E
:102930003360BDE8F0813568012806DC00240AE038
:10294000431C3568F8D140F2BA2040F2BB239842CC
:10295000A8BF1846441EEFF31187102383F3128893
:10296000BFF36F8FFFF764FF4FF0E0232349D3F8E5
:1029700018C0D1E9002380184FF0000243F1000392
:10298000C1E900031E4B1A601E4B1A68831A2DD42E
:1029900045F6C05E45F6BF5814FB0E841C44B4FBDC
:1029A000FEF4131A40F2DC520EFB0433934238BF9C
:1029B0001346154A934228BF13464FF0E022336076
:1029C000013B946953610023A4459361ACEB04007F
:1029D000D1E900320DD20544EB1842F10002C1E901
:1029E000003287F31188BFF36F8FA2E740F2DC5308
:1029F000E3E7C318F1E700BFA00B0020B8000020F8
:102A00009C0B0020B0000020809DFF0038B5EFF344
:102A10001185102383F31288BFF36F8F084B1C6856
:102A2000084B1B68E41AFFF703FF85F31188BFF317
:102A30006F8F45F6C0532044B0FBF3F038BD00BFA4
:102A4000B8000020B0000020F0B5816885B01039D2
:102A5000054621F00F0402F065FB6A460A4B03F1BC
:102A60001007164618685968083303C6BB42324639
:102A7000F7D110236A462146284602F022FB00388F
:102A800018BF012005B0F0BD8666000830B50D46C0
:102A9000816887B0102302AA1039044602F0FCFABC
:102AA000002802DA012007B030BD1022204602A91A
:102AB00002F00FFF00283AD110221E4902A803F0AD
:102AC000C8F900280CBF012302232B70204602F016
:102AD000ECFE012301460DF10702204602F0DCFA6C
:102AE0000028DFDB9DF80730204603F00F021B09AA
:102AF0006A702B7101220DF1070102F0EAFE10B994
:102B00006B78042B03D901236B7000232B71A2680F
:102B10002046203A22F00F02103AA91C02F0ECFEE7
:102B20000028BFD12046E91C02F03EFFBBE703238B
:102B3000CBE700BF866600087FB52A4D4400694692
:102B400055F8240002F036FF00283CD1013455F836
:102B5000240002A902F02EFF012802BF03238DF8F2
:102B6000083040F203334FF000049DF800509DF808
:102B700008601D4A08BFADF80A302946107802F0F7
:102B80009AFE30B33146507802F095FE08B3937840
:102B9000042B03D09DF8031099421AD1D378042B4B
:102BA00003D09DF80B10994213D11379042B03D055
:102BB0009DF8021099420CD15379042B05D19079DC
:102BC000831E022B0BD9FF2009E09DF80A109942C1
:102BD000F5D00134042C02F10702CED1012004B05B
:102BE00070BD00BF446600080B6C0008B8B1384BDC
:102BF0001A6902F03002302A13D1364B98425DD95F
:102C0000354B98425CD9354B98425BD9344B98424E
:102C10005AD9344B98422ED9334B98423BD9012094
:102C200070471A6902F03002202A10D12F4B9842C7
:102C300044D92F4B984243D92E4B984242D92E4B20
:102C4000984241D92D4B984215D92D4BE5E71B6988
:102C500003F03003102B10D12A4B98422ED92A4B67
:102C600098422DD9294B98422CD9294B98422BD9DF
:102C7000284B9842D3D804230EE0274B98421DD905
:102C8000264B98421CD9204B98421BD9244B984282
:102C90001AD9244BEDE7052323490A6822F00F02D5
:102CA0001A430A600A6802F00F0293420ED00868C5
:102CB00000F00F00C01A18BF012070470023EBE797
:102CC0000123E9E70223E7E70323E5E70020704754
:102CD0000008024480DE800200BD0105809B82075F
:102CE000007A030A8058840C80B2E60E80CC06027B
:102CF00000990D048065140600321B0880FE210A2D
:102D000000C2EB0B80C3C90100879303804A5D05B5
:102D1000000E270780D1F008002D3101005A620211
:102D200000B4C40400E1F5050020024038B5EFF31B
:102D30001185102383F31288BFF36F8F064B9C68B5
:102D400002F096FE85F31188BFF36F8F2046BDE831
:102D50003840FEF727BF00BFA40B002038B50A4B50
:102D600053F82040013053F82050A54200D838BD18
:102D7000606830B1037EDB0701D402F04EFE0834F8
:102D8000F3E723689847FAE74C660008012270B51C
:102D9000294B86B003201A70FFF7E0FF02F0A2FF74
:102DA0000420FFF7DBFF254C254D2646AE4204F1FB
:102DB00030040FD300F084FA204CAC4226D300F04C
:102DC00093FAFDF7D3F91F4A938923F00103938106
:102DD00006B070BD54F80C3C059354F8103C0493B5
:102DE00054F8143C039354F8183C029354F81C3CD8
:102DF000019354F8203C009354E90A2354E90C0150
:102E000000F018F954F8303C5E65CEE7D4E90A23A7
:102E1000B3F1FF3F08BFB2F1FF3F05D052EA030113
:102E2000206803D102F0ACFE3034C6E70649183002
:102E300000F0DEFBF8E700BFD10C0020D0620008F4
:102E4000D0620008400100205B5B000800230122E3
:102E500070B586B0CDE904230F220193CDE902328B
:102E600014234FF4A0720E4D0E4E03FB00550E4975
:102E700006EBC016044602FB00110C4B30460095D1
:102E800000F0D8F8337C2C7423F004033374084B1F
:102E9000013403EBC423EE606B6006B070BD00BF6D
:102EA000A40B0020C0000020D8140020775A00088E
:102EB000D80C00207FB50020FFF750FF284B03F50A
:102EC000006282F3088883F30A880024F023254DEA
:102ED00085F82230EC772C766C76AC7685F820403D
:102EE0006B6A43F4E0236B62FEF732FDFEF744FEAB
:102EF0004FF0FF33AB62EB62FFF722F8FEF7BCFE48
:102F0000194800F0D5F8FEF737FB0120FFF726FF40
:102F10000220164DFFF722FF00F010FA144B4FF479
:102F200020525D61134B1449059301232846CDE9D6
:102F30000343CDE90144114B009400F07BF80646B1
:102F40002B7C284623F004032B7402F0E3FD20467B
:102F5000FFF77CFF31462846084AFEF7EDFD00BF2B
:102F6000D80C002000ED00E0C0010020400100204E
:102F7000A40B0020736B0008181600208D2D00088C
:102F800070B5EFF31186102383F31288BFF36F8FB0
:102F90000468A0421AD0CCB1D4E9003200251360F5
:102FA0005A60237CC4E9005523F002032374A56012
:102FB00004F1180002F01BFE2046A56702F0AAFDEE
:102FC0003146BDE87040074802F0D7BDD0E9023273
:102FD0009A4218BF0133836086F31188BFF36F8F65
:102FE00070BD00BFD20C002013B5EFF31181102487
:102FF00084F31288BFF36F8F846844B1013C84600E
:1030000081F31188BFF36F8F002002B010BD52EA28
:10301000030406D181F31188BFF36F8F6FF00F00A7
:10302000F3E7CDE900230246014800F027F9ECE779
:10303000D20C00202DE9F043984685B000F15803EA
:10304000C0E91633109B002683810423073222F047
:10305000070503740F9B01EB05090F46837349466F
:10306000C0E906668660C6730446FEF71BFB0E9B2E
:10307000073020F00700A066C4E9187502930D9B85
:10308000A9EB000901930C9B4A460093394643463D
:103090002046FEF735FD054B66659B6803B1DB6E88
:1030A0004846E36605B0BDE8F08300BFA40B0020EE
:1030B0000123037483810023C0E91833C366014BE5
:1030C00098607047A40B00206FF00A01084A9368CB
:1030D0009967084958674B6843F080534B60002359
:1030E00083F31188BFF36F8F9368986F704700BFA9
:1030F000A40B002000ED00E070B590F91020037CD7
:10310000002A2FDBD9062DD11A4C63F07F0322460B
:10311000037452F8183FE169934207D1C0E90021D6
:103120000860E0610FE09942F8D01B68002BF5D0F1
:1031300093F90E6090F90E50AE42F4DD5968C0E983
:10314000003108605860A569954200D005B9E5686E
:10315000A3681A7CD20606D1DA897F2A03D9AA6924
:103160000AB9636170BDAB4202D0284600F0C2F9D3
:103170006561F7E7A40B002038B590F910200146EF
:10318000002A037C04DA03F07F03037402F08AFC54
:103190000D4D2A4652F8184FAB68944200D004B93E
:1031A000EC688B4207D01A7CD20604D1DA897F2AD8
:1031B00001D9A2692AB1A34202D0204600F09AF9AF
:1031C00023466B6138BD00BFA40B0020B3F1FF3F65
:1031D00008BFB2F1FF3F03D00249183000F008BA2F
:1031E000704700BF5B5B0008034648B9EFF30582F8
:1031F00032B9064A51699268914201D0FFF764BF23
:1032000083F31188BFF36F8F704700BFA40B0020BA
:1032100038B5184CA168E0690B68814214BF1A46A2
:10322000002249680B605960A368E1692AB9124A13
:10323000C3E900210B60E3610AE092F90E5093F9B3
:103240000E00854212DD5168C3E900210B60536016
:10325000A569094B9D4200D005B9E568A3689D4268
:1032600002D0284600F046F9656138BD8A42DED0BA
:103270001268DBE7A40B0020BC0B0020F8B5DDE9E9
:1032800006670D4B0C46986811460C4A1060EFF328
:103290001182102282F31288BFF36F8F9D68284637
:1032A00002F012FC284632463B46FFF78FFF2046CD
:1032B000BDE8F840FFF708BFA40B0020C40B0020B6
:1032C000EFF31181102383F31288BFF36F8F054B47
:1032D0009A68D37B013BD37381F31188BFF36F8F5F
:1032E000704700BFA40B002070B5EFF311861023C8
:1032F00083F31288BFF36F8F0F4DAB68DA7B013217
:10330000DA732A4652F8184F944200D004B9EC6898
:103310001A7CD20604D1DA897F2A01D9A2692AB19E
:103320009C4202D0204600F0E5F823466B6130460F
:10333000BDE87040FFF758BFA40B0020024B03F11B
:103340001802C3E906227047A40B0020014B9868BD
:10335000704700BFA40B00202DE9F843044687897D
:10336000EFF31186102383F31288BFF36F8F037C72
:10337000190705D586F31188BFF36F8FBDE8F88371
:10338000D90943F008026FD10274A36813B1204633
:1033900002F090FB04F1180002F029FCA56D04F185
:1033A0005808A84511D04FF0000975B1284602F021
:1033B00081FB05F1180002F01AFC2846C5F8789048
:1033C000FFF79AFEA56DA845EFD1DFF8BC80D8F8CD
:1033D00008309C4250D1EFF30589B9F1000918BFBC
:1033E0004FF00109D8F81850284A954200D00DB97D
:1033F000D8F80C50AB4202D0284600F07BF82046AB
:10340000C8F8145001F0EDFEB9F1000F02D02048C9
:10341000FFF74EFED8F808309C4230D1EFF3058319
:103420006BBBA289D20711D586F31188BFF36F8FCA
:1034300083F31188BFF36F8F0423184602DFEFF385
:103440001186102383F31288BFF36F8F3046FFF786
:103450003BFEFB0792D5002383F31188BFF36F8FE8
:103460000423184602DF89E703F07F0343F00803D3
:10347000037402F017FB88E74FF00009B2E786F308
:103480001188BFF36F8FE4E7A40B0020BC0B002072
:10349000C0010020027C034612F01F0210D10A492D
:1034A00088420DD00949086868B1D9897F2909D8AF
:1034B00093F90E20064B1B689A42B8BF0020704754
:1034C0000020704710467047C000002068000020B0
:1034D000C80B00200122044BC01A044BC0105843F3
:1034E000034B1A54704700BF40020020ABAAAAAA9F
:1034F000D20C002070B50C4B0C4D1E7CFFF7CAFFA0
:10350000182303FB06550446284602F070FB0022F0
:10351000074B9A553CB1621E2846BDE870400549EC
:10352000D31700F065B870BDA40B00204002002046
:10353000D20C0020D534000838B5EFF311851023E4
:1035400083F31288BFF36F8F0F4B104A9C6810688B
:10355000A04206D1FFF7CEFF85F31188BFF36F8F2E
:1035600038BD00211B7C1160094AD35C002BF3D0CD
:103570002046FFF78FFF0028EED0237CDB0601D129
:10358000FFF746FE2046E5E7A40B0020C40B002011
:10359000D20C0020024B1868984208BF00207047E8
:1035A0006C000020034B1B680BB9FFF72FBA0020FB
:1035B000704700BFCC0B002030B570B10B4B5B687F
:1035C00098420AD0036843B1D3E90421D0E9044505
:1035D000121941EB0501C3E90421D0E9003213605F
:1035E0005A600023C0E9003330BD00BF6C000020EA
:1035F000B3F1FF3F08BFB2F1FF3F2DE9F84F04469A
:10360000994615461F467AD08160EFF31188102342
:1036100083F31288BFF36F8FB9F1000FDFF8E4A0D6
:1036200020DBFFF7BFFFDAE90027013549F1000988
:103630002D1849EBE07306464FF00109C4E9045325
:10364000AD1843EB0707FFF7A5FF0346DFF8B8E027
:10365000DEF804A0EBB9C4E900EACAF80040CEF8ED
:10366000044028E06FF00103DAE900125B1A4FF022
:10367000FF3161EB02025B1B62EB0902012B72F16D
:103680000001BCBF012300224FF00009C0E9043251
:10369000D9E7D3E9041CD4E904208A4270EB0C0B6F
:1036A00024DA891A5A686CEB0000C3E90410C4E9F3
:1036B000003214605C60FFF76DFF84420ED1134B43
:1036C0001B685BB9B9F1000F02D1FFF76BFF06462B
:1036D000304602F075FA0021FFF71CF988F31188D3
:1036E000BFF36F8F28463946BDE8F88F521A60EB5A
:1036F0000C005345C4E90420ADD01B68AAE700259F
:103700002F46EFE7580200206C000020CC0B002071
:103710002DE9F047DFF8A8900246C9F800000D46F1
:10372000FFF738FF00260027DFF898804FEAE27E97
:10373000D8E9001350B1D0E9044CA2427EEB0C0A48
:103740001ADAA41A6CEB0E06C0E9044600245218DB
:1037500043EB0E032046C8E90023C9F8004002F0FD
:103760002FFA2146FFF7D6F885F31188BFF36F8F44
:10377000BDE8F047FFF7E0BE611843EBE473C0E932
:103780000467C8E90013FFF717FF01224FF0004359
:10379000C0E9042385F31188BFF36F8F83689847CE
:1037A000EFF31185102383F31288BFF36F8FD9F8DD
:1037B0000020121BC9F80020FFF7ECFEB6E700BF9F
:1037C000CC0B00205802002010B5EFF31184102319
:1037D00083F31288BFF36F8FFFF7E4FE0346054AB9
:1037E000D2E90001181841EBE37184F31188BFF3AB
:1037F0006F8F10BD5802002010B50A46044619B15B
:10380000024B00211B68984710BD00BF646600088A
:103810002DE9F04F8378154685B007469A07D0F812
:10382000048040F19F8000260878002800F09C80EA
:10383000252808D001F1010A01363946C047002881
:1038400080F286808AE091F801B001F1020ABBF1B2
:10385000250FF1D0002401211F2C25D8ABF1200227
:10386000102A06D801FA02F0824B18420ED1032A20
:103870005AD0ABF13002092A08D9BBF12A0F33D153
:10388000630605F1040501D444F020041AF801BBD5
:10389000BBF1000FE0D139462520C04700285DDB91
:1038A000023639465846C9E77F2CE2D9BBF16C0F86
:1038B00029D021D8BBF1680F2CD0BBF16A0F30D0D2
:1038C000BBF14C0F2DD0ABF16302122A00F2A480A1
:1038D000DFE802F02C4EA2A2A2A24EA2A2A2A2A2B5
:1038E000AC9CA2A231A27600BBF12E0FDED1600605
:1038F0003AD444F04004C9E7BBF1740FC6D0BBF121
:103900007A0FC3D0DFE7220648BF44F4007444F0C6
:103910008004BBE7E30548BF44F4007444F48074BA
:10392000B4E744F42074B1E71024AFE70136394618
:1039300015F8040B82E72C684F4B002C08BF1C467F
:10394000A1464B4619F8010B20B9341B04351E194A
:10395000514669E73946C0470028F2DABB7843F0A0
:103960000403BB704FF0FF36304605B0BDE8F08F62
:1039700020061CD5A10549BF073555F8040B25F0D5
:10398000070555F8080B00280DF104094FF00A024D
:10399000BCBF44F480644042494602F06AFA6405C0
:1039A000A0EB090956D44C460DF1040B5EE0E2058C
:1039B00055F8040BE7D5A3054CBF40B200B2E2E7CF
:1039C00024F010040A22A4B2200633D5A10549BF71
:1039D000073555F8040B25F0070555F8080B10B905
:1039E00024F01004A4B20DF10409494602F041FA92
:1039F000E306A0EB0909D6D539463020C047002898
:103A0000ACDBBBF1000F1ED10136CCE744F0100453
:103A100010224FF0780BD7E74BF02002782A7FF482
:103A20003AAFCBF1780242F01002CDE708224FF016
:103A3000000BC9E7E30555F8040BD0D5A1054CBF31
:103A4000C0B280B2CBE7023639465846C04700289C
:103A5000A9DA83E7013639462D20F7E7013C3946DC
:103A60001BF80400C0470028FFF678AF002CF5D102
:103A70004E446DE781280100786B000870470020F4
:103A8000704730B500290446154685B011DB8368C0
:103A90008B420ED96368C068194401AA01F03BFD4E
:103AA00028B96268019B9B1A2B60029B6B6005B072
:103AB00030BD6FF02100FAE770472DE9F0470C4662
:103AC0009CB01146DDE9265790469946249E00F0A9
:103AD00075FA82466846FDF7B5FC35B1002F04DD66
:103AE0003A462946684601F086F963892289E768E3
:103AF000002413441F44A74207D86946259801F0C3
:103B0000A0F900201CB0BDE8F0873D1BB54228BFDE
:103B100035464A462B4640460AEB040101F0BCFA02
:103B20000028EFD12A464946684601F064F92C4442
:103B3000E1E72DE9F7430E4617469946044628B9B2
:103B40004FF0FF38404603B0BDE8F0830029F7D0BE
:103B5000002AF5D083690D8938461D44CB681D4481
:103B6000042329460DEB030201F096FA8046002853
:103B7000E6D146F60813BDF8042071899A4225D192
:103B8000BDF806309942DBD1042338460DEB030221
:103B9000294401F081FA0028D2D146F60713BDF876
:103BA00004209A42CCD1C4E900679DF82830A4F8DB
:103BB0000890A3727389BDF806202B44E3607389D3
:103BC00013442B44043563612561BBE70029E4D02D
:103BD000B6E72DE9F3410E4617461D46044620B9C7
:103BE0004FF0FF3002B0BDE8F0810368002BF7D042
:103BF0004368002BF4D04FF6FF78D4E904139942C0
:103C000015D223685B8923B1E3688B4204BF04317A
:103C10002161042360680DEB030201F03DFA0028E6
:103C2000DED1A37A2BB1D4E903329A4201D3012029
:103C3000D8E72389BDF80610434501F1040203D0FB
:103C4000BDF804C09C450BD115B1BDF804302B80E4
:103C50002369043333603980236913442361C1E746
:103C6000236913442361C8E748B103683BB1436843
:103C70002BB1C068884294BF0020012070474FF0EC
:103C8000FF3070472DE9F3410D46044611460223EB
:103C9000284601AA02F056F8064618BB019F1F2FBE
:103CA00012D92B68A7F12002134403F1200253F824
:103CB000041B934244F8041BF9D12B683B442B604E
:103CC000304602B0BDE8F081C7F120084246014607
:103CD000204602F0B6F83A46296804EB080002F0E4
:103CE000A3F8EAE76FF00206EAE702F0B2B810B50F
:103CF000044601F010FA00F075F8A368984201D963
:103D000001F0A8FA181A10BD70B50D46044601F06E
:103D1000CCFD2A46A0F1200104232046BDE87040D6
:103D200001F0BAB9002373B506460D461446019357
:103D300001F0BBFD0423A0F110010DEB030230469E
:103D400001F0AAF918B9019B2B801B0C238002B04B
:103D500070BD13B50446019101F0A7FD0423A0F145
:103D600020010DEB0302204601F0E2FD02B010BD80
:103D700073B5164605460C4601F097FD0423A0F1E5
:103D8000100144EA064428460DEB0302019401F0B9
:103D9000CFFD02B070BD00F0EEB9382213B5012995
:103DA0000346019208460AD15A6A03F1280401A980
:103DB00001F0E1F908B9019B236002B010BD0229AE
:103DC00003D15A6D03F15804F1E70120F5E710B56E
:103DD00028B1BDE810406C22002102F032B8FCF797
:103DE00029FCF6E7702358436030704773B50C46E2
:103DF0000546164601F08FF9A04203D9284601F086
:103E00008AF904467023A9686A46603903FB1411D5
:103E10002846FFF736FE0028A4BF009B336002B09F
:103E200070BD2DE9F3411E46836805468B420C4662
:103E300090462FD95B1A93422CD3EEB16A46FFF716
:103E400020FE002828DB013C009F44446A462146AE
:103E50002846FFF716FE00281EDBDDE90084284611
:103E60002246414601F042F9002815DB6EB1474574
:103E700012D208F1FF34E9E701396A464144FFF7FD
:103E800000FE002808DB009FE0E74444A74203D37C
:103E90000134DBE74FF0FF3002B0BDE8F08110B431
:103EA00012B110BCFFF7BDBF104610BC7047002315
:103EB00082681946FFF7F3BF08B5302303FB010101
:103EC000086A08B901F0C6F90422BDE8084001F00B
:103ED00000BDF8B513460F461646002102460546BA
:103EE000FCF71AFE044650B933460121284605F175
:103EF0003002FCF711FE10B1002F18BF0446204617
:103F0000F8BD00207047002110B504460846FCF7B4
:103F10007DF904F12001C0B2FDF746FB40B9012153
:103F2000FCF774F904F15001C0B2FDF73DFB08B194
:103F300001F090F910BD10B50446006D08B101F014
:103F4000AAF8206A18B1BDE8104001F0A4B810BD6D
:103F50004379012B07D10368012B04D10079431E5B
:103F600058425841704700207047F0B5056A85B047
:103F7000074628460E46FFF7BAFE796E04463046DD
:103F800000F0A7F80444284601F0C5F80746284683
:103F900001F0C8F80F2201460DF1010001F051FFB8
:103FA00033796A468DF8003021463B46284601F0B9
:103FB00088F8003818BF012005B0F0BD28B1036DA6
:103FC0008B4201D1806E70470020704713B50C46BC
:103FD00001AA416E2046FFF709FF002809DB01997D
:103FE000A26801232046521AFFF759FFC00F02B002
:103FF00010BD0120FBE773B505460C46006D694610
:104000001646FEF743FD024608B101F023F9F179A7
:10401000012904D0204601F0E1FC0028F5D19DF8EB
:104020000330012B04D1204601F0B7FC0028ECD16D
:104030002046B168FFF78DFE0028E6D12046B5F88E
:104040005C20A98DFFF794FE0028DED12046FEF704
:10405000FBFC0028D9D102B070BD73B50C460646F2
:1040600000F041F8E06028B3022801D1356A0DB9AB
:1040700001F0F0F8224631462846FCF71BFED0B985
:10408000284601F012FC012301460DF107022846E3
:1040900001F002F888B9012228460DF1070101F06C
:1040A00018FC10B101238DF807309DF8073003F09C
:1040B0000F03E371002002B070BD0120FBE7436AEB
:1040C00000205A68034613448B4201D20130FAE7BC
:1040D000704710B503684C005A1E0379013B5943E1
:1040E00004FB021010BD1FB504466946006AFEF7C6
:1040F000CDFC08B101F0AEF8206D02A9FEF7C6FCB8
:104100000028F7D19DF80030012B09D19DF802302D
:10411000032B05D19DF80800013818BF012040008D
:1041200004B010BD73B5CB790646042B0D4614467A
:104130001FD10B68012B1CD169461046FEF7A6FC67
:1041400008B101F087F89DF80030032B11D121460A
:104150003046FFF73BFF0028F3D1204601F055FC25
:104160000028EED12A4621463046FFF744FF0028BA
:10417000E7D102B070BD10B50446406EFFF732FEC5
:10418000636A5B685A1E024459421140A26D013AAB
:104190005A43501AA26A53435B1A984228BF1846E2
:1041A00010BD30232DE9F74F03FB0103D3F8209016
:1041B00004460F469046B9F1000F01D101F04AF8CC
:1041C000002AFBD000251560B3F808A0DB680129A0
:1041D0009A444FF0040308BF856E0DEB030255446B
:1041E0002946484600F058FF064638B101264846A1
:1041F00000F051FF304603B0BDE8F08F302303FBE1
:104200000743B3F80AB046F60813BDF804209A42F3
:1042100020D1BDF806309B4501D00326E7E70423F3
:1042200048460DEB03020BEB050100F035FF0028BB
:10423000DCD146F60713BDF804209A42EDD13022B6
:1042400002FB0744BDF80630A3855B445344C8F81D
:104250000030CCE7BBF1000FEBD0DEE7F0B5002477
:104260000646204665B2AB4200DCF0BD51F8247032
:1042700052F824503D440544AF4218BF002046F890
:10428000245088BF40F001000134EBE7002300EB2D
:104290008101884200D3704751F8042D43EA52034C
:1042A0000B60D307F5E770B50368054613F0010608
:1042B000144605D013460A460146FFF7CFFF0646CF
:1042C00021462846FFF7E2FF46B104F18042013A59
:1042D00055F8223043F0004345F8223070BD2DE9F7
:1042E000F74F00273D463C464FFA87F9994516DBC4
:1042F0004FF0FF364FF0000806EB43060196019F92
:1043000053FA88FE4FFA8EFEBE455FFA88F628DB28
:1043100000EBC30040F8044C03B0BDE8F08F4FF051
:10432000000EF04602EB870A51F82EC05AF80469D5
:104330004FF0000BACFB066C36195CEB050C28BF8C
:104340004FF0010B0EF1010E34464FFA8EF6B145D7
:104350006546D844E8DA40F82740454664460137C8
:10436000C2E7A9460025013676B202EB8E0A77B283
:10437000BB4205DC40F82E4008F101084C46BEE780
:104380006FF00307774351F826C05AF807704FF0D3
:10439000000BA7FB0C7C3F195CEB090C28BF4FF00E
:1043A000010BE1463C465D440136E0E7002310B5D1
:1043B0001C465AB2914200DC10BD40F82340013344
:1043C000F7E700231A4610B55CB2A14203DCB2FA4B
:1043D00082F0400910BD50F8234001332243F3E737
:1043E00001234A1150F8220001F01F018B401840B0
:1043F00070474B1E10B55BB2041D1A0603D45A1E3B
:1044000054F8221071B101335BB24BB103F1804219
:10441000013A50F82220B2FA82F2C2EB43139BB267
:1044200018B210BD1346E8E7002310B55CB2A242F3
:1044300000DC10BD51F8234040F823400133F5E77C
:1044400010B5013A52B2130601D5002010BD50F844
:10445000224051F822309C4205D802F1FF32F2D2BC
:104460004FF0FF30F2E70120F0E7002330B5013ACA
:1044700052B2140603D5181E18BF012030BD50F8E3
:10448000224051F82250013A6C402343F1E7F0B545
:10449000002406469C46204665B2AC4500DCF0BDD3
:1044A00051F8247052F824303D1AED1AAF4218BF6B
:1044B000002046F8245038BF40F001000134EBE7FB
:1044C00070B59DF910601D4633460446FFF7C6FEE1
:1044D00030B9324621462846FFF7B2FF012807D0FF
:1044E00033462A4621462046BDE87040FFF7CFBF3D
:1044F00070BD70B59DF910601D4633460446FFF748
:10450000C6FF38B133462A4621462046BDE87040F2
:10451000FFF7A4BE70BD2DE9F04F1D46A7B016AB46
:10452000CDE904310290294610469046FFF761FF1D
:10453000C0EB851424B22146002CB8BF04F11F0142
:10454000634203F01F0306AF384641F3471104F0FE
:104550001F0658BF5E42FFF729FF002E4FEA810079
:104560002CDD002213463844C6F1200E9D421AD895
:104570000126AB00039307EB8503019305F1FF3898
:1045800026AB4FEA450903EB8808002C55DA26AB29
:1045900003EB86062A4656F8881C0298FFF744FF6C
:1045A00027B0BDE8F08F58F823C001330CFA06F1AC
:1045B0000A4340F8042B2CFA0EF2D7E72A4641466C
:1045C0003844FFF731FFD3E75AF8883C53F82120ED
:1045D00026AB03EB810353F8803C6344D31A34BF0A
:1045E0004FF0010B4FF0000B9A4204D0BBF1000CCE
:1045F00018BF4FF0010C5EF8882C013042F82130D2
:1046000041B24945E0DBA6EB0C035E422946384641
:104610005E41FFF73BFE039B294698336B4453F8FA
:10462000802C58F8803C019843EAC273013C48F85A
:10463000803C24B2FFF72AFEA7E7002026AB86F0D5
:10464000010E844603EB860A03EB8E0ED8E730B5E5
:1046500004461D4691B068469DF95030FFF73FFE75
:104660002A4669462046FFF756FF11B030BD30B5E7
:1046700005461C4691B0684693F90030FFF72FFEBF
:1046800069462846D4F8AC30984711B030BD13467F
:104690000A46FFF7ECBF2DE9F04793F900600446A6
:1046A000894692B03146104615461F46FFF789FEEF
:1046B000002840F091803A46494602A8FFF7E7FFFC
:1046C0003B46214602AA0AA8FFF7D1FF02A90846E5
:1046D0003A46FFF7DCFF3B462A4649464846FFF785
:1046E000C6FF07F104083A4629462846FFF7CFFFE0
:1046F00043462A46214620460096FFF7E1FE434600
:104700002A46294628460096FFF7DAFE43462A46FF
:10471000214628460096FFF7ECFE3B462A462146F6
:104720002046FFF7A4FF434622462146284600962E
:10473000FFF7C6FE43462A46214620460096FFF76D
:10474000BFFE2368DB074AD5334642462146204652
:10475000FFF784FD824631462046FFF797FD06F1BC
:104760008043013B54F8232042EACA7244F82320D4
:104770003A4621462846FFF78AFF434629462846FF
:104780000AAA0096FFF7B5FE4346294628460AAA1C
:104790000096FFF7AEFE0AA9084643462A46009651
:1047A000FFF7A7FE3B46214620460AAAFFF75FFF18
:1047B00002AA4346104621460096FFF79AFE32466B
:1047C00029462046FFF730FE49462846FFF72CFED3
:1047D000484602A9FFF728FE12B0BDE8F08731462F
:1047E0002046FFF753FDC3E72DE9F04115468AB097
:1047F00004460E461C22002103A801F022FB0323DD
:1048000095F900802A46314620462F1D0293FFF776
:104810003EFF3B462146204602AACDF80080FFF726
:1048200068FE2B46324621462046FFF720FF3B46D6
:1048300021462046CDF8008005F18402FFF740FEB6
:104840000AB0BDE8F081F0B50F460646A1B01946A2
:10485000384615461C46FFF7B4FD28B1304621B056
:10486000BDE8F040FFF7A2BD224639466846FFF793
:10487000DBFD294608A8FFF7D7FD10A82146FFF762
:1048800095FD012318A81093FFF790FD2246684676
:1048900008A9FFF7D5FD30B92246304610A9FFF729
:1048A000C3FD21B0F0BD009BDA0709D4214668465C
:1048B000FFF7ECFC2246294610A8FFF7F4FCE5E7D9
:1048C000089BDB0707D4214608A8FFF7DFFC224638
:1048D000294618A8F1E7012823461CD108AA6946F1
:1048E0006846FFF7D4FD21466846FFF7CFFC224615
:1048F00018A910A8FFF7A4FD013005D110A923467F
:104900002A460846FFF7AAFC10A92346084618AA1B
:10491000FFF7BDFDCEE76A4608A8FFF7B8FD2146C0
:1049200008A8FFF7B3FC224610A918A8FFF788FDD6
:10493000013005D118A923462A460846FFF78EFC08
:1049400018A92346084610AAFFF7A1FDBFE7F0B556
:1049500015461C4607460E4689B01A462946684643
:10496000FFF795FE23466A4639463846FFF77FFE35
:1049700023462A4669466846FFF779FE23466A467B
:1049800031463046FFF773FE09B0F0BD2DE9F04720
:104990008AB0DDF848A01446554680461F46894631
:1049A00015F9046B02462B46214602A80096FFF734
:1049B000A0FD02A952460846FFF769FE534641464C
:1049C000404602AAFFF753FE53462146204602AA5C
:1049D000FFF74DFE2B464A46394638460096FFF70C
:1049E00088FD5246394602A8FFF751FE02A92B4620
:1049F000424608460096FFF77CFD02A92B46224658
:104A000008460096FFF775FD2B4642462146204694
:104A10000096FFF76EFD5346224649464846FFF78B
:104A200026FE2B464146204602AA0096FFF761FD6E
:104A30005346224639463846FFF719FE2B464A466A
:104A4000394638460096FFF754FD3246204602A903
:104A5000FFF7EAFC0AB0BDE8F087F8B50E46D11CB6
:104A600048BF911D144641F38701FFF79FFC0025C5
:104A7000671E6AB2A24205F1010500DBF8BDBB1A50
:104A800023F00301B25C03F00303DB009A404358B8
:104A900013434350EDE72DE9F0471F46B3F90230C9
:104AA000064613F11F0448BF03F13E046511DC1DE7
:104AB00048BF03F10E04E410944228BF1446884610
:104AC0004FFA85F94946FFF771FC224641463046C8
:104AD000FFF7C3FFB7F90220E300B2EBC40F20D207
:104AE00000219B1A06EB8504C3F12005A6420FD3D3
:104AF00024374A4631463846FFF7A2FC012810D039
:104B00004B463A4631463046BDE8F047FFF7BFBC5A
:104B100054F8040D20FA03F20A43226000FA05F16A
:104B2000E4E7BDE8F0872DE9F04FFDB0869D1E4615
:104B3000B5F90230059213F11F0248BF03F13E029E
:104B40000023834642F3471808F1FF3924AA42F8AC
:104B500029307CAA95F9004002EB890242F8C03C5A
:104B600042F8A03C0F4695F9012001466CA8FFF7DA
:104B700074FFA30095F9012007936CAB03EB840A43
:104B80000BEB02015046FFF768FF314695F9012013
:104B90004CA8FFF762FF95F9012054A8B118FFF760
:104BA0005CFF21464CA8FFF70CFC18B100207DB03B
:104BB000BDE8F08F214654A8FFF703FC03900028BE
:104BC000F4D105F12403424618464CA90493FFF79B
:104BD00037FC0128EAD1424654A905F12400FFF729
:104BE0002FFC01280690E1D11CAE4346304605F16A
:104BF000240254A9FFF727FE039B0DF1300B394621
:104C00004BF8293058462B46059AFFF744FF3246A9
:104C10005946584605F12403CDF80080FFF717FDEB
:104C20005CAF05F1240332464CA914A8CDF80080EE
:104C3000FFF70DFD384622466CA9FFF7F5FBA300F0
:104C400007EB0309514648462246FFF7EDFB05F105
:104C500044039A461946224634A8FFF7E5FBA30011
:104C60000AEB030122463CA8FFF7DEFB39462B1D69
:104C7000304634AA00940593FFF73BFC4B463A4676
:104C80003CA934A80095FFF781FE23463146304603
:104C90002A1DFFF7D8FD2B46494638463246FFF716
:104CA00056FE039A4146CDE9082A58466CAACDE93A
:104CB0000A27FFF79EFB4146814614A8FFF799FBA0
:104CC0008145B8BF81461FFA89F909F1FF3A0FFA09
:104CD0008AFA51465846FFF783FB5146074614A807
:104CE000FFF77EFB003818BF0120003F18BF0127E7
:104CF00008AB47EA400753F827702246394624A8F4
:104D0000FFF792FBA300F91822462CA8FFF78CFBB3
:104D100021463046FFF74AFB069BA9F102093360A2
:104D20000FFA89F9B9F1000F21DA234631463046EE
:104D3000059AFFF788FD2B4632462CA924A8FFF7D9
:104D400006FE4246049824A9FFF77AFB012805D005
:104D500024A943460846049AFFF799FB22464CA92A
:104D600024A8FFF782FBB0FA80F040091FE72B462A
:104D70003246D5F8A4702CA924A8B84749460CA8F7
:104D8000FFF72EFB4946074614A8FFF729FB00381A
:104D900018BF0120003F18BF012708AB47EA4007B2
:104DA00053F8277027B32246394634A8FFF73CFB57
:104DB000079B2246F9183CA8FFF736FB2B463246E4
:104DC0003CA934A8FFF7C3FD059B34AA24A944A835
:104DD0000094FFF78EFB2CAB24AA3CA934A80095C5
:104DE000FFF7D4FD2B463146304644AAFFF73FFC7F
:104DF00009F1FF3994E7F8B50C4610B1F9B10AB9D9
:104E00000120F8BD00278D1800F12806AC42F7D02C
:104E1000836E5A1C826614F8011B03443F2A83F8F0
:104E20002810F3D93146FCF721FAD0E9083213F5FE
:104E3000007342F10002C0E908328766E6E70846DF
:104E4000DFE7F8B50C46054600284BD000294AD0CC
:104E50008B6ED1E90821D800121841F10001C4E994
:104E600008218022581C38282344A0664FF00007F0
:104E700083F8282004F128060BD9C0F140023946F6
:104E8000304400F032F820463146FCF7EFF938465E
:104E9000A766C0F138020021304400F026F8236AEA
:104EA000626A1BBA12BA3146C4E918232046FCF7DD
:104EB000DDF92B1D211F243551F8042F0433100E6A
:104EC00003F8080C100C03F8070C100A03F8060C82
:104ED00003F8052CAB42EFD120467022002100F0F0
:104EE00004F80120F8BD0846FCE700F0AABF10B5A1
:104EF000036A0446D8688368DB689847236DD868DE
:104F00008368DB689847012010BD002070470FB40C
:104F100007B504A951F8040B0191FCF7E1FA03B0BD
:104F20005DF804EB04B0704770472DE9F0411E4670
:104F3000436801205C688840D4F804C0C2F3801341
:104F40002CEA000C8B4043EA0C0390FAA0FCBCFA5C
:104F50008CFC4FF003086360D4F808E04FEA4C0C77
:104F600008FA0CFC2EEA0C0E90FAA0FCBCFA8CFCA1
:104F7000C2F3C1134FEA4C0C03FA0CF390FAA0FCF5
:104F8000BCFA8CFC43EA0E03A360D4F80CE04FEAB1
:104F90004C0C08FA0CFC2EEA0C0E90FAA0FCBCFAA1
:104FA0008CFCC2F341234FEA4C0C02F0300503FAAB
:104FB0000CF343EA0E03202D6FEA0007E36017D1DC
:104FC000072934D890FAA0F3216A73B3B3FA83F3B4
:104FD0004FF00F0C9B000CFA03F321EA030190FA47
:104FE000A0F3B3FA83F39B0006FA03F30B432362A7
:104FF000E36AD2044CBF03433B40E36290FAA0F360
:10500000B3FA83F390FAA0F00321B0FA80F022689B
:105010005B0001FA03F340002D0922EA03038540F7
:105020001D4325600020BDE8F0812B46D0E7030A30
:10503000D4F824C093FAA3F189B1B1FA81F193FABB
:10504000A3F34FF00F0EB3FA83F389000EFA01F1C8
:105050009B002CEA01019E400E436662C8E7294688
:10506000EDE70FB407B504A951F8040B0191FCF763
:1050700037FA03B05DF804EB04B07047002908DB91
:105080008068884205D9401A904234BF0020012030
:10509000704700207047704770B516461A4605469F
:1050A0000C46FFF7EBFF48B16968E8682144826865
:1050B00014683246A446BDE8704060476FF01500A2
:1050C00070BD70B516461A4605460C46FFF7D6FF6A
:1050D00048B16968E8682144826854683246A44649
:1050E000BDE8704060476FF0150070BD10B50B460D
:1050F0000446FFF7C3FF40B16168E0681944836864
:105100009B682BB1BDE8104018476FF0150010BD2B
:105110006FF05700FBE708B5C0688368DB68984705
:10512000006808BD08B5C0688368DB6898474079A7
:1051300008BD30B54C680368A34201D2012030BDE0
:105140008A682244934201D30020F8E7D1E904524F
:10515000954203D36FF00B038B61F5E7CA681B1B05
:1051600042F835304368086902EBC00253600B69AE
:1051700001330B61E2E737B50C46C0B201A9154611
:10518000FCF712FA00280CDB019850B121462A46A0
:10519000FCF730FA04460198FFF77DFF204603B084
:1051A00030BD6FF01504F9E700F04BBE00F03CBED7
:1051B000012801D1EFF30583FDF7B8BD0146006872
:1051C000FFF7F6BF08B5FCF769FABDE80840FCF741
:1051D000D9BC00210120FFF7EBBF036E83F30B88DE
:1051E00070476FF08500704761B662B680F3118832
:1051F000BFF36F8F704772B6002383F31188BFF33C
:105200006F8FBFF34F8F30BF62B6BFF36F8F7047A2
:1052100040E800F313F4803FD8B208BF6FF01500E8
:10522000704730B50C684B6885B00A894D89009489
:10523000013B24F01F04234402F01F0242EA4512FE
:1052400023F01F0369468DF808200393FCF74AFDFD
:1052500005B030BD08B5FCF725FF002008B50B21CF
:10526000FCF7A2FF024601460B20FCF711FC0022CE
:105270000C210120FCF798FF11460C20FCF708FCDC
:1052800000220D210220FCF78FFF11460D20FCF7B4
:10529000FFFB00220E210320FCF786FF11460E20A3
:1052A000FCF7F6FB00220F210420FCF77DFF1146DE
:1052B0000F20FCF7EDFB002210210520FCF774FF06
:1052C00011461020FCF7E4FB002211210620FCF718
:1052D0006BFF11461120FCF7DBFB00221221072097
:1052E000FCF762FF11461220FCF7D2FB00221321CB
:1052F0000820FCF759FF11461320FCF7C9FB0022D8
:1053000014210920FCF750FF11461420FCF7C0FBC4
:10531000002215210A20FCF747FF11461520FCF753
:10532000B7FB002216210B20FCF73EFF114616208A
:10533000FCF7AEFB002217210C20FCF735FF1146CD
:105340001720FCF7A5FB002218210D20FCF72CFFED
:1053500011461820FCF79CFB002219210E20FCF7B7
:1053600023FF11461920FCF793FB00221A210F207E
:10537000FCF71AFF11461A20FCF78AFB002008BD33
:10538000012001F01F018840704710B50F24C200B2
:1053900000F00C0000F1884000F50830036E02F0C8
:1053A0001802944023EA040391400B43036610BDA6
:1053B0000B8882B0C3F30B0303F67872C2F30B02BF
:1053C000202A14D803F1884303F503331A68486888
:1053D000024300201A600B88C3F30B0303F18843D8
:1053E00003F503331B680193019B02B070476FF014
:1053F0008500FAE70B88C3F30B0303F67872C2F358
:105400000B02202A9FBF03F1884303F503331A6878
:1054100049689BBF00208A436FF085001A6070477F
:10542000012806D006380B2834BF00206FF0850015
:1054300070470020704770B508884B68C0F30B00B8
:105440009AB2C3F30445FFF7EBFFA0B9FF2B11D0CD
:1054500002F188410122C3F34156013601F50331BF
:10546000B2400C68013AAA401B0E24EA0202AB408B
:1054700013430B6070BD6FF08500FBE7088808B52B
:10548000C0F30B0000F67873C3F30B03202B0AD88C
:1054900000F1884000F5033002684B6893430CBF6D
:1054A0000220012008BDFFF7BBFF00280CBF02202F
:1054B0000120F7E7F7B51C460023164682682360F3
:1054C000A3600D465369694601AA9847019B5A1E7D
:1054D00001921BB96FF0150003B0F0BD0098A268EF
:1054E00047682168676085B9B31AD0F800C0634582
:1054F00028BF634603FB07111A442160A2600268BB
:105500009A4206D808300090E0E76B1AB3FBF7F335
:10551000EBE70020E0E713460022FFF7CBBF2DE9C1
:10552000F0470024836886B0884691465B6902AAEA
:1055300001A99847A2462546029BAB4202D806B075
:10554000BDE8F0870026019F07EBC5077B68049341
:105550003A680AEB0603B24202D89A460135EBE7F5
:1055600049460394059303A8C0470028E7D0049B4D
:1055700001361C44ECE74FF0FF324FF0FF330430AC
:10558000FDF732BD70B51C461546002322460E4677
:1055900000F09FF840B12CB12246284606F1006188
:1055A00000F042FC002070BD6FF01500FBE700200A
:1055B000704708B5006904300122114600F066FA10
:1055C000FFF7F5FF00EAE07008BD73B50646C82294
:1055D0000023684600F040FBDDE9004533691B68A5
:1055E0001A6A12F4C02214D01A6A02F4C0221A6293
:1055F0006FF0040002B070BD002AF9D122462B469C
:10560000684600F04EFBDDE9003213430CBF012277
:10561000002233691B68186A10F00100ECD1E9E739
:1056200070B5012305460E46144600F052F8F8B155
:10563000CCB12869FFF79FFF00212846FCF7A8FF9F
:1056400098B9314622462846FCF7C4FF0646012198
:105650002846FCF79DFF002E14BF344604462869F7
:105660000430FDF78DFC204670BD6FF00406EEE7B8
:105670006FF01504F7E7F8B51C46174601232246DC
:1056800005460E4600F025F800B3D4B12869FFF7AF
:1056900072FF00212846FCF77BFFA0B93146234664
:1056A0003A462846FCF7F8FF064601212846FCF753
:1056B0006FFF002E14BF3446044628690430FDF7FE
:1056C0005FFC2046F8BD6FF00406EEE76FF01504AE
:1056D000F7E77FB506460D4614461BB141EA0203C3
:1056E0001B0710D12946304601AAFFF714FF50B915
:1056F000013C304601AA6119FFF70DFFB0FA80F0B6
:10570000400904B070BD0020FBE7436800205B68DF
:105710001B690B60704743685B68586942400A40E8
:1057200042405A6100207047436800205B689961DD
:105730007047436800205B689962704743680020A7
:105740005B685A6951405961704730B50369986880
:1057500000B30024884219D108688CB9DC689860CD
:10576000A14200D1D860002008602AB19A680A607E
:10577000DA68996002B9D96000200FE02846E9E7AD
:105780002060D868814208BFDC60ECE70568044609
:10579000002DF3D1002AE9D16FF0150030BD12F4CD
:1057A000003CF8B50C46134641D0960738D555074E
:1057B0005BD55022D90635D542F4007203F4C0619E
:1057C000B1F5806F43D0B1F5C06F3DD0B1F5007F2A
:1057D00040D013F44036056912D06F6827FA04F1FF
:1057E000C9075FBF0121A14039436960BCF1000FC7
:1057F00006D01F0331D501234168A34049688B615E
:1058000000232146FFF791FB46B96B6823FA04F2A7
:10581000D20741BF0122A24093436B600020F8BD34
:105820001022C7E79F06C9D542F48062C6E7D603B7
:1058300005D5D50605D4C2F340129202BEE7302248
:10584000BCE74FF40072B9E742F4C072C1E742F41A
:105850008072BEE742F08002BBE75903D0D5012336
:105860004168A34049688B62CAE76FF08500D6E7BC
:1058700070B50B690E469968054609B10C6801B907
:1058800070BD8A682A4002D030464B6898471CB1E8
:10589000236821461C46F2E72346FAE74FF0E02250
:1058A000136923F00103136170478068203820F0EA
:1058B0000F0020387047042809D0052803D1481E5E
:1058C00018BF01207047431A5842584170470120C1
:1058D000704738B515460C4661B15AB1FFF722FC46
:1058E0002146254411F8013B834203D1A942F9D155
:1058F000012038BD0020FCE738B50C4601231146D5
:1059000022460546FFF7C8FB00280FDB012221468F
:105910002846FFF7DEFF18B103230020237038BDAF
:105920002378012B14BF02230123F6E70120F6E7B9
:105930002DE9FF471D4606460F469046FFF7EBFB55
:105940006C1E044440420440102C01D9FFF782FC35
:105950003046FFF7E7FB82462A464146684600F09C
:1059600063FA5146621B0DEB050000F06AFA23460C
:105970006A4639463046FFF7A4FB003818BF0120BD
:1059800004B0BDE8F08707B501238DF8042001AA13
:10599000FFF7CEFF03B05DF804FB816801222039D8
:1059A00021F00F01FFF7EFBF8268203A22F00F02CB
:1059B000FFF7A2BF13B50C46C0B201A9FBF7F4FD77
:1059C00050B921460198FDF761F804460198FFF7A8
:1059D00062FB204602B010BD0124FAE70E2A13B57F
:1059E000044601D9FFF736FC0E29FBD841EA021123
:1059F0008DF80710FFF759FF012301460DF107024B
:105A00002046FFF795FF02B010BD816801222039C2
:105A100021F00F011039FFF7B6BF10B543690446F6
:105A20003BB90020E2684042537843F001035370D1
:105A300010BD98470028F4D00028B8BF4042FF2886
:105A4000A8BFFF20E3681870ECE740B1C36858783E
:105A500010F001001EBF1878B0FA80F040097047BE
:105A6000EFF31183102383F31288BFF36F8FFEE7E8
:105A700008B5FFF7F5FF102408B5EFF3118384F3A1
:105A80001288BFF36F8FFFF7B6FBF6E73AB18A4291
:105A900005D3C0E90212C0E90000002070476FF092
:105AA00015007047D0E9003213605A600023C0E946
:105AB0000033704708B5FFF7F5FF037C23F00203BE
:105AC00003740023836008BD38B504460D46FDF716
