:10000000C03600200D36000009B60000F9350000AA
:10001000F9350000F9350000F93500000000000056
:10002000000000000000000000000000E9360000B1
:10003000F93500000000000015390000F935000016
:100040008D390000C14E00008D3900008D3900004F
:100050008D3900008D3900008D3900008D39000088
:100060008D3900008D390000A14B00008D39000052
:100070008D3900008D3900008D3900008D39000068
:100080008D3900008D3900008D3900008D39000058
:10009000614F00008D3900008D3900008D3900005E
:1000A0008D3900008D3900008D3900008D39000038
:1000B0008D3900008D3900008D3900008D39000028
:1000C0008D3900008D3900008D3900008D39000018
:1000D0008D3900008D3900008D3900008D39000008
:1000E0008D3900008D3900008D3900008D390000F8
:1000F0008D3900008D3900008D3900008D390000E8
:10010000014B1B685B681847C0040020014B1B684B
:100110009B681847C0040020014B1B681B691847E7
:10012000C0040020014B1B685B691847C004002015
:10013000014B1B689B691847C0040020014B1B68DA
:10014000DB691847C0040020014B1B681B6A184775
:10015000C0040020014B1B689B6A1847C0040020A4
:1001600030B4044C9DF8085024680295E468A44615
:1001700030BC6047C00400206B0300007103000026
:10018000730300009903000077030000A30300003D
:100190007D030000AD03000083030000B9030000ED
:1001A0008F03000093030000850300008B03000011
:1001B000A9030000B303000030B50346114890F9CD
:1001C0001C209A4219DD90F924209A4217DA9A1AD3
:1001D000846AA05C0C4A15569D420DD00E3200294F
:1001E00018BF01309442C0B206D129B1013BDBB245
:1001F000012B01D80130C0B230BD0D20FCE700203A
:10020000FAE700BFD807002000C3000008B5054B7F
:1002100093F91C30984203DAFFF7CEFF024B1B56CE
:10022000184608BDD807002000C3000008B5184BC9
:1002300093F82C20FAB9012283F82C20154A126871
:10024000A2F10800082803D813490141C90709D5BC
:10025000911F092910D9013212D04FF4DF71742097
:1002600000F034F80D4A9A62D8221A6283F82420EA
:1002700008229A611A7708BD094A0A41D207ECD4CC
:10028000084A9A62D8221A6283F824200422F0E7EE
:10029000D807002088090020DEFEFFFF3BC30000D6
:1002A000EEFCFFFF0EC30000BFF34F8F0549064B66
:1002B000CA6802F4E0621343CB60BFF34F8F00BF04
:1002C000FDE700BF00ED00E00400FA051FB572B6BF
:1002D000134B5D6895B9FFF7E7FF2346B2FBF6F2D3
:1002E0005C1C002AF9D104AEDCB256FA83F303F8A1
:1002F0000C2C0A2234B901A8A847ECE702460023D7
:100300000A26EDE7631E04AEDCB256FA83F3B0FBB7
:10031000F2F602FB1600303003F80C0C3046E9E729
:10032000500900204FF08052034BD2F83011196071
:10033000D2F834215A6070478809002008B5FFF7C9
:10034000F1FFBDE80840FFF771BF801A00F3070016
:1003500038B540B20D4659B21446FFF757FF002397
:1003600028706B70204440B238BD00230360704792
:100370007047002070474FF0FF3070474FF0FF305C
:10038000704770474FF0FF307047002070470020E3
:1003900070470023037070479DF800300022FFF77C
:1003A000D4BF4FF0FF307047002070474FF0FF3050
:1003B00070474FF0FF3070477047034613F8012B2A
:1003C000002AFBD1181A01387047000000B50178E7
:1003D0000129A1B00CD0022939D000293CD12148F3
:1003E0000AF006FE204821B05DF804EB08F0A2BA3E
:1003F0001E480AF0FDFDBFF35B8F1D4B53E8002F35
:1004000043E800100028F9D1BFF35B8FEAE79DF8BD
:10041000481001AA0DF14D000AF0B1FDB8B19DF8E8
:100420000430012B13D1049A8DF814200DF14D01E5
:10043000D2B20DF115000BF044FD0E48002200234E
:1004400005A90BF099FC50B90B480AF0D1FD12A890
:1004500005F0D4FA0028DAD021B05DF804FB074893
:10046000F3E700BF9C100020B80700209810002080
:10047000941000206007002090100020A41000209D
:1004800030B5254C302591B02A46002120460BF08E
:1004900026FD22480022002303A907F0ABFFD8B9AC
:1004A0009DF80C200DF10D0120460BF00AFD1C48B3
:1004B0000AF09EFD30221B4B17491B48009207F0A3
:1004C00057F8044628B1194A0346012118480BF091
:1004D00029F8204611B030BDE723237073236370E1
:1004E0001448E5700123A3700AF07CFD20711248C6
:1004F0000AF078FD607111480AF074FDA07110488F
:100500000AF070FDE0710F480AF06CFD20720E4891
:100510000AF068FD6072CDE77418002060070020C3
:100520008C100020A4180020C404002060C5000026
:1005300068C20000AC100020A8100020A410002009
:100540009C10002098100020A010002070B50378A7
:10055000012B92B03ED1374B4268BFF35B8F53E81B
:10056000001F43E80024002CF9D1BFF35B8F4568DE
:100570000469302D32D12378A52B2FD163785A2BE3
:100580002CD1A378012B29D1E378012B26D12E2160
:1005900020460AF0DAFCE68DB0421FD18DF81450E7
:1005A0000DF1150304F1300254F8041B43F8041B49
:1005B0009442F9D120480022002305A90BF0DCFB6E
:1005C00050B91E480AF014FDFFF75AFF10B11C483D
:1005D0000AF00EFD12B070BD1948F3E7002301AA1E
:1005E000294620468DF804300AF0C9FCB0B19DF8C8
:1005F0000430022B12D1049A8DF814202146D2B275
:100600000DF115000BF05DFC0B480022002305A93D
:100610000BF0B2FB0028DFD10A48D3E701AA294634
:1006200020460AF0ACFC18B19DF80430032BCBD067
:100630000548C7E7A01000208C070020AC10002060
:10064000A410002088100020A81000202DE9F04FF1
:100650009FB0964D00AF3522002107F140000BF00E
:100660003EFC0FCD07F10C040FC42B682360002360
:100670003B758F4BBB6130237B770123FB770825CC
:100680008C4BBD7507F10C003B6104F0D1FF0446B3
:1006900098B9894805F02EFA044670B9874805F0E4
:1006A00043FA044648B98648294605F055FA0446F7
:1006B00018B9502005F076FA04466D468AB06A46AD
:1006C000804B0593502100234FF030084FF005096F
:1006D000CDE90613CDF8208042F8109F7A484FF4F8
:1006E000235101F0C7FFAD4654B1784A23467648FE
:1006F00001210AF017FF20467C37BD46BDE8F08F88
:10070000734E0FCE07F10C050FC596E8070085E87C
:1007100007002246494623200325BD7703F026F82B
:1007200023466C4A6C4807F10C0106F0E7FE0446CC
:1007300010B16A4A0346DAE7FFF7A2FE0446002832
:10074000D9D1674A604829460AF0E3FEA7F84080FD
:1007500087F84340634A5C48634E29460AF0D9FE55
:10076000A146A04661484FF4A472002307F10C0192
:1007700007F040FEB0B1C3237B734FF49E73651C3A
:10078000FB817C740323240A072107F10D003B74CD
:10079000BC7487F813800AF0D8FBADB20923B88285
:1007A0003B732C463D7B07F10D012A4607F14500BE
:1007B0000BF087FB87F84050BFF35B8F56E8003F94
:1007C00046E80082002AF9D1BFF35B8F07F14000B1
:1007D00005F06AF8054618B145480AF009FC17E02B
:1007E00044484FF0FF324FF0FF3308F01FF9BFF3DA
:1007F0005B8F56E8003F012B03D146E80052002AE8
:10080000F7D1BFF35B8F03D105F042F90028E3D1A4
:100810000BF03EFB4FF47A72A0FB020302FB0133A4
:10082000C50B45EA4345A5EB090241F287339A42DD
:1008300098D931480AF0D6FB834630480AF0D2FBFB
:1008400082462F480AF0CEFB81462E480AF0CAFBAA
:10085000024627480AF0C6FB01462B480AF0C2FBB5
:1008600003462A480AF0BEFB786029480AF0BAFB22
:10087000C7F800D08EB00B937B68DFF898C0CDE945
:1008800009216A46CDE90C300A23CDE905CBCDE933
:1008900007A942F8103F0C48002345F2C00101F0BF
:1008A000E9FEA946D7F800D05CE700BFD0C200003F
:1008B000F4010100CD030000B4F60000B0F6000022
:1008C000A8F600007CC5000068C20000B4C50000A6
:1008D000E4C200004D050000C4040020C8C50000AB
:1008E000E2C5000018C60000941000208C0700200C
:1008F00098100020B8070020AC100020A81000209D
:10090000A41000209C100020901000208C100020CB
:10091000881000204BC600002DE9F84F04460AF06D
:1009200073FBB0FA80F0C0F11F0004EB8006CD002D
:10093000D6F8109005F1040A0B4606358FB2B9F1CE
:10094000000F0AD1E268012181400A43E26033616D
:1009500024F80A706753BDE8F88F4FEAC9060436D9
:1009600034F806B04FEACB0808F1060834F808302E
:1009700099450CD00A4A0B4801210AF0CAFD002310
:1009800083F31188BFF36F8F0423184602DF24F826
:100990000AB024F8059024F80870A753DBE700BFDD
:1009A000AFC60000A0C20000B2F5802F2DE9F843C9
:1009B0000ED33E493E4A3F484FF437730AF091FB4D
:1009C0003D480AF08EFB4FF4377139480AF080FB3E
:1009D000042A0CD83949364A364840F2E3230AF053
:1009E00080FB37480AF07DFB40F2E321EDE7043A53
:1009F000CD1D114425F0070521F00706A6EB0508DB
:100A0000B8F1170F4FEAD8070CD82E49284A2948C1
:100A10004FF43B730AF065FB29480AF062FB4FF480
:100A20003B71D2E7B7FA87F4C4F12002C4F1240481
:100A3000A4000734E408631C4FF00009BB420560C2
:100A4000AF60C5F80C900CD91F49194A194840F2FB
:100A500002330AF046FB1A480AF043FB40F2023127
:100A6000B3E74946920005F110000BF038FAA2B244
:100A7000530043F001036B803B1B9BB205EBC401A9
:100A80005800A5F80090488025F83420A6F8029078
:100A900025F8083005EBC70321465A8842F00102C9
:100AA0005A802846BDE8F843FFF736BF4BC7000021
:100AB000D3C6000011C7000061C7000078C700005E
:100AC00099C70000B2C70000DBC700002DE9F04F56
:100AD00091B08407009302F004030293C2F3C203AF
:100AE00003F10103DDF868A0039205460E46059365
:100AF00040F0C881041D002838D101F00706341DDC
:100B0000C6F10806009B4FF000085A1E04274FF05C
:100B1000FF330193CDF81080C146C3463B460DB16B
:100B2000009921600598002800F3C180944800993D
:100B3000814203D393488142C0F0B980039911F0F8
:100B4000020CA4EB050040F0CB80B9F10F0F40F28E
:100B5000CA808D498D4A8E4840F281230AF0C1FA3D
:100B60008C480AF0BEFA40F28121B6E00729C9D8C4
:100B70006FF01B0011B0BDE8F08F7A285AD84B28CF
:100B80000FD8472856D829282DD825284FD051D8F6
:100B9000202818BF23280CBF4FF0010B4FF0000B8B
:100BA0006EE04C382E2845D8DFE800F06A44444413
:100BB00044444444444444444744444444444444F2
:100BC00044544447475454546A4768446A44184755
:100BD0001844447C7A47444447447A0000204FF04C
:100BE000000B042734E02A38C0B2012101FA00F0DA
:100BF00010EA0E0F44D110F0625C2BD110EA010B09
:100C00003ED06046013C3C44B4FBF7F47C4325B144
:100C1000A3EB050CA444B445AAD8002800F09780A3
:100C20000599013905915AF8041B009177E701995C
:100C3000013901914FF0000B22E012F8010C6C28F1
:100C400032D112F8023C00206C2B8346C9D1082710
:100C50003B46D7E70AF1070A2AF0070A0734FAE801
:100C600002BC24F0070435B106982044B0423FF698
:100C70007FAFC4E900BC08344FF0000B08273B46A7
:100C800012F8010F002800F08980BBF1000F7FF4FB
:100C900074AF2528F4D1019B013301934FF0010B70
:100CA0000427ECE758469AE700208346AAE7039911
:100CB00088072FD5601B4FF0010CB0F5007FFFF4C3
:100CC00044AF3149314A32484FF41F730AF009FAF0
:100CD00031480AF006FA4FF41F712C480AF0F8F96F
:100CE0004FF0000CE9E705B309F140010DEB010EEF
:100CF000C0F3870001990EF8200C0EF8101CBCF10F
:100D0000000F0ED060F07F000EF8200C08F10108F3
:100D100009F10109C5F10801043406914FF6DA7EA4
:100D2000AEE7049801300490F2E7BCF1000F01D067
:100D30000136EDE7029802360028E9D10098CDE9A6
:100D40000632FFF73AFBDDE906320644E0E7042B02
:100D500008D10AF1040015B1DAF80010216004345A
:100D600082468DE70AF1070323F0070303F1080A1F
:100D70001DB1D3E90001C4E90001083408237FE76D
:100D8000C4BF000008F700008FEB00000EC8000091
:100D900011C700005DC800003CC80000631BB3F52C
:100DA000806F0CD339493A4A3A4840F2D2230AF0CC
:100DB00098F939480AF095F940F2D2218DE71DB92A
:100DC000A6F10804E018D5E6029A28609B082B706B
:100DD0009DF81030BAB1EB7085F80280B8F1000FC1
:100DE00005D008A80022C5F1010791450DD1C5F134
:100DF000010308AF4FF0000A01930DF1300BD1450C
:100E000012D1601BB6E66B70E6E710F8013B1906DD
:100E100008D507EB040CB44503F07F033FF6A8AEFA
:100E200004F8013B0132E0E7B8F1000F03D097F975
:100E30000020002A16DB029BC3B11AF80B2004F82D
:100E4000012B0022019B18191044B0423FF690AECE
:100E5000387804F8010B0099039220460BF031F822
:100E6000039A14440AF1010A0137C8E73A7855F8A1
:100E700022300093029B45F822300098FFF79DFA3C
:100E8000421CDFE76FF00D0074E600BF8FEB00003F
:100E90000EC8000011C7000077C800002DE9F04F10
:100EA00095B000AFC7E908328A46054658B99A4955
:100EB0009A4A9B4840F299330AF013F940F299316B
:100EC00096480AF005F949B903784678807800EB2E
:100ED00083002844564521D8A0EB050ABB6F95F83E
:100EE0000280BC6F03F001033B61EB78FB61B8F15A
:100EF000000F0CBF002404F0010413B1BB6F9A076C
:100F000015D4A4B97B6A1BB13A6A51462846984762
:100F1000564630465437BD46BDE8F08F441C204647
:100F2000FFF74BFA013020440AF1010AD2E7BB6F08
:100F3000C3F3C0037B612B78FB609B007B606B6815
:100F4000BB60FB6805EB830B7B6A002B71D15646B7
:100F5000D844ACB11C461BF8013B55F82300FFF701
:100F60002CFAFB6F01303BB1D7F88030A34282BF2F
:100F7000FB6F23F814000134C3450644EBD1D84677
:100F8000BB6F13F0050F0CBF4FF0020B4FF0010BBE
:100F90004FF00009FB699945BBD298F8013055F82C
:100FA00023A0604B9A4508F10208C0F080815E4B97
:100FB0007A699A452CBF002301230AB318F8021C52
:100FC000B8687B620AF056F87B6AC8B1EA468AB014
:100FD0006A46564B0593BB68CDE906314FF4007362
:100FE000ADF82030524B42F8103F524800234FF4E6
:100FF000125101F03FFB023ED54609F10109C9E754
:1010000023B13B692BB9A6EB0B06F6E7BB6F9B0739
:10101000F3D55046FFF7D1F9FB6F43B1D7F88030D5
:101020009C423FBFFA6F431C22F81430013406443F
:10103000E3E7002C64D1B8F1000F67D0BB6F58070D
:1010400067D5C14607F14000424659460AF039FFCC
:101050000BEB0803344ABB610023F9698B426BD365
:10106000BA6F95F801B03969920704EB0B03DBB254
:1010700054BF4FEA59020022002940F0E280B96FC4
:1010800011F0040F14BF494600216B70A970EA707B
:1010900079683A6A7B6A28469847061EFFF639AF98
:1010A000FB682B70FB69EB7049463A6A7B6A85F8EE
:1010B00001B085F8028007F140009847B0F10009BF
:1010C000C0F2F1807B68FA69B86903EB42014144E0
:1010D0003A6A7B6AAAEB010198470028C0F2E580D2
:1010E000B14409EB00064FF0000B07F1300AA345AD
:1010F000C0F0A98000213A6A7B6A0846984708E751
:10110000444607F130004FF000099DE74446C146D0
:101110009EE7A1469CE700BF8EC800000EC80000F5
:1011200011C70000C4BF000008F70000A9C80000F4
:101130000400000158C20000B869DFF88CC110F843
:10114000021BB86110F8016C55F826006045C0F02C
:10115000B480904278692CBF4FF0000B4FF0010B28
:1011600030B1B8683B6009F085FF3B68574A60BB07
:10117000BBF1000F2BD0396959B10F2C36D9544926
:10118000544A554840F2434309F0ABFF40F2434113
:1011900096E6B96F490718D5B9F10F0F09D94F492C
:1011A0004C4A4D4840F2464309F09BFF40F246410D
:1011B00086E609F1280007F1280C09F1010100EB8E
:1011C0000C0909F8106C5FFA81F9013345E7B86F33
:1011D000800715D50F2C09D93D493E4A3E4840F2BB
:1011E0004D4309F07EFF40F24D4169E6611C04F178
:1011F000280007F12804041904F8206CCCB2E4E7B5
:10120000B9F10F0F09D93549324A33484FF48A638F
:1012100009F067FF4FF48A6152E609F1280C07F1E3
:10122000280EF44409F101000CF8101C07F15001DC
:1012300051FA80F009F102095FFA89F900F8106C9F
:10124000C3E7002121E71BF80A3087F82F3055F853
:101250002390FB6F23B3D7F880309B4520D2FB6FE0
:1012600033F81B803A6A7B6A012107F12F00984707
:1012700000281ADB0644B8F1000F06D14846FFF7F4
:101280009CF800F101081FFA88F83A6A7B6A414627
:1012900048469847002808DB06440BF1010B26E777
:1012A0004FF00008DEE74E4633E6064631E67B693E
:1012B000002B3FF4ABAE002380E67869002886D08F
:1012C0004FF0000B4DE700BFC4BF000008F700005F
:1012D0004CC900000EC8000011C700006BC9000017
:1012E000014B1860704700BFE404002080B505463C
:1012F0000E461746984608F079FB034602F058FB65
:10130000DFF83C90044649F8003042463946304602
:10131000A8470C4B1B7873B90B490C4A0C4840F298
:10132000463309F0DEFE0B4809F0DBFE074840F2C9
:10133000463109F0CDFE54F8090002F0D5FA00BF9D
:1013400008000000AF1C0020C7C900009CC90000B5
:1013500011C70000DAC9000038B50D460446202246
:1013600000210AF0BCFDEB68E361AB68A3612B6868
:1013700023626B6863620022A2622A6923B1591E4C
:10138000194208BF42F0010222610122002104F14A
:101390002C000AF007FD48B105490648064A2F23EC
:1013A00009F09FFE04482F2109F092FE38BD00BFCE
:1013B00022CA000011C70000FCC900002DE9F04F4F
:1013C00089B0CDE90123436A00278B420446884651
:1013D00005970797BA4654D300F11406EFF3118529
:1013E000402383F31288BFF36F8F3046A94608F07D
:1013F0000BFD58B94D4A4E494E48842309F071FE01
:1014000031464D4809F06DFE842163E0304608F016
:101410001FFD079A2AB13946204609F047FF0023ED
:10142000079306A9204609F069FE069941458346BF
:1014300030D32268236A13F8221021F0030103F845
:10144000221003EB820A21684246204609F07AFE08
:10145000E3682060984218D04FF0000B304608F047
:10146000E1FC50B389F31188BFF36F8F059929B15F
:10147000A2690AB12046904700230593BBF1000FF3
:10148000ACD1504609B0BDE8F08F236943F00803A2
:101490002361E1E718B1204609F06EFEDEE7DDE9E1
:1014A0000132134339D003910AF088FC0399A0BBA1
:1014B0009DBB304608F0B6FC78B91C4A1F491D4850
:1014C0004FF4997309F00DFE31461D4809F009FEED
:1014D0004FF49971154809F0FBFD85F31188BFF3AE
:1014E0006F8FDDE9012304F12C0007F09FFA83469A
:1014F000EFF31189402383F31288BFF36F8F3046D7
:1015000008F082FC00283FF475AF3046BBFA8BFB35
:1015100008F09EFC4FEA5B1BA0E707AB05AA20463C
:10152000276809F046FE834698E700BF2BCA0000F3
:1015300058CA000011C700006DCA000083CA00002D
:101540009ACA00002DE9F0410446C36908460E46D8
:10155000984704F114050746EFF31188402383F3FD
:101560001288BFF36F8F284608F04EFC68B91B4AFB
:101570001B491C48842309F0B4FD29461A4809F088
:10158000B0FD8421154809F0A3FD284608F060FC51
:10159000337843F00103337061683A46204609F01E
:1015A000D1FD6060204609F09CFE284608F03AFC18
:1015B00068B90A4A0D490B484FF4997309F091FD37
:1015C00029460B4809F08DFD4FF49971DAE788F34D
:1015D0001188BFF36F8FBDE8F08100BF2BCA0000F8
:1015E00058CA000011C700006DCA000083CA00007D
:1015F0009ACA00002DE9F0470446002700F11406BE
:10160000EFF31188402383F31288BFF36F8F3046C6
:1016100008F0FAFB054668B9394A3A493A48842342
:1016200009F05FFD3146394809F05BFD84213448FB
:1016300009F04EFD304608F00BFC2369A16818073D
:1016400002D463688B4200D2636A5B1A002B41D0DC
:10165000206A10F8213013F0030200EB81093CD01E
:10166000022A04D150F821205FEA920A05D1DA0754
:1016700020D4E369484698478246A16852462046EE
:1016800009F060FD5146A060204609F069FD2F4633
:10169000304608F0C7FB10BB194A1D491A484FF4E1
:1016A000997309F01EFD31461A4809F01AFD4FF4EE
:1016B0009971BCE743F0020300F821304846E36922
:1016C000A568984729460246204609F03BFD0025BB
:1016D000A060DDE71D46A946DAE71546FBE788F37B
:1016E0001188BFF36F8F002D8AD137B1B9F1000F88
:1016F00003D104F12C0007F01DF94846BDE8F0873E
:101700002BCA000058CA000011C700006DCA0000B3
:1017100083CA00009ACA00002DE9F0410446C3695B
:1017200008460D46984704F114060746EFF3118862
:10173000402383F31288BFF36F8F304608F064FBB9
:1017400068B9284A28492948842309F0CAFC314647
:10175000274809F0C6FC8421224809F0B9FC30462C
:1017600008F076FB2B7823F001032B7023699B078D
:1017700005D5E268236A03EB82039D4222D12B78D0
:1017800023F002032B70D4E90231994204D13A4686
:10179000204609F0D7FCA0603946204609F0E0FC5D
:1017A000304608F03FFB90B90E4A12490F484FF4FB
:1017B000997309F096FC31460F4809F092FC4FF4FA
:1017C0009971C9E72B6867F39F032B60E8E788F3FB
:1017D0001188BFF36F8F04F12C00BDE8F04107F0D2
:1017E000A9B800BF2BCA000058CA000011C70000EA
:1017F0006DCA000083CA00009ACA000070B5044692
:1018000000F11405EFF31186402383F31288BFF330
:101810006F8F284608F0F8FA68B91B4A1B491C4824
:10182000842309F05EFC29461A4809F05AFC8421F9
:10183000154809F04DFC284608F00AFB2369A0680A
:101840001B0702D46368834213D2646A241A2846B1
:1018500008F0E8FA78B90C4A0F490D484FF499732B
:1018600009F03FFC29460D4809F03BFC4FF4997103
:10187000DEE71C1AEBE786F31188BFF36F8F201E9B
:1018800018BF012070BD00BF2BCA000058CA00005D
:1018900011C700006DCA000083CA00009ACA000088
:1018A0002DE9F84F05460846AB8B1907904616D52B
:1018B00001280CBF43F0100343F02003AB83143521
:1018C000284608F0AFFA002840F0B181AE49AF4A8F
:1018D000AF484FF4997309F004FC29469DE00228B3
:1018E00003F0070140F07D81284609F007FD052837
:1018F00000F2FA8001A353F820F000BFBF180000E7
:10190000E31B0000E91A00008D190000271A0000EF
:10191000871A000002F00702531F012B1AD8002378
:10192000062A2E68A4B2C5E9003309D1334603E084
:10193000EA8B0132EA831B68002BF9D144F00204E0
:10194000AC83284609F0DAFC002800F05A8144F004
:10195000200455E1042A0DD1A4B2AC83284609F035
:10196000CDFC0646002800F04C8144F02004AC83F6
:10197000002646E18749884A854840F21B1309F052
:10198000B0FB40F21B11844809F0A2FB49B1834926
:10199000814A7F484FF4AB7309F0A3FB4FF4AB715E
:1019A000F1E72B684BB97E497B4A794840F25713DF
:1019B00009F097FB40F25711E5E72B691F684FB913
:1019C0007849754A72484FF4AD7309F08AFB4FF4B9
:1019D000AD71D8E7AC8B24F0070444F00604A4B240
:1019E000AC830E468A464FF00609AB68002B00F028
:1019F0000F814FF0010B44F00804AC8305F114048F
:101A0000204608F00FFA002878D15F495F4A604805
:101A10004FF4997309F065FB2146634809F061FBB7
:101A20004FF499718EE0022909D060495A4A58480A
:101A300040F25D1309F055FB40F25D11A3E7EE8B18
:101A40004EB15B49544A52484FF4AF7309F049FB19
:101A50004FF4AF7197E72B695F684FB951494E4A10
:101A60004B4840F2611309F03CFB40F261118AE7F8
:101A7000AC8B24F0070444F00404A4B2AC83B24657
:101A80004FF00409B1E7012909D04A49424A4048C8
:101A90004FF4B27309F025FB4FF4B27173E72B6872
:101AA0004BB93F493C4A3A4840F2651309F019FBEB
:101AB00040F2651167E72B699F684FB93949364A8B
:101AC00033484FF4B47309F00CFB4FF4B4715AE788
:101AD000AC8B24F0070444F00504A4B20026AC83C8
:101AE000B2464FF0050980E72A492B4A284840F2C0
:101AF0006B1309F0F6FA40F26B1144E788F3118892
:101B0000BFF36F8FBBF1000F1ED1002E33D117B181
:101B100029492846B847EFF31188402383F31288F8
:101B2000BFF36F8F204608F06FF900284AD1174A9B
:101B300022491748842309F0D4FA2146204809F0A5
:101B4000D0FA842111481FE7A9680029DDD0D1F817
:101B500000800029D9D0D1F804B053464A4628461F
:101B6000D847B8F1000F04D0D8F800304146984665
:101B7000EFE74346FAE7314653464A462846366879
:101B800009F0E8FBC1E700BF83CA00002BCA0000D0
:101B900011C700008FEB0000BACA0000DFCA0000C6
:101BA000EBCA00000ECB00009ACA000025CB000053
:101BB0003BCB00004ACB00003D1C000058CA00008F
:101BC0006DCA0000204608F043F9AC8B24F00804ED
:101BD000A4B2AC83E20621D524F01003AB8304F059
:101BE0000701D5F818A0AA8BBAF1000F22F007045C
:101BF000BFF690AE00232E68C5E9003344F001041F
:101C0000AC8304F0070989454FF000077FF4EDAE7F
:101C10000EB9002FDED04FF0000BECE6A3067FF5E7
:101C20004EAE24F02003AB8304F007015CE688F39A
:101C30001188BFF36F8FBDE8F88F00BFF8B5044679
:101C40000D4600F11406EFF31187402383F3128849
:101C5000BFF36F8F304608F0D7F868B90C4A0D49CA
:101C60000D48842309F03DFA0C48314609F039FA51
:101C70000748842109F02CFA304608F0E9F8A561FC
:101C80003A4620460121BDE8F840FFF709BE00BFF3
:101C90002BCA000058CA000011C700006DCA00001E
:101CA0002DE9F04704460E4609F044FB051E66DBAD
:101CB00004F11409EFF3118A402383F31288BFF370
:101CC0006F8F484608F0A0F8804660B9374A384917
:101CD0003848842309F005FA4946374809F001FAE3
:101CE0008421324843E0484608F0B2F8E38BA78BE2
:101CF0004FF6FF72934207F0070743D0062F2CD808
:101D0000DFE807F01F43092B1F041F006FF0850554
:101D10004FF0000802E00133E3830225484608F053
:101D200081F8002834D1214A244922484FF499737C
:101D300009F0D7F94946224809F0D3F94FF49971CF
:101D4000CFE700233360636823B9C4E9006687B135
:101D50003D46DDE71E606660F9E71A4915481A4AF4
:101D60004FF4E47309F0BDF917484FF4E47109F03A
:101D7000AFF9524602212046FFF792FD3D46284624
:101D8000BDE8F0876FF00A05C2E76FF00405BFE712
:101D90008AF31188BFF36F8FB8F1000FEFD00023E3
:101DA0003A463146204609F0D5FAE8E72BCA00004A
:101DB00058CA000011C700006DCA000083CA0000A5
:101DC0009ACA00004ACB0000BACA0000F8B505461E
:101DD00000F11406EFF31187402383F31288BFF359
:101DE0006F8F304608F010F860B9264A2649274818
:101DF000842309F076F93146254809F072F98421E7
:101E000020482BE0304608F023F8AC8B04F00704A0
:101E1000022C17D0012C0CBF6FF004046FF0850466
:101E2000304607F0FFFF38BB164A1A4917484FF4EF
:101E3000997309F056F93146174809F052F94FF4F1
:101E40009971DDE7EB8B5BB914491048144A40F2F5
:101E5000EF1309F046F9124840F2EF1109F038F992
:101E6000013B9BB2EB83002BDAD13A462146284650
:101E7000FFF716FD2046F8BD87F31188BFF36F8F7B
:101E8000F8E700BF2BCA000058CA000011C70000C5
:101E90006DCA000083CA00009ACA000060CB00002F
:101EA000BACA000008B54268816002F00302032A42
:101EB00003460AD06AB908490848094A452309F087
:101EC00010F90748452109F003F9006800225A601B
:101ED00008BD0020FAE700BF8FEB000011C700002B
:101EE0006ECB000008B558B907490848084A40F2C7
:101EF000351309F0F6F8064840F2351109F0E8F814
:101F00004368587908BD00BFCCCB000011C7000062
:101F100094CB000010B548B908490948094AA023E4
:101F200009F0DFF80748A02109F0D2F803681B691F
:101F300013B1BDE810401847184610BDCCCB0000C7
:101F400011C7000094CB00002DE9F843DFF844806E
:101F500004460646012794FAA4F5B5FA85F507FA72
:101F600005F308EB05156FEA030924EA03042B7B4C
:101F70005BB12846FFF7CEFF38B96B6804221968B9
:101F8000284606EA090609F054FA002CE3D1304647
:101F9000BDE8F883B8C2000010B50F490F4888B0FB
:101FA000002209F077FF00220023CDE90623002458
:101FB0000E23CDE90334CDE90144094B09490094CE
:101FC0004FF40062084806F01DFE0849064809F073
:101FD000FBFE204608B010BDD1200000900E00206E
:101FE00031240000C01C0020080A0020E3CB0000C0
:101FF0002DE9F047DFF8B8902E4CA9EB04038F2BA6
:1020000080460F460BD92C492C4A2D4840F25313D9
:1020100009F067F840F25311284809F059F82948A7
:1020200009F0E7F9064660B300252846BDE8F087C9
:10203000237B8BB12368DB680BB12046984763682C
:10204000204683F806A0FFF765FFB0B96368042255
:102050001968204609F0EDF9013610344C4514D9C1
:102060001949164A164840F25F1309F03AF8174822
:1020700009F037F840F25F11CEE70AFA06F31D4384
:10208000EAE705464FF0010AE8E7D1D3B8F1000FBF
:10209000CBD0002DC8D02846FFF756FF0546002FAD
:1020A000F7D000214FF4A47007F016FCF1E700BF51
:1020B000C8C20000B8C2000018CC0000EBCB000082
:1020C00011C70000C410002048CC000069CC0000FB
:1020D000014806F02FBC00BFC8070020014B53F891
:1020E000200070479CC3000008B5034608462BB18A
:1020F000044A136000F0A4FD002008BD6FF0150035
:10210000FBE700BFE804002010B5044C237813B9A6
:10211000034806F00FFC0123237010BDD4180020E3
:10212000C807002010B504460B4809F062F95CB1FD
:10213000BFF35B8F094B53E8001F013943E80012DE
:10214000002AF8D1BFF35B8F054808F04DFA054827
:10215000BDE8104006F0EEBBBC100020C01000200F
:10216000900E0020C8070020064BBFF35B8F0022B3
:1021700053E8000F43E800210029F9D1BFF35B8F3A
:10218000704700BFBC10002070B5FFF7EDFF114C89
:10219000114E0546B4421AD91049114A114840F26D
:1021A000162308F09EFF104808F09BFF0C4840F2F1
:1021B000162108F08DFF2046FFF794FE28B1236812
:1021C0005B6813B12946204698471034E2E7F2D302
:1021D00070BD00BFB8C20000C8C2000048CC0000FB
:1021E000EBCB000011C7000069CC000010B5044C17
:1021F00004492046FFF7B0F8034B1C6010BD00BF38
:10220000D006002088C30000B0100020154A1648F0
:10221000002310B51370154A1360154A4FF400419E
:102220001360FFF761FFFFF7E1FF124B12491846F9
:102230008B4215D91149124A124840F22B1308F06B
:1022400050FF114808F04DFF0D4840F22B1108F0E7
:102250003FFF1A1A5C681211013222711033E7E74E
:10226000F7D310BDD5180020EFB30000BC1000203C
:10227000C0100020B8C20000C8C2000048CC000056
:10228000EBCB000011C7000069CC00000146002222
:1022900001480023FFF792B8D00600200148FFF75D
:1022A000A9B900BFD0060020024B01461868FFF70D
:1022B00033BA00BFB01000200148FFF79FBA00BF3B
:1022C000D006002070B5334B1B78002B5FD0FFF792
:1022D000E5FF0446002846D12F4B304D1B68002BEC
:1022E00019DD09F0D5FD4FF47A76A0FB063206FB26
:1022F0000121D5E90020DB0B43EA41439B1A4FEA59
:10230000D13140F2E93261EB0001934271F10001F9
:1023100001D3FFF739FFD5E9003213F57A7342F1A3
:102320000002C5E9003294B3BDE87040FFF7C4BFB6
:102330002846FFF7D7FD20B12B6821461B682846A9
:1023400098471035B54211D91549164A164840F23A
:102350000A2308F0C6FE154808F0C3FE114840F2F3
:102360000A2108F0B5FE124D124EEBE7E0D32046ED
:10237000FFF79AFFBFF35B8F0F4B53E8001F013944
:1023800043E80012002AF8D1BFF35B8FA4E70020D6
:1023900070BD00BFD4180020BC100020880E0020A3
:1023A00048CC0000EBCB000011C7000069CC000056
:1023B000B8C20000C8C20000C010002070B5154DA2
:1023C000297831BB0120FFF713FE134C134EB442A2
:1023D00018D91349134A144840F2CF1308F081FE6C
:1023E000124808F07EFE0F4840F2CF1108F070FE50
:1023F0002046FFF777FD18B1236820469B68984771
:102400001034E4E7F4D3FFF75DFF0028FBD101238C
:102410002B7070BDD5180020B8C20000C8C20000E3
:1024200048CC0000EBCB000011C7000069CC0000D5
:102430002DE9F843374F384BFB1A1B090AD13749AE
:10244000374A38484FF46F7308F04BFE4FF46F7102
:10245000334819E000210846FFF7CAFD0446A8B139
:1024600040F267684FF000092F4B1B789BB92F494A
:102470002F4A2C4840F2463308F033FE2D4808F02E
:1024800030FE2B4840F2463108F022FE4FF0FF3874
:102490004FF0FF39E8E701F08BFA274B274A1B582A
:1024A000136033B1264B1B68092B02DD254806F06B
:1024B00041FA002544B12046FFF746FD044618B90D
:1024C0004FF0FF384FF0FF39FFF7FCFE064628B902
:1024D00035B91C4842464B4606F0A8FA3546E9E7AE
:1024E0000D4D08E0F5D22B689B691BB10022114607
:1024F000284698471035BD42F4D91349084A09487F
:102500004FF46C7308F0EDFD104808F0EAFD4FF44D
:102510006C719DE7C8C20000B8C2000088CC000002
:10252000EBCB000011C70000AF1C0020C7C90000A2
:102530009CC90000DAC9000008000000B8100020A3
:10254000C0100020C807002048CC000069CC000063
:1025500013B52C4808F04DFF2B4B1B78002B35D0C2
:10256000EFF31184402383F31288BFF36F8F274862
:1025700007F04AFC68B9264A26492748842308F010
:10258000B0FD2249254808F0ACFD8421204808F020
:102590009FFD1E4807F05CFCFFF794FE1B4807F008
:1025A00041FC68B91A4A1E491B484FF4997308F058
:1025B00098FD16491B4808F094FD4FF49971E5E722
:1025C00084F31188BFF36F8F02B010BD164B1B68E8
:1025D000002BF9D050B900220023CDE90023134885
:1025E0004FF40042002307F091FFEDE70928EBD1FB
:1025F0000E4807F0F9FF0E4802B0BDE8104006F0A3
:1026000099B900BFC0100020D5180020B4100020D8
:102610002BCA000058CA000011C700006DCA000094
:1026200083CA00009ACA0000B8100020900E002053
:10263000C807002010B5064B1B6804469847214682
:10264000A0600448FEF77EFFBDE81040FFF780BFA2
:10265000E8040020D0060020044A054B9B1AB1EB89
:10266000D30F34BF52F831000020704758C2000029
:10267000B8C200002DE9F04F8FB004AFC1F34A2675
:10268000B8600D4690467B600C0D002E66D04FF072
:1026900000090A234FF0040B07F1140AFE60C7E992
:1026A0000799C7F824900093CDF808B0CDF804A09E
:1026B00007F11C03F9684A464046FEF7EFFBB0F508
:1026C000006F03461CD36C468AB0D8F8041004ABE4
:1026D0002B48C3E9050140F2FF71D9611A464FF456
:1026E00000711984274B42F8103F27484B464FF49E
:1026F0001251FFF7BFFFA5462C37BD46BDE8F08F4E
:10270000C0F30A0604F11700184420F007008008FF
:102710003B60FFF7BBFD66F35325044630B33B68CF
:102720001A4A00F11001C7E90839F961CDE901AB96
:102730000A230093F96807F11C034046FEF7AEFB3D
:10274000002813DA12491348134A40F2491308F0DB
:10275000C8FC114840F2491108F0BAFC04F1170016
:1027600020F007008008FFF791FD044666F353252B
:102770007B68B9682A46204608F07BFEBCE700BFAC
:10278000B1CC00000400000180C2000045B400008C
:102790001DCD000011C70000F0CC00002DE9F04F66
:1027A00087B0DDE9127ADDE9106B054688461446EC
:1027B00099462FB3CDF800A03B465A461021002081
:1027C000CDF814A0FEF782F900280BDA2749284A31
:1027D00028484FF4B47308F084FC4FF4B4712448D3
:1027E00008F076FCB0F5006F01460BD3224A23486F
:1027F00040F2FF73022107B0BDE8F04F08F092BE2F
:102800003946384604F0070305F00704E40044EABB
:10281000831444EA402444EA065406F117000844AD
:1028200020F0070080080391FFF730FD0546A0B1B6
:102830009FB10399CDF800A03B465A461030FEF7F1
:1028400045F9002809DA0949094A0A4840F28D1376
:1028500008F047FC40F28D11C1E74B462246414645
:10286000284607B0BDE8F04F08F003BE1CCD0000BD
:10287000F0CC000011C7000026CD000080C200008F
:10288000406820B1034BC01A40F3CF0070474FF0AF
:10289000FF30704758C200000EB403B503AB0146C9
:1028A00053F8042B0448019301F09CFA02B05DF840
:1028B00004EB03B0704700BFD9280000CA0605D456
:1028C0008B064CBF02490349FFF7E6BF704700BFC4
:1028D000A7EE00005ECD000038B54B681A68CB68E3
:1028E0009A4205460C4602D1084608F033FE63685A
:1028F000BFF35B8F53E8002F511C43E80010002802
:10290000F8D1BFF35B8FA3689D5463681A68E368CE
:102910009A4209D905490648064A722308F0E1FBA4
:102920000448722108F0D4FB002038BD90CD00008F
:1029300011C7000061CD00002DE9F04F89B0994624
:10294000159B0693DDE916A39DF85080189F05920C
:1029500004460D460493B8F1000F00F0A180B8F1D1
:10296000040F0BD98849894A89484FF4157308F038
:10297000B8FB4FF41571854808F0AAFB07F4807383
:10298000079308F054FD07F0020B0246002856D0CA
:1029900080492046FFF780FF0646BBF1000F08D0B4
:1029A00017F0440F4DD17C492A462046FFF774FFAB
:1029B000064407F0010353B1784B794953F82820B6
:1029C000784B2046002A08BF1A46FFF765FF07F438
:1029D0008073002B07F0080318BF4FF00009002B8D
:1029E0005BD0714B714953F828202046FFF754FF04
:1029F0000546059B2BB16E491A462046FFF74CFF52
:102A00000544B9F1000F05D06A494A462046FFF750
:102A100043FF054468483544069B002B47D067496F
:102A2000224608F0F6FA002841DA6549574A584824
:102A300040F2B12308F055FB40F2B1219BE7064676
:102A4000ABE7604B18680028B2D05F4B4FF47A7B3D
:102A50001B68B5FBF3F54FF46163B5FBF0F100FBC8
:102A600011550BFB05F54FF03C0CB1FBF3F203FBEA
:102A70001211B5FBF0FEB1FBFCF300FB1E550CFB85
:102A800013110BFB05F50091B5FBF0F54F49CDE9AE
:102A900001E52046FFF700FF8AE707F00805A8E7F1
:102AA000B9F1010F0CBF444849484546B4E7049BBF
:102AB000002B54D0DDF810903946B9F1100F2046A4
:102AC00028BF4FF01009FFF7F9FE0026B54218DCC9
:102AD000002633461AF803203E492046FFF7DCFE65
:102AE0000136102E13D0710703D13B492046FFF762
:102AF000D3FE4E453346EDD338492046FFF7CCFE92
:102B0000EEE735492046FFF7C7FE0136DEE73449D8
:102B100020460026FFF7C0FE33461AF8032031494D
:102B2000A2F120035F2B28BF2E222046FFF7B4FE20
:102B30000136102E0DD0720703D127492046FFF72A
:102B4000ABFE4E453346E8D323492046FFF7A4FEAB
:102B5000EEE7049BB3EB0903CA440493AAD1B8F18E
:102B6000000F0AD0FB0704D50E4A0D492046FFF797
:102B700093FE39462046FFF7A1FE204609B0BDE886
:102B8000F04F08F0E7BC00BFC5CD000061CD0000EC
:102B900011C70000D0CD0000D4CD0000ACC30000B0
:102BA000F9CD0000C0CD0000C0C30000FCCD000086
:102BB00002CE000006CE0000D9280000E53D00004E
:102BC0000BCE0000CC100020C8100020DDCD00008E
:102BD0006FB5000014CE00001CCE00001ACE00001D
:102BE0001ECE000020CE000073B542F20F738B4260
:102BF00028BF0B4605680F4A04460521684607F0C2
:102C000035FF63680C495B6806460B22284608F0CE
:102C100093FC63683246694628465B6808F08CFC82
:102C2000636806495B681B22284608F085FC02B0F1
:102C300070BD00BF6FDA0000D4F60000B8F60000E7
:102C4000074A00210123904206D8064A01B9012310
:102C50001360054B1860704740085B000121F2E7E4
:102C600040420F00C8100020CC100020014B012270
:102C70001A707047D6180020014B00201960704769
:102C8000E41000200148FFF7AFBF00BFF0C3000011
:102C900010B5064B18680C46FFF720FA214603468C
:102CA000BDE8104002480F22184700BFE410002082
:102CB000F0C30000F8B5094D094B0A4ED5E90047AD
:102CC00001221A700CB92C60F8BD214630463A46F4
:102CD00000F01EF8241A0644F4E700BFD8100020C4
:102CE000D7180020D818002010B9074B187070476B
:102CF000064B1B781BB141F2883009F001B8A420C3
:102D0000002106F0E9BD00BFD6180020D71800202A
:102D10002DE9F047DFF88090204E80460F460425CD
:102D200099F80040ACB908F0DEFF3A4682464146C9
:102D3000204604F0EBFD0446504608F0DCFFECB101
:102D40000123337099F800307BB93C462046BDE83A
:102D5000F0873A464146002004F0D8FD0446EEE7ED
:102D60002846FFF7C1FF6C1E2546002004F05EFEDA
:102D70000028EAD03378002BF2D1E6E7337833B17C
:102D8000013D2846FFF7B0FF3378002BC8D13378D8
:102D9000002BDAD0DAE700BFD7180020D6180020C1
:102DA000014B03600020704700C4000008B50448D0
:102DB00008F081F9034808F07EF9002008BD00BF43
:102DC00053CE000088CE0000014807F0EFBC00BFE2
:102DD00000C4000038B5044618B90F4B0F485B68B3
:102DE00098476168B1F5683F10D0B1F5680F0DD014
:102DF0000B4DA9420AD011F46861206807D0014642
:102E0000084805F011F900232360656038BD1422DD
:102E100009F065F8F9E700BF48060020B5CE0000CC
:102E20002C5F5CA9E815002008B520B34368B3F512
:102E3000683F10D101220368BFF35B8F53E8001F86
:102E4000002903D143E800200028F7D1BFF35B8FAE
:102E50000DD1002008BD094A93420AD000684FF006
:102E6000FF324FF0FF3305F0ADFB0028F1D00448EE
:102E7000F0E70448EEE76FF4E040EBE72C5F5CA975
:102E8000E98FFFFFEA8FFFFF08B5D8B14368B3F5BC
:102E9000683F10D100220368BFF35B8F53E8001F27
:102EA000012903D143E800200028F7D1BFF35B8F4D
:102EB0000BD1002008BD074A934208D0006805F0F6
:102EC00049FCF6E76FF4E040F4E70348F2E7034813
:102ED000F0E700BF2C5F5CA9E98FFFFFEA8FFFFFDF
:102EE00010B5044618B91D4B1D485B6898476368C8
:102EF000B3F5683F2FD0B3F5680F2CD0194A934231
:102F000019D1236803BB18484FF0FF324FF0FF334D
:102F1000214604F0FDFF08B923681BB90F4B134885
:102F20005B68984720681422002108F0D8FF4FF40E
:102F30006863636008E0B3F5680F0DD83A2B03D0DF
:102F400040F6BA629342DED1206808F024FF63683D
:102F500043F03A03636010BD054AF3E748060020DA
:102F6000B5CE00002C5F5CA9E8150020DBCE000088
:102F70003A00003A08B5064906484023142208F0F2
:102F8000EDFEBDE808400449044807F081BC00BFDD
:102F9000E8100020E815002008C400001CC4000050
:102FA00008B50348034A0021121A08F025FB08BDA2
:102FB000D8070020B41C00200748084A084908B573
:102FC000121A08F01BFB0748074A0849BDE80840E9
:102FD000121A08F013BB00BFC0040020D80700205D
:102FE00010F70000B8040020C004002008F700001B
:102FF0002DE9F047064600AF0C46002936D0E946D9
:103000008AB0D1E90012A3686D462148E8464FF026
:10301000050ACDE90501CDE9072348F810AF1D48A1
:10302000424600234FF42151FFF724FBCD46D4E95B
:1030300003126369AD461848C5F810A0C5E905013B
:10304000C5E907231348002342464FF42151FFF7F7
:1030500011FBCD46E369114A0E48012108F062FADE
:10306000A3690F4A0B48012108F05CFA012E07D131
:10307000EFF305830B4A0748103B314608F052FA3C
:103080002146304604F032FDBD46BDE8F08700BF62
:1030900008CF000098C2000037CF000066CF0000C4
:1030A00075CF0000A3CF000030BFFFF7FDBF00BF0A
:1030B0002DE9F0410B4EDFF8308006EB0807CC1B02
:1030C000054632460949204608F0FBFEA019424653
:1030D0000021083C08F003FF2C6707F10800BDE859
:1030E000F08100BF0000000004000000C8C2000022
:1030F00010B5204C2049214808F08DFAA36A9901A7
:1031000036D51E481E4908F086FA1E20A36ADA0149
:1031100004D51A481B4908F07EFA1F20154CA36AF3
:103120001B0304D51548184908F075FA2120A36A35
:10313000590304D51148154908F06DFA22200D4CA9
:10314000A36A9A0304D50D48114908F064FA2320B4
:10315000A36ADB0304D509480E4908F05CFA242071
:10316000044A936A6FEA03436FEA1343936210BD04
:103170001D20CBE700ED00E0B6CF000098C20000B4
:10318000CECF0000E1CF0000FBCF000019D000003F
:103190003ED0000058D0000070B506460D46284CC1
:1031A0002849294808F037FAA36AD9043CD52648AB
:1031B000264908F030FA1720A36A1A0504D52248D8
:1031C000234908F028FA18201D4CA36A9B0512D544
:1031D0001D48204908F01FFAA36BA26A100409D504
:1031E0001D4A1948012108F09DF91EB1A36A23F474
:1031F0000043A3621920124CA36A590504D5124852
:10320000164908F008FA1A20A36ADA050ED50E4806
:10321000134908F000FA1B20094A936A43F47F43DC
:10322000936200232B7070BD1620C5E7A36A9B0430
:10323000F2D505480B4908F0EEF91C20ECE700BF79
:1032400000ED00E083D0000098C2000099D000009B
:10325000AAD00000BDD00000D6D00000EBD0000006
:1032600006D100001ED100002DE9F84380468946B2
:1032700017463E4D3E493F4808F0CDF9AB6ADA06A5
:1032800027D53D493B4808F0C6F91124AB6A1B0716
:1032900004D53A49374808F0BEF91224334DAB6AD9
:1032A0009E0718D53649334808F0B5F96E6BAB6AFE
:1032B0001C0646D5334A2F483346012108F032F91F
:1032C000B9F1000F03D0AB6A23F08003AB62132483
:1032D00003E01024DAE76FF01506244DAB6AD80737
:1032E00004D52949234808F096F91424AB6A9906B5
:1032F00004D526491F4808F08EF915241B4DAB6AEA
:10330000DA0602D4AB6A9B070AD56B68180507D5A5
:103310004146304600F09EFAB0B180F3098802249D
:10332000124B9A6A920642BF5A6A22F400525A62BB
:103330009A6A42F0FF029A6200233B702046BDE881
:10334000F8836FF01506C2E7AB6AD906E8D51049D5
:10335000104A114840F2271307F0C3FE0F4807F048
:10336000C0FE0C4840F2271107F0B2FE00ED00E06D
:103370004DD1000098C2000063D10000AAD0000027
:1033800096D10000AED10000C4D100001ED10000D3
:1033900015D20000E3D1000011C700005FD2000089
:1033A000F0B57B4B8BB00446586800AFC0F3080300
:1033B000002585F31188BFF36F8F02F07F46B6F1C9
:1033C0007F4F07D102F00C06082E12D171497248C6
:1033D00008F021F97149724A724840F21B4307F024
:1033E00080FE714807F07DFE40F21B416C4807F0FB
:1033F0006FFE16074CBF0C460125002CEAD00022B8
:10340000FA71DA1E092A00F2A380DFE802F00599BA
:103410009C7CA1A1A1A1A19F64495F485C4E08F0DA
:10342000FAF80023FB71F36A9A0705D560495A48F8
:1034300008F0F1F800232DE0F36A002B01DA5D4972
:10344000F5E7F36A5B006ED55B49534808F0E3F893
:103450007369A26943F480737361BFF34F8FBFF345
:103460006F8F32F8023C726922F480727261BFF38E
:103470004F8FBFF36F8F03F47F42B2F55F4F2AD1B6
:10348000DBB2022B27D123684C4A4348012108F0C4
:1034900049F82368FA79DAB907F1080604F1200C33
:1034A00020686168324603C2083464451646F7D185
:1034B0007A6A002D69D0C2F3080121B96FEA52225D
:1034C0006FEA42227A6207F108011846FFF790FD81
:1034D0002C37BD46F0BD2E4B9A6AD2B232B1FA1DDE
:1034E00001212046FFF7C0FE0346D3E79A6A12F493
:1034F0007F4F04D0F91D0120FFF74EFEF4E79B6AD1
:10350000B3F5803F02D3FFF7F3FDEDE72C49244AE2
:10351000244840F2ED2307F0E4FD2A4807F0E1FDDE
:1035200040F2ED2162E726491D4A1E484FF43C73E4
:1035300007F0D7FD244807F0D4FD4FF43C7155E760
:10354000FA1D0021CDE7F91D0020D5E71F496EE7E0
:103550001F4A204910F4F87F6E468AB018BF114602
:103560006A46103B07931C484FF40073ADF82030B7
:103570001A4BCDE9050142F8103F074800234FF4EC
:103580001151FFF777F8B54654E76FF3080299E752
:1035900000ED00E0B0D2000098C20000DBD20000D5
:1035A000E3D1000011C70000EED200002CD30000D0
:1035B00043D3000064D3000072D3000091D3000015
:1035C0008FEB0000ADD30000D1D3000001D4000088
:1035D00097D2000082D2000025D400000400000130
:1035E000044B5A6942F010025A615A6922F00802EB
:1035F0005A61704700ED00E0EFF30880EFF30981B6
:1036000001B57246FFF7CCFE01BD00BF002080F37C
:103610001488BFF36F8F0F4880F3088802F02AFEEA
:1036200000200D490860BFF34F8F00F02BF84020B9
:1036300080F3118809484FF40461401880F3098829
:10364000EFF314800221084380F31488BFF36F8FD7
:1036500000F0D0F8C036002094ED00E000250020F6
:103660000749D1F890200023C2F30722184693425D
:1036700000DB7047C1F89830C1F8A0000133F6E7CD
:1036800000ED00E008B572B6002383F31388FFF75E
:10369000E7FF144B4FF0FF32C3F88020C3F88420BB
:1036A000C3F88820C3F88C20C3F89020C3F8942076
:1036B000C3F89820C3F89C20C3F88021C3F8842164
:1036C000C3F88821C3F88C21C3F89021C3F8942152
:1036D000C3F89821C3F89C2162B6BFF34F8FBFF3A4
:1036E0006F8F08BD00E100E01EF0040F0CBFEFF388
:1036F0000880EFF30980816911F8021C0229FFD0CC
:1037000001B5724607F07CFF01BD00BF40B2002842
:1037100007DB044A4109012300F01F00834042F8FF
:103720002130704700E100E040B200280CDB430983
:10373000064900F01F0020330122824041F8232077
:10374000BFF34F8FBFF36F8F704700BF00E100E002
:10375000054B420900F01F0053F82220012303FA11
:1037600000F01040704700BF00E100E038B5D3071B
:1037700004460D4612D48B1C072B10D9114A12494E
:1037800012486B2307F0ADFC114829460623224658
:1037900007F0A7FC0B486B2107F09AFC002360B2EE
:1037A0000028ACBF00F160400A4A4FEA4313B8BF9B
:1037B00000F00F00DBB2AABF00F56140135480F89F
:1037C000003338BD38D400006FD4000011C70000AA
:1037D0008AD4000014ED00E0044B054A23F07F0377
:1037E0009360BFF34F8FBFF36F8F704700000000EF
:1037F00000ED00E008B5FFF7EFFF074AD2F8883088
:1038000023F47003C2F88830FFF7CAFBFFF7D4FB3C
:1038100000F0B0F804F0C8FA00ED00E042F8203CF7
:10382000009B42F81C3C0A49019B42F8183C029B51
:1038300042F8143C21F001014FF0807342F8043C3F
:1038400042F8081C0023203A02654367704700BF16
:10385000ED120000094A0346906870B113F1160F8B
:10386000006E05D0A0F14002934205D3834203D2FB
:10387000814228BF0020704700207047F4170020C5
:1038800008B515460B4A0C4B9060026F1A600E4645
:1038900000F0A0F82C4686F309880020034B9847D7
:1038A0002046002100220023014C20472DB60000B5
:1038B000ED120000F417002008160020014B102222
:1038C0001A61704700ED00E0054B5A699B689A4207
:1038D0001FBF044A536843F080535360704700BFD2
:1038E000F417002000ED00E0084B9B6883420BD1E9
:1038F000EFF3058343B1064B5A6842F080525A6099
:103900005A6A22F400425A6206F076B8F417002090
:1039100000ED00E014498A684FF030001044EFF3E6
:10392000098C80E8F01F402080F31288BFF36F8F6E
:103930000E4F4FF000664A698A603E60106F0C4C73
:103940002060506F0023536780F3118804B5104640
:1039500000F040F8BDE8044002F1300090E8F01FAC
:103960008CF3098870470000F417002004ED00E094
:1039700008160020044800234021C2180133302BD0
:1039800082F80013F9D1704700E100E008B5EFF3C9
:103990000583064A103B02EBC30152F83300496825
:1039A0008847BDE80840FFF78FBF00BF98C0000000
:1039B000014800687047000008160020024B034AC7
:1039C0000348012100F08AB8000004200000002014
:1039D0002CC40000036E054A403B1360044B402199
:1039E000C2E901131046012100F09EB80C16002018
:1039F00000000B1508B503461048D0F89020C2F31C
:103A00000722013A934207D90D480E4A012107F0D7
:103A100089FD6FF0150008BDC0F898300A6822F0E3
:103A20001F021A4342F01002C0F89C208A6842F03C
:103A30000102C0F8A0201846EDE700BF00ED00E04D
:103A400090C20000CED40000F0B50E4685B01F46EF
:103A500004460025B5420DDA606810B397B1431EE5
:103A600018420AD0104A11482B46012107F05AFD8E
:103A70006FF01502104605B0F0BD1F28F2D921687D
:103A80000B42EFD12368019307F0F3FDA36801A96E
:103A90000343D0B20393FFF7ADFF10F1160FE7D049
:103AA000421C01350C34D5E7F4D4000090C200006C
:103AB000044B0522C3F89420BFF34F8FBFF36F8FE1
:103AC000704700BF00ED00E0BFF35F8F024B0022A4
:103AD000C3F89420704700BF00ED00E038B50D4DED
:103AE00001232A780C46FFF7AFFF287016300FD15C
:103AF000094A0A490A4840F2891307F0F2FA0948CC
:103B0000214607F0EEFA044840F2891107F0E0FA86
:103B100038BD00BFE81800201AD500008FEB000068
:103B200011C7000049D5000010B5144A00231278CF
:103B30000C46FFF789FF10F1160F08D0104A00213C
:103B4000D2F89030C3F30723984210DB10BD0D4A22
:103B50000D490E484FF4D47307F0C3FA0C482146C0
:103B600007F0BFFA07484FF4D47107F0B1FAC2F872
:103B70009800C2F8A0100130E2E700BFE81800206A
:103B800000ED00E01AD500008FEB000011C7000027
:103B900075D500002DE9F04F834C8449D4F890305E
:103BA0000D68C3F307239D4285B013D9804A81492C
:103BB000814840F2022307F094FAD4F890207F481D
:103BC0002946C2F3072207F08CFA40F20221784816
:103BD00007F07EFAFFF778FF49680022954201F16D
:103BE0000C012DD1764F774C3D706846FFF7D8F821
:103BF000754D764E81464FF00008C14533D13B7874
:103C000069490020D1F89020C2F307229342C0F204
:103C1000C180FFF74DFFD1F8903003F47F43B3F537
:103C2000006F00F0BD806A49614A634840F27D231D
:103C300007F057FA674807F054FA40F27D21C6E7CB
:103C4000C4F8982051F80C3C23F01F03134343F0B1
:103C50001003C4F89C3051F8043C43F00103C4F84D
:103C6000A0300132BAE7009A02EB08134FEA0811BC
:103C7000D3F80CA00AEA0400B0F5000F66D00BD808
:103C8000B0F5001F3CD0B0F5800F52D0B0F5801FCA
:103C900016D008F10108B0E7B0F1007F61D0B0F1B3
:103CA000805F69D0B0F1807FF3D19868D3F804A029
:103CB000525807F0DEFCCDE901A240F088700BE01D
:103CC0009868D3F804A0525807F0D3FCCDE901A2BC
:103CD00040F0885040F430200390387801A9FFF775
:103CE00089FE002852DA3349314A334840F23523FD
:103CF00007F0F7F9384807F0F4F940F2352166E7A4
:103D00009868D3F804B0525807F0B3FC1AF0010FCA
:103D100040EA0600CDE901B20390DED02F49244AE3
:103D20002548842307F0DDF92D4807F0DAF98421CE
:103D30004DE79868D3F804A0525807F09AFC40F079
:103D4000C060CDE901A240F40030C5E79868D3F81F
:103D500004A0525807F08DFCCDE901A240F082701A
:103D6000BAE79868D3F804A0525807F082FCCDE96E
:103D700001A240F48020AFE79868D3F804A052581D
:103D800007F077FCCDE901A22843A5E73B78013392
:103D90003B707EE7C1F89830C1F8A000013331E7ED
:103DA000002005B0BDE8F08F00ED00E038C4000051
:103DB0001AD500008FEB000011C70000A2D500004B
:103DC000E81800200000F0FF0000021100000811B8
:103DD00055D60000A5D600002BD60000D6D5000091
:103DE000FCD50000F0B587B007460E46144600210A
:103DF000102268461D4608F072F802238DF8023042
:103E00002A46054B019321466846CDE9047606F023
:103E100057FE07B0F0BD00BF93B6000008B5024BD7
:103E20001B689847002008BD18160020034B044A61
:103E30001860937843F002039370704718160020BF
:103E40000C05002008B50649064821F00701C1F11C
:103E5000005202F58022FCF7A7FD002008BD00BF3C
:103E6000674900201C1600200C4B0122C3F8402596
:103E70004FF080434FF08051C3F87825D1F83001DE
:103E8000082805D1D1F83411022908BFC3F8382613
:103E90000122C3F880250020704700BF00E00140E8
:103EA00048B1054B054A1B68B3FBF2F35843044B7A
:103EB00043F00103184770473406002040420F00CA
:103EC00080C3000008B5054A054B136010463F2328
:103ED000536002F0BBFA002008BD00BF2816002086
:103EE000FFFF070037B50C460A490B4A411A402329
:103EF0000093491105462346084807F0D5FB0146C3
:103F000028B12846234603B0BDE83040184703B027
:103F100030BD00BF4416002015B7000044C00000AB
:103F2000C9B2012908B509D908490948094A7E23B7
:103F300007F0D7F807487E2107F0CAF803690C227A
:103F400001FB0233986C00F0070008BD16D7000093
:103F500011C70000D9D6000070B5C9B201290346C7
:103F600000690BD918491948194A4FF4E87307F04A
:103F7000B8F817484FF4E87107F0AAF8EFF3118684
:103F8000402484F31288BFF36F8F0C2505FB0104D6
:103F9000A46C14F0C00401D0A24211D105FB0100B1
:103FA00001228264002086F31188BFF36F8F30B93D
:103FB0005B680C2202FB01335B689847002070BDF0
:103FC0004FF0FF30EFE700BF16D7000011C7000029
:103FD000D9D6000070B50D460649411A044649116C
:103FE00005484022FFF7B8FF2B4601462046BDE8B2
:103FF000704018474416002044C000000022F8B565
:10400000012105461046FFF7B1FB104802F074FA93
:104010000446B8B902F090FA2F690D49384607F006
:10402000AFF9031E09DB0126BE642D69084905F1BD
:10403000200007F0A5F9031E02DA1C462046F8BD51
:104040006E65FBE76FF00404F8E700BF0541000070
:1040500058C400001FB500220123CDE902236C469D
:10406000074A6B46CDE9004407F04DFB28B94FF4F1
:1040700080420023684604F0D9FC04B010BD00BFA4
:1040800021B7000010B5EFF31184402383F31288A9
:10409000BFF36F8F074A136823F00201DB0711603B
:1040A00002D4012002F09CFA84F31188BFF36F8FD1
:1040B00010BD00BF9C16002030B4104B0C2202FB38
:1040C000003301460020D3E910521864EFF3118049
:1040D000402484F31288BFF36F8F9C6C04F0C004FB
:1040E00044F002049C6480F31188BFF36F8F1DB10C
:1040F0002B46034830BC184730BC7047441600209C
:1041000044C00000012808B506D0032808D098B99B
:104110000F4B9B6C5B0719D1BDE80840FFF7CCBF84
:104120000C490D4A0D4840F2FA2306F0DAFF40F23E
:10413000FA21094806F0CCFF0649074A07484FF420
:10414000417306F0CEFF4FF44171F2E708BD00BFA6
:10415000441600208FEB0000D9D6000011C70000E4
:1041600010B4EFF31180402282F31288BFF36F8FF7
:1041700017490B6843F0020413F001030C601AD0D6
:104180004FF08043D3F80C14D3F80C3413F0010330
:1041900011D0EFF3118182F31288BFF36F8F0D4AB4
:1041A000936C03F0C00343F00203936481F311881E
:1041B000BFF36F8F012380F31188BFF36F8F1BB1A3
:1041C00010BC0020FFF778BF10BC012002F0D8B966
:1041D0009C16002044160020024BC0B203EB401096
:1041E000704700BF441600202DE9F0414449BFF359
:1041F0005B8F0646012251E8003F41E8002000287D
:10420000F9D1BFF35B8FA3B93E493F484B60CB6008
:104210008A60FDF745FD00280BDA3C493C4A3D48E1
:1042200040F2A32306F05DFF40F2A321384806F0D8
:104230004FFF002E4CD0731E012B56D8012E07D1F4
:104240004FF08043D3F81C3403F00303012B3FD01D
:1042500007F0B4FD054658B1EFF31188402383F30E
:104260001288BFF36F8F01252B4F4FF080441EE063
:104270002A4B1B78002BEFD04FF080430222C3F86B
:1042800008238046F0E72DB3404607F0E3F9D4F861
:10429000183563B9D4F804214AB1C4F80431D4F80C
:1042A00004310123C4F81835C7F88031A360D4F86D
:1042B0001824D4F81834D203E5D503F00303012BF6
:1042C00001D0012EDFD155B188F31188BFF36F8F74
:1042D000BDE8F0810021212005F0FEFAD7E74FF07C
:1042E00080430222C3F80423F2E70D49084A094833
:1042F00040F2B52306F0F5FE40F2B52196E700BF87
:104300004016002030160020641600200BCE00005E
:10431000D9D6000011C7000000E100E0AF1C00206A
:104320008FEB000008B50448FCF7DAFF0248FFF7FE
:104330007DFD002008BD00BF3D43000073B5104E59
:104340008DF807000446032501220DF10701002026
:1043500003F052FB20B101233370204602B070BD40
:104360003378002BF9D0013D08D007F027FD002855
:10437000EAD10021422005F0AFFAE5E73570ECE71D
:10438000E918002038B5036961B92149214A22485A
:10439000642306F0A6FE214806F0A3FE64211D4812
:1043A00006F096FE486850B91D491A4A1A48652316
:1043B00006F097FE1B4806F094FE6521EFE758686B
:1043C00000B30024884219D108688CB99C685860F1
:1043D000A14200D19860002008602AB15A680A60A2
:1043E0009A68596002B9996000200FE02846E9E711
:1043F00020609868814208BF9C60ECE7056804462D
:10440000002DF3D1002AE9D16FF0150038BD00BFAF
:104410009FD7000063D7000011C70000A8D7000095
:10442000B7D70000C9D7000008B50368590914D0F0
:10443000012906D14FF6FF7203F01F03DA40D207BD
:104440000ED40B490B480C4A4FF4826306F049FE28
:1044500009484FF4826106F03BFE4FF0FF32EBE774
:1044600003600129054818BF4FF0A04008BD00BFF8
:1044700013D8000011C70000E0D70000000300506F
:1044800070B54468207C01F01F0545EA4015A0681E
:1044900086B0002873D0B2F5001F04D1294602F07F
:1044A000F3FD00204FE06068667CC0F8246501A839
:1044B0000026B2F5800F0196466033D1B3F1007F3C
:1044C00014BF052304238DF804300023CDE9040331
:1044D0000393E368CB4013F0010F6E4635D1B2F180
:1044E000A07F32D168460095FFF79EFF009B03F541
:1044F000E07350F82330DB0727D4A0686A462946CA
:1045000002F068FC163018D00296A06803AA29466B
:1045100002F000FB002816DBA0680122294602F009
:1045200031FDBEE7B3F1C06F05D0B3F1007F14BF1A
:1045300001230223C7E70323C5E7A068694602F009
:1045400001FD0028E0DA06B070BDA06832462946B9
:1045500002F040FC0028D8D19DF80010A06802F0BD
:10456000D5FC0028D1D007490748084A40F2F1138A
:1045700006F0B7FD054840F2F11106F0A9FD6FF015
:104580008500E0E722CA000011C7000036D800000D
:104590002DE9F043466840F20635337CD00687B0FB
:1045A00001F01F0702EA050547EA431754BFC2F3AB
:1045B00040130323B5F5837F14468DF8033044D0B0
:1045C0000DD8062D16D005D8A5B1022D3FD06FF01D
:1045D000150037E0B5F5807FF9D101250AE040F2FA
:1045E0000222954235D0B5F5407F34D0B5F5007F35
:1045F000EDD10225220330D5726801238B40C2F829
:104600000835B06888BB03A80397FFF70DFF039B2D
:1046100000EB8300C4F3004383F00103C4F3404480
:10462000D0F8002744EA43049DF8033022F4E16205
:1046300044EA830422F0070244EA05231343C0F846
:104640000037002007B0BDE8F0830725D2E7042536
:10465000D0E70525CEE70325CCE7630341BF01235F
:1046600072688B40C2F80C35CBE70DF10202394677
:1046700002F0B0FB14F4403F804617D1B0683946D1
:1046800002F02CFCB8F1000FDBD19DF80210B068ED
:1046900002F03CFC0028D4D01E491F481F4AFC23CE
:1046A00006F01FFD1D48FC2106F012FD4FF0000929
:1046B00001ABCDE90199CDE90439CDF80C90B06892
:1046C00003AA394602F026FA4845BADB14F400334F
:1046D00014D0C4F300449DF803308DF80E3084F0FC
:1046E00001048DF80C508DF80D40B0684B4603AABC
:1046F000394602F0D1FA0028C4DAA2E7CDE9043342
:104700000DF103030393B06803AA394602F002FADD
:10471000F1E700BF22CA000011C7000036D8000030
:10472000420970B5034602D0012A1ED070BD144E56
:10473000326951680029F9D003F01F0301250C6884
:104740009D400029F2D08A682A4012D04B6873B984
:104750000C490D4A0D48892306F0C3FC0C4806F0AD
:10476000C0FC0948892106F0B3FC0A4EE0E7304658
:1047700098471CB1236821461C46E2E72346FAE726
:104780007CC0000062D8000063D7000011C70000A1
:10479000C9D7000060C0000038B54568A86890B16E
:1047A00002F082FB014670B9A86802F047FB04469C
:1047B00058B902460649A86802F0F4FA22460521D3
:1047C0000620FEF7D3FF002038BD6FF00400FBE7A2
:1047D0002147000038B51149D1E90030D41AE31857
:1047E00040F1000022F07F45C1E90030A5F500133B
:1047F000B3F5400F09D20A4B1B681A0A1B06581959
:10480000084B42F10001C3E9000105F039FD014602
:104810002046BDE8384005F099BC00BFD80E002006
:10482000C0160020E00E00200D4B1868010A00069B
:10483000BFF35F8F0B4BD3F80435181841F100011B
:10484000B3F5801F0AD2084BD3E90023904271EBE5
:10485000030303D210F1807041F10001704700BFE3
:10486000C016002000100140E00E00202DE9F743A3
:104870002B4CD4F8043399070BD5D4F8043143B149
:10488000284A0023C4F80431D4F8043113680133F2
:104890001360D4F80433DA0323D5BFF35B8F224BC4
:1048A00053E8002F22F0010143E800100028F7D15F
:1048B000BFF35B8FD30702D4D4F840318BB100250E
:1048C000C4F84051D4F84031FFF7AEFFEFF3108247
:1048D00072B6164BD3E90267B042B94104D282F3F3
:1048E000108803B0BDE8F0834FF0FF384FF0FF3978
:1048F000C3E90289D3E900101D604FF48033C4F886
:104900004833C4F84051D4F8403182F3108800296C
:10491000E7D0009032463B4628468847E1E700BF93
:1049200000100140C0160020B8160020C80E00205C
:104930002DE9F84F4B4DBFF35B8F06460F4655E808
:10494000008F28F0010345E80032002AF7D1BFF3B9
:104950005B8F454C4FF48039C4F80893BFF35F8FE9
:10496000BFF36F8FFFF760FFB04271EB070308F0F2
:10497000010840D23D4B301A67EB0101984271F1BA
:1049800000014CD23A4BD3E902239F4208BF964222
:104990003ED04FF0000CC4F84893C4F840C126F054
:1049A0007F40D4F84031DFF8CCA0834603216FF07C
:1049B000020E2BF07F43C4F84035C4F84493D4F87A
:1049C0000425AEEB02035B4423F07F4353451FD91C
:1049D000D4F840315BB1D4F80425131A23F07F4397
:1049E000B3F5000F14D9C4F840C1D4F8403101EB3D
:1049F000020B0131DDE7204BBFF35B8F53E8001F53
:104A000041F0010143E80012002AF7D1BFF35B8FA8
:104A1000174B1A4A1A60C3E9026700225A60B8F1BC
:104A2000000F1CD0BFF35B8F55E8003F43F001033C
:104A300045E80032002AF7D1BFF35B8F4FF4803393
:104A4000C4F804330C4BBFF35B8F1B68BFF35B8F61
:104A5000DB0742BF0A4B4FF40032C3F80021BDE828
:104A6000F88F00BFBC16002000100140010080003C
:104A7000C80E0020FDFF7F00B8160020D5470000BB
:104A800000E100E070B5194C194BC4F80833C4F8C4
:104A90004833184B00254FF0FF304FF0FF31C4F87A
:104AA0000855C3E902014FF48033C4F80433124BB4
:104AB00002264FF40032C4F804630121C3F88021B8
:104AC00011202A46FEF752FE1120FEF71FFE012399
:104AD0000A4AA3600021236009481360FFF728FFFA
:104AE0003046FFF781FB284670BD00BF0010014033
:104AF00003000F00C80E002000E100E0BC160020FB
:104B0000FFFF7F00431C10B50F4C05D08442A8BFA7
:104B10000446012CB8BF0124FFF786FE0B4AD2E9F8
:104B20000031C01AB0F5000F074A0AD22044904263
:104B300028BF1046C018BDE8104041F10001FFF742
:104B4000F7BE1046F6E700BFFFFF7F00D80E00203B
:104B500008B5FFF769FE024B1B68C01A08BD00BF0D
:104B6000D80E0020042812D8DFE800F00D03110D44
:104B70000300084BA0221A60074B1872074BC3F8BA
:104B8000100501207047034B4FF49672F3E70020A5
:104B9000704700BFC8160020B81700200010004062
:104BA000014802F04FBE00BF2406002038B500289F
:104BB0001349144840F2044508BF4FF48065FBF7E1
:104BC000ABFA044648B9FBF79BFA204601F08AF895
:104BD0000D4B1B68C3F8005238BD0C4BDB7C002B1F
:104BE0000B4B0CBF81222822C3F848250022C3F8B2
:104BF0004821D3F848214FF48022C3F80423E7E783
:104C0000AC050020DC05002024060020B817002099
:104C100000A00040B0F5A47F09D1054B1A68D2F876
:104C2000003223F4806323F00403C2F8003270479B
:104C3000240600201FB5174B93F90A001B7A013B8D
:104C4000DBB2032B9CBF144AD25C144BDB7C4FF0CD
:104C5000000188BF0522009103F5166303A9FBF745
:104C60007FFA9DF80D00FBF775FA58B10C490D4815
:104C70000D4A40F21B4306F034FA0B4840F21B4148
:104C800006F026FA9DF80C20084BC3F80C2505B059
:104C90005DF804FBB8170020E0F600000C060020C9
:104CA0008FEB000011C700008AD800000010004000
:104CB000837842781B0443EA022302781343C278C4
:104CC00043EA0253027943EA8253427943EA026398
:104CD000827943EA8263C27943EA4273094AC2F89D
:104CE0001435837A417A1B0443EA0123017A0B438A
:104CF000C17A43EA0163017B43EA4163C2F8183594
:104D0000704700BF001000401FB504460D2200216F
:104D1000684607F0E4F80A4B00930A4B5B7CE0B26C
:104D2000013B8DF808008DF809008DF80A306846BF
:104D300001238DF80B30FFF7BBFF04B010BD00BF9F
:104D4000000101000C0600201FB518490B7823B1A3
:104D5000012B07D005B05DF804FB05B05DF804EB4E
:104D6000FFF7D2BF0022CDF809208DF80B30104B91
:104D7000CDF805205B7CCDF80120013B8DF80A3091
:104D800030238DF808300B7A03228DF80220012B96
:104D90004FF008028DF8002001D0042B02D101232E
:104DA0008DF805306846FFF783FFD3E7B81700207A
:104DB0000C060020064BBFF35B8F53E8001F014336
:104DC00043E80012002AF8D1BFF35B8F704700BFA1
:104DD000D416002008B5084806F0EDFC58B1074885
:104DE000436A0133082B28BF00234362BDE8084013
:104DF000283006F0F3BC08BDAC1700208417002053
:104E0000F8B50646284806F0D6FC07280D4649DCCA
:104E1000264B274F1A78012A39D13B78C3F3050274
:104E200003F03F03302B3DD8224B196A53F8213051
:104E30001A70204C2049236A54F8230010F8052BDF
:104E400007F03FF8236A54F823305E701B4B226A48
:104E5000D3F8483554F8222003F07F039370236A77
:104E600054F823301D71236A54F823207B78DB43E8
:104E700003F00103D370236A0133082B28BF0023FA
:104E800004F12800236206F0B5FC0120F8BD094AB0
:104E9000116A52F82120597809B91170C9E75B7C71
:104EA0001370C6E70020F1E780170020B817002034
:104EB000421C002058170020441C00200010004015
:104EC000684620F007018D4601B5204BD3F8042336
:104ED000D1060BD5D3F8102142B10022C3F810211E
:104EE000D3F810311A4B1B6803B19847174BD3F80E
:104EF000042312071ED5D3F80C21DAB1154A5278D3
:104F0000022A1DD1D3F80804134B5978C0B2C1F35B
:104F10004101FFF775FF38B10420FFF74BFF0F4B3E
:104F20004FF48012C3F80021084B0022C3F80C2173
:104F3000D3F80C31FEF7C8FCBDE801408546704748
:104F4000034B1B68002BEFD09847EDE700100040A3
:104F5000C4160020B8170020421C002000E100E029
:104F6000684620F007018D4631B5144B14481B6884
:104F7000144D82B0019306F024FC2B680446B3B1B3
:104F8000C10704D500228DF8002068469847A20783
:104F900005D501238DF8003068462B6898476307D4
:104FA00005D502238DF8003068462B689847FEF738
:104FB0008BFC02B0BDE8314085467047CC1600201E
:104FC000D4160020B41700202DE9F0416B4BDFF818
:104FD000B0815A6A6B4F98F8004053F822506A4EDD
:104FE0003D6014B3012C48D001243B68674D5A78CA
:104FF000C5F82C255B78664A012707FA03F3DBB274
:10500000C5F83035D37C40F6C41103F516638B42E6
:105010007CD960496048614A40F6A40306F061F813
:105020005E4840F6A40106F053F898F81100348069
:10503000FFF76AFE33782A79304662F3010300F8FD
:10504000023B294611F8052B06F03BFF4F4B40F27F
:105050001B12C3F80022C3F81041D3F8102110220C
:10506000C3F804234E4BB8F80E201A604D4B4E4A3D
:105070001A604E4B04221A70B6E7EA780023338098
:105080001AB198F8124084F001042B79287831780D
:105090005B0003F00603002A08BF43F001037278A7
:1050A00060F3050122F00702134331702946737043
:1050B00011F8052B3E4806F004FF344B39493B4AB2
:1050C000A4B140F21B10C3F800023548B8F80E40F6
:1050D000046035480860042111700022C3F81021D3
:1050E000D3F810211022C3F804237DE740F21310F7
:1050F000C3F800022F48086003211170C3F8104163
:10510000D3F810211022C3F804236EE7A3F5166329
:10511000C5F8083502F11403BFF35B8F53E8001F95
:1051200021F0010143E80012002AF7D1BFF35B8FA1
:10513000FFF780FD204BC5F804650222C3F88021EB
:105140003846FEF7E3FA0020C5F80401D5F804312B
:10515000C5F80801D5F80831C5F81001D5F81031A7
:10516000C5F80C012146D5F80C3100F0F7FD2046BA
:10517000FFF71CFD114B9F61BDE8F08184170020F3
:10518000B8170020B0170020741C00200010004049
:105190000C060020DFD8000011C70000ABD80000CB
:1051A000D0160020C4160020D9520000A61C0020F2
:1051B000761C0020C151000000E100E000400140E9
:1051C00010B5FAF7B5FF124B1B6801241C6100F003
:1051D000ABFDFAF79BFF0021084600F02BFE0D4BBC
:1051E00020461C60FFF7E6FDFFF7F4FD0A480B4B75
:1051F00006F0E1FA4FF4801220B909490C70C3F8A7
:10520000002110BDC3F80021BDE81040FFF7DCBE4F
:1052100024060020CC160020AC17002000E100E09E
:10522000A61C00200146C80708B506D5184806F098
:10523000B3FA184B00BAC3F81C058A0706D51648FE
:1052400006F0AAFA134B00BAC3F820054B070AD59B
:105250001248104906F0A0FAC1F82405104806F0DB
:105260009BFAC1F828054FF08053D3F83021082A63
:105270000DD1D3F8343153B9054B0A485B7C052B6B
:1052800018BF4FF07F40BDE8084000F09FBC08BD4C
:105290000C0600200010004010060020140600201C
:1052A000180600200000FFFF08B5FAF741FF074984
:1052B0000748FAF737FF074B1A68D2F8003223F491
:1052C000806323F00403C2F8003208BDAC0500205F
:1052D000F40500202406002070B501210020204C98
:1052E000204D00F0A7FD00F01FFDFFF7DDFF40F2AD
:1052F0001313C4F800321C4B1C4A1B680D33C2F850
:105300004035EB7C002BAB890CBF812128215B1A37
:10531000C2F84435164B1B68002640F20222C3F83F
:105320000022C3F84061D3F84021C3F84461D3F8A8
:10533000443100F02FFE00F007FEC4F80C6128781D
:10534000D4F80C3108B9FFF7DFFC0A4BC4F8043578
:10535000094B0A4A1A600A4B05221A7070BD00BF39
:1053600000100040B8170020C816002000A0004020
:1053700024060020421C0020C4160020E95300002F
:10538000A61C002010B50A4C0A4A2368D3F84435FD
:1053900000208133D36000F0A5FC07490548FAF7E7
:1053A000BBFE20B9236840F20442C3F8002210BDBE
:1053B00024060020C4050020AC05002008B500F03C
:1053C000B3FCFAF7B5FE0320FAF7BEFE054B1A68E8
:1053D000D2F8003223F4806323F00403C2F80032D1
:1053E00008BD00BF24060020F8B54B4E4B4C4C4D79
:1053F00000F002FEFAF7A2FEFAF788FED6F80C31AA
:10540000002B3AD0D6F80034D90736D50120FFF763
:10541000D1FC2268EB899B1A424A03441360FFF7D0
:10542000D9FC2B7883B1404B1A7892060CD0D6F871
:105430002C05597800F00700C1F34101FFF7E0FCAB
:1054400010B10420FFF7B6FC3848394B06F0B3F929
:1054500000280ADD2A7C012A07D04FF48012C3F805
:105460000021BDE8F840FFF7AFBD324A01211170BD
:105470004FF48012C3F80021F8BD23682D4E2E4F43
:105480005A1E226063B93B68264A01241C61EB89DD
:10549000022023441360FFF78DFC254B3470E7E7AF
:1054A0001D4C0023C4F80031D4F8003140F21B1326
:1054B000C4F800322B7813B9687CFFF725FC1F4B2A
:1054C000C4F804351E4B1F4A1A6004233370FFF7DB
:1054D000B1FBFFF757FF00F0FDFC3B68D3F8442118
:1054E000BAB1D4F85035DBB2092BC5D0D4F800419D
:1054F000002CC1D1FFF762FF00F026FD01212046FC
:1055000000F02CFC0120FFF751FB0F4B01229A61A8
:10551000B2E701221A60AFE700100040D016002069
:10552000B8170020CC160020421C0020AC17002029
:1055300000E100E0A61C002024060020741C0020CE
:10554000C4160020D952000000400140F8B51D4C9F
:1055500023788BB32378012B31D01B4B1B4E0025B6
:105560001D6000F0CBFD336801271F61FAF7E6FDEF
:10557000FAF7DEFD00F0D8FB0320FAF7E5FDFAF7B5
:10558000C5FD134B4FF0FF32C3F80052C3F8082398
:10559000C3F81051D3F810211F61D3F81021002A4D
:1055A000FBD0336800204FF0FF32C3F80002C3F88D
:1055B000082301232370F8BD6FF00C00FBE76FF0A8
:1055C0007700F8E7A61C0020C4160020240600205F
:1055D0000010004008B500F063FB034620B10C4A00
:1055E0000C48012105F09EFF1420FEF79DF80120D4
:1055F000FEF79AF80A20FEF797F8FFF7A7FF06488C
:1056000002F0F6F800F0FAFD044B00221A7008BD13
:10561000F7D8000070C2000024060020A61C00205D
:10562000024B1B780BB1FFF7D5BF7047A61C0020BB
:10563000F0B5054685B000286FD0804E33780BB1A9
:10564000FFF7EEFF00F0F6FA044640B17C4A03464D
:1056500001217C4805F066FF204605B0F0BD7A4B7D
:105660006A681A60794A2B4605F1100715461868D2
:105670005968144603C40833BB422246F7D1186860
:1056800020602B7803B9AB747148724F06F099F81B
:1056900000212022704806F022FC704B002407F104
:1056A00028001C605C60C7E9084406F08AF86C4872
:1056B000C0E90844283006F084F86A490B460134F2
:1056C000082C47F8043B03F13503F8D1664A6448D7
:1056D00000230133082B40F8042B02F13502F8D1E6
:1056E0000022624B10460132082A19601871986036
:1056F00001F1350103F10C03F5D15D4820220021B1
:1057000006F0EDFBAB89B3F5D97F09D8594A4D486E
:1057100040F2B313012105F005FF6FF015049BE77C
:10572000287AFFF71FFA2B78012B8CBF002000F09E
:1057300001006B7A012B40D0022B07D0002B45D003
:105740004D4A4048012105F0E4FEE6E74B4A4FF69A
:10575000FF71C2F83C15C2F83435494BC2F83835F0
:105760000028EDD0454F687CFFF7EEFA4FF0E733A5
:10577000C7F81C354FF04333C7F82035414BC7F805
:105780002435414BC7F828350023CDE902333F4A81
:105790003F4B4048019301A901F0C6FF0346D8B131
:1057A0003D4A2848012105F0BDFE3C4A254801211B
:1057B00005F0AFFE6FF00D044EE7304AFF21C2F84E
:1057C0003C15C2F8343540F20713C7E72B4AC2F83C
:1057D0003C35C2F83435C1E700F034FC044628B14A
:1057E0002F4A1848012105F094FE35E700F082FCAD
:1057F0002C4B5860D7F85026EB7C22F00102134363
:10580000C7F8503601252246022114203570FDF7D5
:10581000ADFF224629462846FDF7A8FF2246022171
:105820000A20FDF7A3FF1420FDF770FF2846FDF7BF
:105830006DFF0A20FDF76AFF0EE700BFA61C0020DF
:1058400011D9000070C20000B4170020B817002062
:10585000D416002084170020541800203A1C002081
:1058600058170020921A0020EA180020F81600208D
:10587000D81600202CD9000073D900000010004079
:1058800021100100E743C323A363E313154C000079
:1058900040420F002406002095D90000BED9000028
:1058A000E4D90000AC050020F8B54D4E337804462D
:1058B000002B00F08B804B4D6B78022B02D14FF008
:1058C000FF30F8BD10B96FF01500FAE703785A1EE3
:1058D0002F2A7ED82A7812B96A7C9A4279D3424814
:1058E00005F069FF072877DC6378072BEBD86A7827
:1058F0002B78002A34D11BB96A7C23789A42E2D1F2
:105900003A4B196A53F82110224604F1340052F838
:10591000047B41F8047B8242F9D112780A706078E6
:1059200033490A5C013202F003020A541A6A6078B1
:1059300053F82220095C11711A6A2B480132082A97
:1059400028BF00221A6205F055FF6B782A7C1343AA
:1059500004D13378012B01D1FFF736FB0020B0E7EB
:10596000002BACD0234A00231146107910BB0C2227
:105970005343CF180122CB583A71B860224604F144
:10598000340152F8040B43F8040B8A42F9D112781F
:105990001A700120FDF7C8FE6178174A52F82130CD
:1059A00073B942F82170104805F024FF0120FDF77B
:1059B000ADFECAE70133082B02F10C02D5D1C4E7D2
:1059C0001A469B68002BFBD19760ECE76FF00C0048
:1059D00077E76FF0790074E76FF00B0071E700BFB5
:1059E000A61C0020B8170020AC1700208417002048
:1059F0003A1C0020F8160020D816002010B5214AC5
:105A000012780346002A34D0002835D01E4805F00D
:105A1000D2FE002833D01D4C626A54F8222012783E
:105A20001A70616A54F8211049785970616A54F803
:105A3000211091F902109970616A54F821100979C6
:105A40001971616A54F82110C978D970616A54F8E3
:105A50002110581D053106F034FA636A0133082B12
:105A600028BF002304F12800636205F0B7FE002080
:105A700010BD6FF00C00FBE76FF01500F8E76FF05A
:105A80003C00F5E7A61C00208017002058170020D6
:105A900008B5134B1A78E2B11B78012B1CD11148C1
:105AA00005F089FE08B9002008BD0E4805F089FE02
:105AB0000D4B0022C3E908220C4B082101391A7151
:105AC0009A6003F10C03F9D12022094806F007FA85
:105AD000E9E76FF00C00E7E76FF00F00E4E700BFC5
